{"contracts/Hms.sol":{"HMS":{"abi":[{"anonymous":false,"inputs":[{"indexed":false,"internalType":"string","name":"message","type":"string"}],"name":"message","type":"event"},{"inputs":[{"internalType":"string","name":"_did","type":"string"},{"internalType":"string","name":"_fullname","type":"string"},{"internalType":"int256","name":"_age","type":"int256"},{"internalType":"string","name":"_gender","type":"string"},{"internalType":"string","name":"_Address","type":"string"},{"internalType":"int256","name":"_phone","type":"int256"},{"internalType":"string","name":"_email","type":"string"},{"internalType":"string","name":"_qualification","type":"string"},{"internalType":"string","name":"_speciality","type":"string"}],"name":"RegisterDoc","outputs":[],"stateMutability":"nonpayable","type":"function"},{"inputs":[{"internalType":"string","name":"_pid","type":"string"},{"internalType":"string","name":"_fullname","type":"string"},{"internalType":"int256","name":"_age","type":"int256"},{"internalType":"string","name":"_gender","type":"string"},{"internalType":"string","name":"_Address","type":"string"},{"internalType":"int256","name":"_phone","type":"int256"},{"internalType":"string","name":"_email","type":"string"},{"internalType":"string","name":"_docid","type":"string"},{"internalType":"string","name":"_docnote","type":"string"},{"internalType":"string","name":"_wardtype","type":"string"},{"internalType":"int256","name":"_wardno","type":"int256"}],"name":"RegisterIp1","outputs":[],"stateMutability":"nonpayable","type":"function"},{"inputs":[{"internalType":"string","name":"_pid","type":"string"},{"internalType":"int256","name":"_noofadmitteddays","type":"int256"},{"internalType":"string","name":"_dateofadmitted","type":"string"},{"internalType":"string","name":"_dateofdischarge","type":"string"},{"internalType":"string","name":"_labname","type":"string"},{"internalType":"string","name":"_testresults","type":"string"},{"internalType":"string","name":"_prescription","type":"string"}],"name":"RegisterIp2","outputs":[{"internalType":"string","name":"","type":"string"}],"stateMutability":"nonpayable","type":"function"},{"inputs":[{"internalType":"string","name":"_pid","type":"string"},{"internalType":"string","name":"_fullname","type":"string"},{"internalType":"int256","name":"_age","type":"int256"},{"internalType":"string","name":"_gender","type":"string"},{"internalType":"string","name":"_Address","type":"string"},{"internalType":"int256","name":"_phone","type":"int256"},{"internalType":"string","name":"_email","type":"string"},{"internalType":"string","name":"_docid","type":"string"},{"internalType":"string","name":"_docnote","type":"string"},{"internalType":"string","name":"_prescription","type":"string"}],"name":"RegisterOp","outputs":[],"stateMutability":"nonpayable","type":"function"},{"inputs":[{"internalType":"string","name":"_did","type":"string"}],"name":"ViewDoc","outputs":[{"components":[{"internalType":"string","name":"did","type":"string"},{"internalType":"string","name":"fullname","type":"string"},{"internalType":"int256","name":"age","type":"int256"},{"internalType":"string","name":"gender","type":"string"},{"internalType":"string","name":"Address","type":"string"},{"internalType":"int256","name":"phone","type":"int256"},{"internalType":"string","name":"email","type":"string"},{"internalType":"string","name":"qualification","type":"string"},{"internalType":"string","name":"speciality","type":"string"}],"internalType":"struct HMS.Doctor","name":"","type":"tuple"}],"stateMutability":"view","type":"function"},{"inputs":[{"internalType":"string","name":"_pid","type":"string"}],"name":"ViewIp","outputs":[{"components":[{"internalType":"string","name":"pid","type":"string"},{"internalType":"int256","name":"age","type":"int256"},{"internalType":"string","name":"fullname","type":"string"},{"internalType":"string","name":"gender","type":"string"},{"internalType":"string","name":"Address","type":"string"},{"internalType":"int256","name":"phone","type":"int256"},{"internalType":"string","name":"email","type":"string"},{"internalType":"string","name":"docid","type":"string"},{"internalType":"string","name":"docnote","type":"string"},{"internalType":"string","name":"wardtype","type":"string"},{"internalType":"int256","name":"wardno","type":"int256"},{"internalType":"int256","name":"noofadmitteddays","type":"int256"},{"internalType":"string","name":"dateofadmitted","type":"string"},{"internalType":"string","name":"dateofdischarge","type":"string"},{"internalType":"string","name":"labname","type":"string"},{"internalType":"string","name":"testresults","type":"string"},{"internalType":"string","name":"prescription","type":"string"}],"internalType":"struct HMS.InPatient","name":"","type":"tuple"}],"stateMutability":"view","type":"function"},{"inputs":[{"internalType":"string","name":"_pid","type":"string"}],"name":"ViewOp","outputs":[{"components":[{"internalType":"string","name":"pid","type":"string"},{"internalType":"string","name":"fullname","type":"string"},{"internalType":"int256","name":"age","type":"int256"},{"internalType":"string","name":"gender","type":"string"},{"internalType":"string","name":"Address","type":"string"},{"internalType":"int256","name":"phone","type":"int256"},{"internalType":"string","name":"email","type":"string"},{"internalType":"string","name":"docid","type":"string"},{"internalType":"string","name":"docnote","type":"string"},{"internalType":"string","name":"prescribtion","type":"string"}],"internalType":"struct HMS.OutPatient","name":"","type":"tuple"}],"stateMutability":"view","type":"function"},{"inputs":[],"name":"docount","outputs":[{"internalType":"uint256","name":"","type":"uint256"}],"stateMutability":"view","type":"function"},{"inputs":[],"name":"ipc","outputs":[{"internalType":"uint256","name":"","type":"uint256"}],"stateMutability":"view","type":"function"},{"inputs":[],"name":"opc","outputs":[{"internalType":"uint256","name":"","type":"uint256"}],"stateMutability":"view","type":"function"}],"evm":{"bytecode":{"linkReferences":{},"object":"608060405260016012556001601e55600160295534801561001f57600080fd5b50612f268061002f6000396000f3fe608060405234801561001057600080fd5b506004361061009e5760003560e01c80636b71da91116100665780636b71da911461016d57806391a361711461018b578063abe0f2ce146101bb578063b5945115146101d7578063d3c33c52146101f35761009e565b806337fcafc2146100a35780634132c4e0146100bf57806358830269146100ef5780635dea85d61461011f5780636453078f1461014f575b600080fd5b6100bd60048036038101906100b89190611def565b610211565b005b6100d960048036038101906100d49190611fc3565b61042f565b6040516100e6919061225b565b60405180910390f35b61010960048036038101906101049190611fc3565b610bfa565b6040516101169190612388565b60405180910390f35b610139600480360381019061013491906123aa565b6110d7565b604051610146919061253e565b60405180910390f35b610157611330565b6040516101649190612579565b60405180910390f35b61017561133a565b6040516101829190612579565b60405180910390f35b6101a560048036038101906101a09190611fc3565b611344565b6040516101b29190612683565b60405180910390f35b6101d560048036038101906101d091906126a5565b61178f565b005b6101f160048036038101906101ec9190612833565b61194c565b005b6101fb611b32565b6040516102089190612579565b60405180910390f35b8a600160000190816102239190612bfe565b50886001800181905550896001600201908161023f9190612bfe565b5087600160030190816102529190612bfe565b5086600160040190816102659190612bfe565b508560016005018190555084600160060190816102829190612bfe565b5083600160070190816102959190612bfe565b5082600160080190816102a89190612bfe565b5081600160090190816102bb9190612bfe565b50806001600a0181905550600160008c6040516102d89190612d0c565b9081526020016040518091039020600082018160000190816102fa9190612d39565b5060018201548160010155600282018160020190816103199190612d39565b506003820181600301908161032e9190612d39565b50600482018160040190816103439190612d39565b5060058201548160050155600682018160060190816103629190612d39565b50600782018160070190816103779190612d39565b506008820181600801908161038c9190612d39565b50600982018160090190816103a19190612d39565b50600a82015481600a0155600b82015481600b0155600c820181600c0190816103ca9190612d39565b50600d820181600d0190816103df9190612d39565b50600e820181600e0190816103f49190612d39565b50600f820181600f0190816104099190612d39565b506010820181601001908161041e9190612d39565b509050505050505050505050505050565b610437611b3c565b6000826040516104479190612d0c565b90815260200160405180910390206040518061022001604052908160008201805461047190612a21565b80601f016020809104026020016040519081016040528092919081815260200182805461049d90612a21565b80156104ea5780601f106104bf576101008083540402835291602001916104ea565b820191906000526020600020905b8154815290600101906020018083116104cd57829003601f168201915b505050505081526020016001820154815260200160028201805461050d90612a21565b80601f016020809104026020016040519081016040528092919081815260200182805461053990612a21565b80156105865780601f1061055b57610100808354040283529160200191610586565b820191906000526020600020905b81548152906001019060200180831161056957829003601f168201915b5050505050815260200160038201805461059f90612a21565b80601f01602080910402602001604051908101604052809291908181526020018280546105cb90612a21565b80156106185780601f106105ed57610100808354040283529160200191610618565b820191906000526020600020905b8154815290600101906020018083116105fb57829003601f168201915b5050505050815260200160048201805461063190612a21565b80601f016020809104026020016040519081016040528092919081815260200182805461065d90612a21565b80156106aa5780601f1061067f576101008083540402835291602001916106aa565b820191906000526020600020905b81548152906001019060200180831161068d57829003601f168201915b50505050508152602001600582015481526020016006820180546106cd90612a21565b80601f01602080910402602001604051908101604052809291908181526020018280546106f990612a21565b80156107465780601f1061071b57610100808354040283529160200191610746565b820191906000526020600020905b81548152906001019060200180831161072957829003601f168201915b5050505050815260200160078201805461075f90612a21565b80601f016020809104026020016040519081016040528092919081815260200182805461078b90612a21565b80156107d85780601f106107ad576101008083540402835291602001916107d8565b820191906000526020600020905b8154815290600101906020018083116107bb57829003601f168201915b505050505081526020016008820180546107f190612a21565b80601f016020809104026020016040519081016040528092919081815260200182805461081d90612a21565b801561086a5780601f1061083f5761010080835404028352916020019161086a565b820191906000526020600020905b81548152906001019060200180831161084d57829003601f168201915b5050505050815260200160098201805461088390612a21565b80601f01602080910402602001604051908101604052809291908181526020018280546108af90612a21565b80156108fc5780601f106108d1576101008083540402835291602001916108fc565b820191906000526020600020905b8154815290600101906020018083116108df57829003601f168201915b50505050508152602001600a8201548152602001600b8201548152602001600c8201805461092990612a21565b80601f016020809104026020016040519081016040528092919081815260200182805461095590612a21565b80156109a25780601f10610977576101008083540402835291602001916109a2565b820191906000526020600020905b81548152906001019060200180831161098557829003601f168201915b50505050508152602001600d820180546109bb90612a21565b80601f01602080910402602001604051908101604052809291908181526020018280546109e790612a21565b8015610a345780601f10610a0957610100808354040283529160200191610a34565b820191906000526020600020905b815481529060010190602001808311610a1757829003601f168201915b50505050508152602001600e82018054610a4d90612a21565b80601f0160208091040260200160405190810160405280929190818152602001828054610a7990612a21565b8015610ac65780601f10610a9b57610100808354040283529160200191610ac6565b820191906000526020600020905b815481529060010190602001808311610aa957829003601f168201915b50505050508152602001600f82018054610adf90612a21565b80601f0160208091040260200160405190810160405280929190818152602001828054610b0b90612a21565b8015610b585780601f10610b2d57610100808354040283529160200191610b58565b820191906000526020600020905b815481529060010190602001808311610b3b57829003601f168201915b50505050508152602001601082018054610b7190612a21565b80601f0160208091040260200160405190810160405280929190818152602001828054610b9d90612a21565b8015610bea5780601f10610bbf57610100808354040283529160200191610bea565b820191906000526020600020905b815481529060010190602001808311610bcd57829003601f168201915b5050505050815250509050919050565b610c02611bc0565b601382604051610c129190612d0c565b908152602001604051809103902060405180610140016040529081600082018054610c3c90612a21565b80601f0160208091040260200160405190810160405280929190818152602001828054610c6890612a21565b8015610cb55780601f10610c8a57610100808354040283529160200191610cb5565b820191906000526020600020905b815481529060010190602001808311610c9857829003601f168201915b50505050508152602001600182018054610cce90612a21565b80601f0160208091040260200160405190810160405280929190818152602001828054610cfa90612a21565b8015610d475780601f10610d1c57610100808354040283529160200191610d47565b820191906000526020600020905b815481529060010190602001808311610d2a57829003601f168201915b5050505050815260200160028201548152602001600382018054610d6a90612a21565b80601f0160208091040260200160405190810160405280929190818152602001828054610d9690612a21565b8015610de35780601f10610db857610100808354040283529160200191610de3565b820191906000526020600020905b815481529060010190602001808311610dc657829003601f168201915b50505050508152602001600482018054610dfc90612a21565b80601f0160208091040260200160405190810160405280929190818152602001828054610e2890612a21565b8015610e755780601f10610e4a57610100808354040283529160200191610e75565b820191906000526020600020905b815481529060010190602001808311610e5857829003601f168201915b5050505050815260200160058201548152602001600682018054610e9890612a21565b80601f0160208091040260200160405190810160405280929190818152602001828054610ec490612a21565b8015610f115780601f10610ee657610100808354040283529160200191610f11565b820191906000526020600020905b815481529060010190602001808311610ef457829003601f168201915b50505050508152602001600782018054610f2a90612a21565b80601f0160208091040260200160405190810160405280929190818152602001828054610f5690612a21565b8015610fa35780601f10610f7857610100808354040283529160200191610fa3565b820191906000526020600020905b815481529060010190602001808311610f8657829003601f168201915b50505050508152602001600882018054610fbc90612a21565b80601f0160208091040260200160405190810160405280929190818152602001828054610fe890612a21565b80156110355780601f1061100a57610100808354040283529160200191611035565b820191906000526020600020905b81548152906001019060200180831161101857829003601f168201915b5050505050815260200160098201805461104e90612a21565b80601f016020809104026020016040519081016040528092919081815260200182805461107a90612a21565b80156110c75780601f1061109c576101008083540402835291602001916110c7565b820191906000526020600020905b8154815290600101906020018083116110aa57829003601f168201915b5050505050815250509050919050565b6060866001600b0181905550856001600c0190816110f59190612bfe565b50846001600d0190816111089190612bfe565b50836001600e01908161111b9190612bfe565b50826001600f01908161112e9190612bfe565b5081600160100190816111419190612bfe565b506001601260008282546111559190612e50565b92505081905550600160008960405161116e9190612d0c565b9081526020016040518091039020600082018160000190816111909190612d39565b5060018201548160010155600282018160020190816111af9190612d39565b50600382018160030190816111c49190612d39565b50600482018160040190816111d99190612d39565b5060058201548160050155600682018160060190816111f89190612d39565b506007820181600701908161120d9190612d39565b50600882018160080190816112229190612d39565b50600982018160090190816112379190612d39565b50600a82015481600a0155600b82015481600b0155600c820181600c0190816112609190612d39565b50600d820181600d0190816112759190612d39565b50600e820181600e01908161128a9190612d39565b50600f820181600f01908161129f9190612d39565b50601082018160100190816112b49190612d39565b509050507f05c766d1c5ea6f40afc38cd8e27308c236c492fbcfa32b458d2755cf76ec1e216040516112e590612ed0565b60405180910390a16040518060400160405280601181526020017f41646465642053756363657366756c6c790000000000000000000000000000008152509050979650505050505050565b6000602954905090565b6000601e54905090565b61134c611c13565b601f8260405161135c9190612d0c565b90815260200160405180910390206040518061012001604052908160008201805461138690612a21565b80601f01602080910402602001604051908101604052809291908181526020018280546113b290612a21565b80156113ff5780601f106113d4576101008083540402835291602001916113ff565b820191906000526020600020905b8154815290600101906020018083116113e257829003601f168201915b5050505050815260200160018201805461141890612a21565b80601f016020809104026020016040519081016040528092919081815260200182805461144490612a21565b80156114915780601f1061146657610100808354040283529160200191611491565b820191906000526020600020905b81548152906001019060200180831161147457829003601f168201915b50505050508152602001600282015481526020016003820180546114b490612a21565b80601f01602080910402602001604051908101604052809291908181526020018280546114e090612a21565b801561152d5780601f106115025761010080835404028352916020019161152d565b820191906000526020600020905b81548152906001019060200180831161151057829003601f168201915b5050505050815260200160048201805461154690612a21565b80601f016020809104026020016040519081016040528092919081815260200182805461157290612a21565b80156115bf5780601f10611594576101008083540402835291602001916115bf565b820191906000526020600020905b8154815290600101906020018083116115a257829003601f168201915b50505050508152602001600582015481526020016006820180546115e290612a21565b80601f016020809104026020016040519081016040528092919081815260200182805461160e90612a21565b801561165b5780601f106116305761010080835404028352916020019161165b565b820191906000526020600020905b81548152906001019060200180831161163e57829003601f168201915b5050505050815260200160078201805461167490612a21565b80601f01602080910402602001604051908101604052809291908181526020018280546116a090612a21565b80156116ed5780601f106116c2576101008083540402835291602001916116ed565b820191906000526020600020905b8154815290600101906020018083116116d057829003601f168201915b5050505050815260200160088201805461170690612a21565b80601f016020809104026020016040519081016040528092919081815260200182805461173290612a21565b801561177f5780601f106117545761010080835404028352916020019161177f565b820191906000526020600020905b81548152906001019060200180831161176257829003601f168201915b5050505050815250509050919050565b88602060000190816117a19190612bfe565b508660206002018190555087602060010190816117be9190612bfe565b5085602060030190816117d19190612bfe565b5084602060040190816117e49190612bfe565b508360206005018190555082602060060190816118019190612bfe565b5081602060070190816118149190612bfe565b5080602060080190816118279190612bfe565b506020601f8a60405161183a9190612d0c565b90815260200160405180910390206000820181600001908161185c9190612d39565b50600182018160010190816118719190612d39565b5060028201548160020155600382018160030190816118909190612d39565b50600482018160040190816118a59190612d39565b5060058201548160050155600682018160060190816118c49190612d39565b50600782018160070190816118d99190612d39565b50600882018160080190816118ee9190612d39565b509050506001602960008282546119059190612e50565b925050819055507f05c766d1c5ea6f40afc38cd8e27308c236c492fbcfa32b458d2755cf76ec1e2160405161193990612ed0565b60405180910390a1505050505050505050565b896014600001908161195e9190612bfe565b5087601460020181905550886014600101908161197b9190612bfe565b50866014600301908161198e9190612bfe565b5085601460040190816119a19190612bfe565b508460146005018190555083601460060190816119be9190612bfe565b5082601460070190816119d19190612bfe565b5081601460080190816119e49190612bfe565b5080601460090190816119f79190612bfe565b50601460138b604051611a0a9190612d0c565b908152602001604051809103902060008201816000019081611a2c9190612d39565b5060018201816001019081611a419190612d39565b506002820154816002015560038201816003019081611a609190612d39565b5060048201816004019081611a759190612d39565b506005820154816005015560068201816006019081611a949190612d39565b5060078201816007019081611aa99190612d39565b5060088201816008019081611abe9190612d39565b5060098201816009019081611ad39190612d39565b509050506001601e6000828254611aea9190612e50565b925050819055507f05c766d1c5ea6f40afc38cd8e27308c236c492fbcfa32b458d2755cf76ec1e21604051611b1e90612ed0565b60405180910390a150505050505050505050565b6000601254905090565b60405180610220016040528060608152602001600081526020016060815260200160608152602001606081526020016000815260200160608152602001606081526020016060815260200160608152602001600081526020016000815260200160608152602001606081526020016060815260200160608152602001606081525090565b604051806101400160405280606081526020016060815260200160008152602001606081526020016060815260200160008152602001606081526020016060815260200160608152602001606081525090565b6040518061012001604052806060815260200160608152602001600081526020016060815260200160608152602001600081526020016060815260200160608152602001606081525090565b6000604051905090565b600080fd5b600080fd5b600080fd5b600080fd5b6000601f19601f8301169050919050565b7f4e487b7100000000000000000000000000000000000000000000000000000000600052604160045260246000fd5b611cc682611c7d565b810181811067ffffffffffffffff82111715611ce557611ce4611c8e565b5b80604052505050565b6000611cf8611c5f565b9050611d048282611cbd565b919050565b600067ffffffffffffffff821115611d2457611d23611c8e565b5b611d2d82611c7d565b9050602081019050919050565b82818337600083830152505050565b6000611d5c611d5784611d09565b611cee565b905082815260208101848484011115611d7857611d77611c78565b5b611d83848285611d3a565b509392505050565b600082601f830112611da057611d9f611c73565b5b8135611db0848260208601611d49565b91505092915050565b6000819050919050565b611dcc81611db9565b8114611dd757600080fd5b50565b600081359050611de981611dc3565b92915050565b60008060008060008060008060008060006101608c8e031215611e1557611e14611c69565b5b60008c013567ffffffffffffffff811115611e3357611e32611c6e565b5b611e3f8e828f01611d8b565b9b505060208c013567ffffffffffffffff811115611e6057611e5f611c6e565b5b611e6c8e828f01611d8b565b9a50506040611e7d8e828f01611dda565b99505060608c013567ffffffffffffffff811115611e9e57611e9d611c6e565b5b611eaa8e828f01611d8b565b98505060808c013567ffffffffffffffff811115611ecb57611eca611c6e565b5b611ed78e828f01611d8b565b97505060a0611ee88e828f01611dda565b96505060c08c013567ffffffffffffffff811115611f0957611f08611c6e565b5b611f158e828f01611d8b565b95505060e08c013567ffffffffffffffff811115611f3657611f35611c6e565b5b611f428e828f01611d8b565b9450506101008c013567ffffffffffffffff811115611f6457611f63611c6e565b5b611f708e828f01611d8b565b9350506101208c013567ffffffffffffffff811115611f9257611f91611c6e565b5b611f9e8e828f01611d8b565b925050610140611fb08e828f01611dda565b9150509295989b509295989b9093969950565b600060208284031215611fd957611fd8611c69565b5b600082013567ffffffffffffffff811115611ff757611ff6611c6e565b5b61200384828501611d8b565b91505092915050565b600081519050919050565b600082825260208201905092915050565b60005b8381101561204657808201518184015260208101905061202b565b60008484015250505050565b600061205d8261200c565b6120678185612017565b9350612077818560208601612028565b61208081611c7d565b840191505092915050565b61209481611db9565b82525050565b60006102208301600083015184820360008601526120b88282612052565b91505060208301516120cd602086018261208b565b50604083015184820360408601526120e58282612052565b915050606083015184820360608601526120ff8282612052565b915050608083015184820360808601526121198282612052565b91505060a083015161212e60a086018261208b565b5060c083015184820360c08601526121468282612052565b91505060e083015184820360e08601526121608282612052565b91505061010083015184820361010086015261217c8282612052565b9150506101208301518482036101208601526121988282612052565b9150506101408301516121af61014086018261208b565b506101608301516121c461016086018261208b565b506101808301518482036101808601526121de8282612052565b9150506101a08301518482036101a08601526121fa8282612052565b9150506101c08301518482036101c08601526122168282612052565b9150506101e08301518482036101e08601526122328282612052565b91505061020083015184820361020086015261224e8282612052565b9150508091505092915050565b60006020820190508181036000830152612275818461209a565b905092915050565b600061014083016000830151848203600086015261229b8282612052565b915050602083015184820360208601526122b58282612052565b91505060408301516122ca604086018261208b565b50606083015184820360608601526122e28282612052565b915050608083015184820360808601526122fc8282612052565b91505060a083015161231160a086018261208b565b5060c083015184820360c08601526123298282612052565b91505060e083015184820360e08601526123438282612052565b91505061010083015184820361010086015261235f8282612052565b91505061012083015184820361012086015261237b8282612052565b9150508091505092915050565b600060208201905081810360008301526123a2818461227d565b905092915050565b600080600080600080600060e0888a0312156123c9576123c8611c69565b5b600088013567ffffffffffffffff8111156123e7576123e6611c6e565b5b6123f38a828b01611d8b565b97505060206124048a828b01611dda565b965050604088013567ffffffffffffffff81111561242557612424611c6e565b5b6124318a828b01611d8b565b955050606088013567ffffffffffffffff81111561245257612451611c6e565b5b61245e8a828b01611d8b565b945050608088013567ffffffffffffffff81111561247f5761247e611c6e565b5b61248b8a828b01611d8b565b93505060a088013567ffffffffffffffff8111156124ac576124ab611c6e565b5b6124b88a828b01611d8b565b92505060c088013567ffffffffffffffff8111156124d9576124d8611c6e565b5b6124e58a828b01611d8b565b91505092959891949750929550565b600082825260208201905092915050565b60006125108261200c565b61251a81856124f4565b935061252a818560208601612028565b61253381611c7d565b840191505092915050565b600060208201905081810360008301526125588184612505565b905092915050565b6000819050919050565b61257381612560565b82525050565b600060208201905061258e600083018461256a565b92915050565b60006101208301600083015184820360008601526125b28282612052565b915050602083015184820360208601526125cc8282612052565b91505060408301516125e1604086018261208b565b50606083015184820360608601526125f98282612052565b915050608083015184820360808601526126138282612052565b91505060a083015161262860a086018261208b565b5060c083015184820360c08601526126408282612052565b91505060e083015184820360e086015261265a8282612052565b9150506101008301518482036101008601526126768282612052565b9150508091505092915050565b6000602082019050818103600083015261269d8184612594565b905092915050565b60008060008060008060008060006101208a8c0312156126c8576126c7611c69565b5b60008a013567ffffffffffffffff8111156126e6576126e5611c6e565b5b6126f28c828d01611d8b565b99505060208a013567ffffffffffffffff81111561271357612712611c6e565b5b61271f8c828d01611d8b565b98505060406127308c828d01611dda565b97505060608a013567ffffffffffffffff81111561275157612750611c6e565b5b61275d8c828d01611d8b565b96505060808a013567ffffffffffffffff81111561277e5761277d611c6e565b5b61278a8c828d01611d8b565b95505060a061279b8c828d01611dda565b94505060c08a013567ffffffffffffffff8111156127bc576127bb611c6e565b5b6127c88c828d01611d8b565b93505060e08a013567ffffffffffffffff8111156127e9576127e8611c6e565b5b6127f58c828d01611d8b565b9250506101008a013567ffffffffffffffff81111561281757612816611c6e565b5b6128238c828d01611d8b565b9150509295985092959850929598565b6000806000806000806000806000806101408b8d03121561285757612856611c69565b5b60008b013567ffffffffffffffff81111561287557612874611c6e565b5b6128818d828e01611d8b565b9a505060208b013567ffffffffffffffff8111156128a2576128a1611c6e565b5b6128ae8d828e01611d8b565b99505060406128bf8d828e01611dda565b98505060608b013567ffffffffffffffff8111156128e0576128df611c6e565b5b6128ec8d828e01611d8b565b97505060808b013567ffffffffffffffff81111561290d5761290c611c6e565b5b6129198d828e01611d8b565b96505060a061292a8d828e01611dda565b95505060c08b013567ffffffffffffffff81111561294b5761294a611c6e565b5b6129578d828e01611d8b565b94505060e08b013567ffffffffffffffff81111561297857612977611c6e565b5b6129848d828e01611d8b565b9350506101008b013567ffffffffffffffff8111156129a6576129a5611c6e565b5b6129b28d828e01611d8b565b9250506101208b013567ffffffffffffffff8111156129d4576129d3611c6e565b5b6129e08d828e01611d8b565b9150509295989b9194979a5092959850565b7f4e487b7100000000000000000000000000000000000000000000000000000000600052602260045260246000fd5b60006002820490506001821680612a3957607f821691505b602082108103612a4c57612a4b6129f2565b5b50919050565b60008190508160005260206000209050919050565b60006020601f8301049050919050565b600082821b905092915050565b600060088302612ab47fffffffffffffffffffffffffffffffffffffffffffffffffffffffffffffffff82612a77565b612abe8683612a77565b95508019841693508086168417925050509392505050565b6000819050919050565b6000612afb612af6612af184612560565b612ad6565b612560565b9050919050565b6000819050919050565b612b1583612ae0565b612b29612b2182612b02565b848454612a84565b825550505050565b600090565b612b3e612b31565b612b49818484612b0c565b505050565b5b81811015612b6d57612b62600082612b36565b600181019050612b4f565b5050565b601f821115612bb257612b8381612a52565b612b8c84612a67565b81016020851015612b9b578190505b612baf612ba785612a67565b830182612b4e565b50505b505050565b600082821c905092915050565b6000612bd560001984600802612bb7565b1980831691505092915050565b6000612bee8383612bc4565b9150826002028217905092915050565b612c078261200c565b67ffffffffffffffff811115612c2057612c1f611c8e565b5b612c2a8254612a21565b612c35828285612b71565b600060209050601f831160018114612c685760008415612c56578287015190505b612c608582612be2565b865550612cc8565b601f198416612c7686612a52565b60005b82811015612c9e57848901518255600182019150602085019450602081019050612c79565b86831015612cbb5784890151612cb7601f891682612bc4565b8355505b6001600288020188555050505b505050505050565b600081905092915050565b6000612ce68261200c565b612cf08185612cd0565b9350612d00818560208601612028565b80840191505092915050565b6000612d188284612cdb565b915081905092915050565b600081549050612d3281612a21565b9050919050565b818103612d47575050612e1f565b612d5082612d23565b67ffffffffffffffff811115612d6957612d68611c8e565b5b612d738254612a21565b612d7e828285612b71565b6000601f831160018114612dad5760008415612d9b578287015490505b612da58582612be2565b865550612e18565b601f198416612dbb87612a52565b9650612dc686612a52565b60005b82811015612dee57848901548255600182019150600185019450602081019050612dc9565b86831015612e0b5784890154612e07601f891682612bc4565b8355505b6001600288020188555050505b5050505050505b565b7f4e487b7100000000000000000000000000000000000000000000000000000000600052601160045260246000fd5b6000612e5b82612560565b9150612e6683612560565b9250828201905080821115612e7e57612e7d612e21565b5b92915050565b7f41646465642073756363657366756c6c79000000000000000000000000000000600082015250565b6000612eba6011836124f4565b9150612ec582612e84565b602082019050919050565b60006020820190508181036000830152612ee981612ead565b905091905056fea2646970667358221220c426ecf8be9d9e26167e51423ed725a77275d5d7f26bf1c89a7f04ffbea7c9bd64736f6c63430008110033","opcodes":"PUSH1 0x80 PUSH1 0x40 MSTORE PUSH1 0x1 PUSH1 0x12 SSTORE PUSH1 0x1 PUSH1 0x1E SSTORE PUSH1 0x1 PUSH1 0x29 SSTORE CALLVALUE DUP1 ISZERO PUSH2 0x1F JUMPI PUSH1 0x0 DUP1 REVERT JUMPDEST POP PUSH2 0x2F26 DUP1 PUSH2 0x2F PUSH1 0x0 CODECOPY PUSH1 0x0 RETURN INVALID PUSH1 0x80 PUSH1 0x40 MSTORE CALLVALUE DUP1 ISZERO PUSH2 0x10 JUMPI PUSH1 0x0 DUP1 REVERT JUMPDEST POP PUSH1 0x4 CALLDATASIZE LT PUSH2 0x9E JUMPI PUSH1 0x0 CALLDATALOAD PUSH1 0xE0 SHR DUP1 PUSH4 0x6B71DA91 GT PUSH2 0x66 JUMPI DUP1 PUSH4 0x6B71DA91 EQ PUSH2 0x16D JUMPI DUP1 PUSH4 0x91A36171 EQ PUSH2 0x18B JUMPI DUP1 PUSH4 0xABE0F2CE EQ PUSH2 0x1BB JUMPI DUP1 PUSH4 0xB5945115 EQ PUSH2 0x1D7 JUMPI DUP1 PUSH4 0xD3C33C52 EQ PUSH2 0x1F3 JUMPI PUSH2 0x9E JUMP JUMPDEST DUP1 PUSH4 0x37FCAFC2 EQ PUSH2 0xA3 JUMPI DUP1 PUSH4 0x4132C4E0 EQ PUSH2 0xBF JUMPI DUP1 PUSH4 0x58830269 EQ PUSH2 0xEF JUMPI DUP1 PUSH4 0x5DEA85D6 EQ PUSH2 0x11F JUMPI DUP1 PUSH4 0x6453078F EQ PUSH2 0x14F JUMPI JUMPDEST PUSH1 0x0 DUP1 REVERT JUMPDEST PUSH2 0xBD PUSH1 0x4 DUP1 CALLDATASIZE SUB DUP2 ADD SWAP1 PUSH2 0xB8 SWAP2 SWAP1 PUSH2 0x1DEF JUMP JUMPDEST PUSH2 0x211 JUMP JUMPDEST STOP JUMPDEST PUSH2 0xD9 PUSH1 0x4 DUP1 CALLDATASIZE SUB DUP2 ADD SWAP1 PUSH2 0xD4 SWAP2 SWAP1 PUSH2 0x1FC3 JUMP JUMPDEST PUSH2 0x42F JUMP JUMPDEST PUSH1 0x40 MLOAD PUSH2 0xE6 SWAP2 SWAP1 PUSH2 0x225B JUMP JUMPDEST PUSH1 0x40 MLOAD DUP1 SWAP2 SUB SWAP1 RETURN JUMPDEST PUSH2 0x109 PUSH1 0x4 DUP1 CALLDATASIZE SUB DUP2 ADD SWAP1 PUSH2 0x104 SWAP2 SWAP1 PUSH2 0x1FC3 JUMP JUMPDEST PUSH2 0xBFA JUMP JUMPDEST PUSH1 0x40 MLOAD PUSH2 0x116 SWAP2 SWAP1 PUSH2 0x2388 JUMP JUMPDEST PUSH1 0x40 MLOAD DUP1 SWAP2 SUB SWAP1 RETURN JUMPDEST PUSH2 0x139 PUSH1 0x4 DUP1 CALLDATASIZE SUB DUP2 ADD SWAP1 PUSH2 0x134 SWAP2 SWAP1 PUSH2 0x23AA JUMP JUMPDEST PUSH2 0x10D7 JUMP JUMPDEST PUSH1 0x40 MLOAD PUSH2 0x146 SWAP2 SWAP1 PUSH2 0x253E JUMP JUMPDEST PUSH1 0x40 MLOAD DUP1 SWAP2 SUB SWAP1 RETURN JUMPDEST PUSH2 0x157 PUSH2 0x1330 JUMP JUMPDEST PUSH1 0x40 MLOAD PUSH2 0x164 SWAP2 SWAP1 PUSH2 0x2579 JUMP JUMPDEST PUSH1 0x40 MLOAD DUP1 SWAP2 SUB SWAP1 RETURN JUMPDEST PUSH2 0x175 PUSH2 0x133A JUMP JUMPDEST PUSH1 0x40 MLOAD PUSH2 0x182 SWAP2 SWAP1 PUSH2 0x2579 JUMP JUMPDEST PUSH1 0x40 MLOAD DUP1 SWAP2 SUB SWAP1 RETURN JUMPDEST PUSH2 0x1A5 PUSH1 0x4 DUP1 CALLDATASIZE SUB DUP2 ADD SWAP1 PUSH2 0x1A0 SWAP2 SWAP1 PUSH2 0x1FC3 JUMP JUMPDEST PUSH2 0x1344 JUMP JUMPDEST PUSH1 0x40 MLOAD PUSH2 0x1B2 SWAP2 SWAP1 PUSH2 0x2683 JUMP JUMPDEST PUSH1 0x40 MLOAD DUP1 SWAP2 SUB SWAP1 RETURN JUMPDEST PUSH2 0x1D5 PUSH1 0x4 DUP1 CALLDATASIZE SUB DUP2 ADD SWAP1 PUSH2 0x1D0 SWAP2 SWAP1 PUSH2 0x26A5 JUMP JUMPDEST PUSH2 0x178F JUMP JUMPDEST STOP JUMPDEST PUSH2 0x1F1 PUSH1 0x4 DUP1 CALLDATASIZE SUB DUP2 ADD SWAP1 PUSH2 0x1EC SWAP2 SWAP1 PUSH2 0x2833 JUMP JUMPDEST PUSH2 0x194C JUMP JUMPDEST STOP JUMPDEST PUSH2 0x1FB PUSH2 0x1B32 JUMP JUMPDEST PUSH1 0x40 MLOAD PUSH2 0x208 SWAP2 SWAP1 PUSH2 0x2579 JUMP JUMPDEST PUSH1 0x40 MLOAD DUP1 SWAP2 SUB SWAP1 RETURN JUMPDEST DUP11 PUSH1 0x1 PUSH1 0x0 ADD SWAP1 DUP2 PUSH2 0x223 SWAP2 SWAP1 PUSH2 0x2BFE JUMP JUMPDEST POP DUP9 PUSH1 0x1 DUP1 ADD DUP2 SWAP1 SSTORE POP DUP10 PUSH1 0x1 PUSH1 0x2 ADD SWAP1 DUP2 PUSH2 0x23F SWAP2 SWAP1 PUSH2 0x2BFE JUMP JUMPDEST POP DUP8 PUSH1 0x1 PUSH1 0x3 ADD SWAP1 DUP2 PUSH2 0x252 SWAP2 SWAP1 PUSH2 0x2BFE JUMP JUMPDEST POP DUP7 PUSH1 0x1 PUSH1 0x4 ADD SWAP1 DUP2 PUSH2 0x265 SWAP2 SWAP1 PUSH2 0x2BFE JUMP JUMPDEST POP DUP6 PUSH1 0x1 PUSH1 0x5 ADD DUP2 SWAP1 SSTORE POP DUP5 PUSH1 0x1 PUSH1 0x6 ADD SWAP1 DUP2 PUSH2 0x282 SWAP2 SWAP1 PUSH2 0x2BFE JUMP JUMPDEST POP DUP4 PUSH1 0x1 PUSH1 0x7 ADD SWAP1 DUP2 PUSH2 0x295 SWAP2 SWAP1 PUSH2 0x2BFE JUMP JUMPDEST POP DUP3 PUSH1 0x1 PUSH1 0x8 ADD SWAP1 DUP2 PUSH2 0x2A8 SWAP2 SWAP1 PUSH2 0x2BFE JUMP JUMPDEST POP DUP2 PUSH1 0x1 PUSH1 0x9 ADD SWAP1 DUP2 PUSH2 0x2BB SWAP2 SWAP1 PUSH2 0x2BFE JUMP JUMPDEST POP DUP1 PUSH1 0x1 PUSH1 0xA ADD DUP2 SWAP1 SSTORE POP PUSH1 0x1 PUSH1 0x0 DUP13 PUSH1 0x40 MLOAD PUSH2 0x2D8 SWAP2 SWAP1 PUSH2 0x2D0C JUMP JUMPDEST SWAP1 DUP2 MSTORE PUSH1 0x20 ADD PUSH1 0x40 MLOAD DUP1 SWAP2 SUB SWAP1 KECCAK256 PUSH1 0x0 DUP3 ADD DUP2 PUSH1 0x0 ADD SWAP1 DUP2 PUSH2 0x2FA SWAP2 SWAP1 PUSH2 0x2D39 JUMP JUMPDEST POP PUSH1 0x1 DUP3 ADD SLOAD DUP2 PUSH1 0x1 ADD SSTORE PUSH1 0x2 DUP3 ADD DUP2 PUSH1 0x2 ADD SWAP1 DUP2 PUSH2 0x319 SWAP2 SWAP1 PUSH2 0x2D39 JUMP JUMPDEST POP PUSH1 0x3 DUP3 ADD DUP2 PUSH1 0x3 ADD SWAP1 DUP2 PUSH2 0x32E SWAP2 SWAP1 PUSH2 0x2D39 JUMP JUMPDEST POP PUSH1 0x4 DUP3 ADD DUP2 PUSH1 0x4 ADD SWAP1 DUP2 PUSH2 0x343 SWAP2 SWAP1 PUSH2 0x2D39 JUMP JUMPDEST POP PUSH1 0x5 DUP3 ADD SLOAD DUP2 PUSH1 0x5 ADD SSTORE PUSH1 0x6 DUP3 ADD DUP2 PUSH1 0x6 ADD SWAP1 DUP2 PUSH2 0x362 SWAP2 SWAP1 PUSH2 0x2D39 JUMP JUMPDEST POP PUSH1 0x7 DUP3 ADD DUP2 PUSH1 0x7 ADD SWAP1 DUP2 PUSH2 0x377 SWAP2 SWAP1 PUSH2 0x2D39 JUMP JUMPDEST POP PUSH1 0x8 DUP3 ADD DUP2 PUSH1 0x8 ADD SWAP1 DUP2 PUSH2 0x38C SWAP2 SWAP1 PUSH2 0x2D39 JUMP JUMPDEST POP PUSH1 0x9 DUP3 ADD DUP2 PUSH1 0x9 ADD SWAP1 DUP2 PUSH2 0x3A1 SWAP2 SWAP1 PUSH2 0x2D39 JUMP JUMPDEST POP PUSH1 0xA DUP3 ADD SLOAD DUP2 PUSH1 0xA ADD SSTORE PUSH1 0xB DUP3 ADD SLOAD DUP2 PUSH1 0xB ADD SSTORE PUSH1 0xC DUP3 ADD DUP2 PUSH1 0xC ADD SWAP1 DUP2 PUSH2 0x3CA SWAP2 SWAP1 PUSH2 0x2D39 JUMP JUMPDEST POP PUSH1 0xD DUP3 ADD DUP2 PUSH1 0xD ADD SWAP1 DUP2 PUSH2 0x3DF SWAP2 SWAP1 PUSH2 0x2D39 JUMP JUMPDEST POP PUSH1 0xE DUP3 ADD DUP2 PUSH1 0xE ADD SWAP1 DUP2 PUSH2 0x3F4 SWAP2 SWAP1 PUSH2 0x2D39 JUMP JUMPDEST POP PUSH1 0xF DUP3 ADD DUP2 PUSH1 0xF ADD SWAP1 DUP2 PUSH2 0x409 SWAP2 SWAP1 PUSH2 0x2D39 JUMP JUMPDEST POP PUSH1 0x10 DUP3 ADD DUP2 PUSH1 0x10 ADD SWAP1 DUP2 PUSH2 0x41E SWAP2 SWAP1 PUSH2 0x2D39 JUMP JUMPDEST POP SWAP1 POP POP POP POP POP POP POP POP POP POP POP POP POP JUMP JUMPDEST PUSH2 0x437 PUSH2 0x1B3C JUMP JUMPDEST PUSH1 0x0 DUP3 PUSH1 0x40 MLOAD PUSH2 0x447 SWAP2 SWAP1 PUSH2 0x2D0C JUMP JUMPDEST SWAP1 DUP2 MSTORE PUSH1 0x20 ADD PUSH1 0x40 MLOAD DUP1 SWAP2 SUB SWAP1 KECCAK256 PUSH1 0x40 MLOAD DUP1 PUSH2 0x220 ADD PUSH1 0x40 MSTORE SWAP1 DUP2 PUSH1 0x0 DUP3 ADD DUP1 SLOAD PUSH2 0x471 SWAP1 PUSH2 0x2A21 JUMP JUMPDEST DUP1 PUSH1 0x1F ADD PUSH1 0x20 DUP1 SWAP2 DIV MUL PUSH1 0x20 ADD PUSH1 0x40 MLOAD SWAP1 DUP2 ADD PUSH1 0x40 MSTORE DUP1 SWAP3 SWAP2 SWAP1 DUP2 DUP2 MSTORE PUSH1 0x20 ADD DUP3 DUP1 SLOAD PUSH2 0x49D SWAP1 PUSH2 0x2A21 JUMP JUMPDEST DUP1 ISZERO PUSH2 0x4EA JUMPI DUP1 PUSH1 0x1F LT PUSH2 0x4BF JUMPI PUSH2 0x100 DUP1 DUP4 SLOAD DIV MUL DUP4 MSTORE SWAP2 PUSH1 0x20 ADD SWAP2 PUSH2 0x4EA JUMP JUMPDEST DUP3 ADD SWAP2 SWAP1 PUSH1 0x0 MSTORE PUSH1 0x20 PUSH1 0x0 KECCAK256 SWAP1 JUMPDEST DUP2 SLOAD DUP2 MSTORE SWAP1 PUSH1 0x1 ADD SWAP1 PUSH1 0x20 ADD DUP1 DUP4 GT PUSH2 0x4CD JUMPI DUP3 SWAP1 SUB PUSH1 0x1F AND DUP3 ADD SWAP2 JUMPDEST POP POP POP POP POP DUP2 MSTORE PUSH1 0x20 ADD PUSH1 0x1 DUP3 ADD SLOAD DUP2 MSTORE PUSH1 0x20 ADD PUSH1 0x2 DUP3 ADD DUP1 SLOAD PUSH2 0x50D SWAP1 PUSH2 0x2A21 JUMP JUMPDEST DUP1 PUSH1 0x1F ADD PUSH1 0x20 DUP1 SWAP2 DIV MUL PUSH1 0x20 ADD PUSH1 0x40 MLOAD SWAP1 DUP2 ADD PUSH1 0x40 MSTORE DUP1 SWAP3 SWAP2 SWAP1 DUP2 DUP2 MSTORE PUSH1 0x20 ADD DUP3 DUP1 SLOAD PUSH2 0x539 SWAP1 PUSH2 0x2A21 JUMP JUMPDEST DUP1 ISZERO PUSH2 0x586 JUMPI DUP1 PUSH1 0x1F LT PUSH2 0x55B JUMPI PUSH2 0x100 DUP1 DUP4 SLOAD DIV MUL DUP4 MSTORE SWAP2 PUSH1 0x20 ADD SWAP2 PUSH2 0x586 JUMP JUMPDEST DUP3 ADD SWAP2 SWAP1 PUSH1 0x0 MSTORE PUSH1 0x20 PUSH1 0x0 KECCAK256 SWAP1 JUMPDEST DUP2 SLOAD DUP2 MSTORE SWAP1 PUSH1 0x1 ADD SWAP1 PUSH1 0x20 ADD DUP1 DUP4 GT PUSH2 0x569 JUMPI DUP3 SWAP1 SUB PUSH1 0x1F AND DUP3 ADD SWAP2 JUMPDEST POP POP POP POP POP DUP2 MSTORE PUSH1 0x20 ADD PUSH1 0x3 DUP3 ADD DUP1 SLOAD PUSH2 0x59F SWAP1 PUSH2 0x2A21 JUMP JUMPDEST DUP1 PUSH1 0x1F ADD PUSH1 0x20 DUP1 SWAP2 DIV MUL PUSH1 0x20 ADD PUSH1 0x40 MLOAD SWAP1 DUP2 ADD PUSH1 0x40 MSTORE DUP1 SWAP3 SWAP2 SWAP1 DUP2 DUP2 MSTORE PUSH1 0x20 ADD DUP3 DUP1 SLOAD PUSH2 0x5CB SWAP1 PUSH2 0x2A21 JUMP JUMPDEST DUP1 ISZERO PUSH2 0x618 JUMPI DUP1 PUSH1 0x1F LT PUSH2 0x5ED JUMPI PUSH2 0x100 DUP1 DUP4 SLOAD DIV MUL DUP4 MSTORE SWAP2 PUSH1 0x20 ADD SWAP2 PUSH2 0x618 JUMP JUMPDEST DUP3 ADD SWAP2 SWAP1 PUSH1 0x0 MSTORE PUSH1 0x20 PUSH1 0x0 KECCAK256 SWAP1 JUMPDEST DUP2 SLOAD DUP2 MSTORE SWAP1 PUSH1 0x1 ADD SWAP1 PUSH1 0x20 ADD DUP1 DUP4 GT PUSH2 0x5FB JUMPI DUP3 SWAP1 SUB PUSH1 0x1F AND DUP3 ADD SWAP2 JUMPDEST POP POP POP POP POP DUP2 MSTORE PUSH1 0x20 ADD PUSH1 0x4 DUP3 ADD DUP1 SLOAD PUSH2 0x631 SWAP1 PUSH2 0x2A21 JUMP JUMPDEST DUP1 PUSH1 0x1F ADD PUSH1 0x20 DUP1 SWAP2 DIV MUL PUSH1 0x20 ADD PUSH1 0x40 MLOAD SWAP1 DUP2 ADD PUSH1 0x40 MSTORE DUP1 SWAP3 SWAP2 SWAP1 DUP2 DUP2 MSTORE PUSH1 0x20 ADD DUP3 DUP1 SLOAD PUSH2 0x65D SWAP1 PUSH2 0x2A21 JUMP JUMPDEST DUP1 ISZERO PUSH2 0x6AA JUMPI DUP1 PUSH1 0x1F LT PUSH2 0x67F JUMPI PUSH2 0x100 DUP1 DUP4 SLOAD DIV MUL DUP4 MSTORE SWAP2 PUSH1 0x20 ADD SWAP2 PUSH2 0x6AA JUMP JUMPDEST DUP3 ADD SWAP2 SWAP1 PUSH1 0x0 MSTORE PUSH1 0x20 PUSH1 0x0 KECCAK256 SWAP1 JUMPDEST DUP2 SLOAD DUP2 MSTORE SWAP1 PUSH1 0x1 ADD SWAP1 PUSH1 0x20 ADD DUP1 DUP4 GT PUSH2 0x68D JUMPI DUP3 SWAP1 SUB PUSH1 0x1F AND DUP3 ADD SWAP2 JUMPDEST POP POP POP POP POP DUP2 MSTORE PUSH1 0x20 ADD PUSH1 0x5 DUP3 ADD SLOAD DUP2 MSTORE PUSH1 0x20 ADD PUSH1 0x6 DUP3 ADD DUP1 SLOAD PUSH2 0x6CD SWAP1 PUSH2 0x2A21 JUMP JUMPDEST DUP1 PUSH1 0x1F ADD PUSH1 0x20 DUP1 SWAP2 DIV MUL PUSH1 0x20 ADD PUSH1 0x40 MLOAD SWAP1 DUP2 ADD PUSH1 0x40 MSTORE DUP1 SWAP3 SWAP2 SWAP1 DUP2 DUP2 MSTORE PUSH1 0x20 ADD DUP3 DUP1 SLOAD PUSH2 0x6F9 SWAP1 PUSH2 0x2A21 JUMP JUMPDEST DUP1 ISZERO PUSH2 0x746 JUMPI DUP1 PUSH1 0x1F LT PUSH2 0x71B JUMPI PUSH2 0x100 DUP1 DUP4 SLOAD DIV MUL DUP4 MSTORE SWAP2 PUSH1 0x20 ADD SWAP2 PUSH2 0x746 JUMP JUMPDEST DUP3 ADD SWAP2 SWAP1 PUSH1 0x0 MSTORE PUSH1 0x20 PUSH1 0x0 KECCAK256 SWAP1 JUMPDEST DUP2 SLOAD DUP2 MSTORE SWAP1 PUSH1 0x1 ADD SWAP1 PUSH1 0x20 ADD DUP1 DUP4 GT PUSH2 0x729 JUMPI DUP3 SWAP1 SUB PUSH1 0x1F AND DUP3 ADD SWAP2 JUMPDEST POP POP POP POP POP DUP2 MSTORE PUSH1 0x20 ADD PUSH1 0x7 DUP3 ADD DUP1 SLOAD PUSH2 0x75F SWAP1 PUSH2 0x2A21 JUMP JUMPDEST DUP1 PUSH1 0x1F ADD PUSH1 0x20 DUP1 SWAP2 DIV MUL PUSH1 0x20 ADD PUSH1 0x40 MLOAD SWAP1 DUP2 ADD PUSH1 0x40 MSTORE DUP1 SWAP3 SWAP2 SWAP1 DUP2 DUP2 MSTORE PUSH1 0x20 ADD DUP3 DUP1 SLOAD PUSH2 0x78B SWAP1 PUSH2 0x2A21 JUMP JUMPDEST DUP1 ISZERO PUSH2 0x7D8 JUMPI DUP1 PUSH1 0x1F LT PUSH2 0x7AD JUMPI PUSH2 0x100 DUP1 DUP4 SLOAD DIV MUL DUP4 MSTORE SWAP2 PUSH1 0x20 ADD SWAP2 PUSH2 0x7D8 JUMP JUMPDEST DUP3 ADD SWAP2 SWAP1 PUSH1 0x0 MSTORE PUSH1 0x20 PUSH1 0x0 KECCAK256 SWAP1 JUMPDEST DUP2 SLOAD DUP2 MSTORE SWAP1 PUSH1 0x1 ADD SWAP1 PUSH1 0x20 ADD DUP1 DUP4 GT PUSH2 0x7BB JUMPI DUP3 SWAP1 SUB PUSH1 0x1F AND DUP3 ADD SWAP2 JUMPDEST POP POP POP POP POP DUP2 MSTORE PUSH1 0x20 ADD PUSH1 0x8 DUP3 ADD DUP1 SLOAD PUSH2 0x7F1 SWAP1 PUSH2 0x2A21 JUMP JUMPDEST DUP1 PUSH1 0x1F ADD PUSH1 0x20 DUP1 SWAP2 DIV MUL PUSH1 0x20 ADD PUSH1 0x40 MLOAD SWAP1 DUP2 ADD PUSH1 0x40 MSTORE DUP1 SWAP3 SWAP2 SWAP1 DUP2 DUP2 MSTORE PUSH1 0x20 ADD DUP3 DUP1 SLOAD PUSH2 0x81D SWAP1 PUSH2 0x2A21 JUMP JUMPDEST DUP1 ISZERO PUSH2 0x86A JUMPI DUP1 PUSH1 0x1F LT PUSH2 0x83F JUMPI PUSH2 0x100 DUP1 DUP4 SLOAD DIV MUL DUP4 MSTORE SWAP2 PUSH1 0x20 ADD SWAP2 PUSH2 0x86A JUMP JUMPDEST DUP3 ADD SWAP2 SWAP1 PUSH1 0x0 MSTORE PUSH1 0x20 PUSH1 0x0 KECCAK256 SWAP1 JUMPDEST DUP2 SLOAD DUP2 MSTORE SWAP1 PUSH1 0x1 ADD SWAP1 PUSH1 0x20 ADD DUP1 DUP4 GT PUSH2 0x84D JUMPI DUP3 SWAP1 SUB PUSH1 0x1F AND DUP3 ADD SWAP2 JUMPDEST POP POP POP POP POP DUP2 MSTORE PUSH1 0x20 ADD PUSH1 0x9 DUP3 ADD DUP1 SLOAD PUSH2 0x883 SWAP1 PUSH2 0x2A21 JUMP JUMPDEST DUP1 PUSH1 0x1F ADD PUSH1 0x20 DUP1 SWAP2 DIV MUL PUSH1 0x20 ADD PUSH1 0x40 MLOAD SWAP1 DUP2 ADD PUSH1 0x40 MSTORE DUP1 SWAP3 SWAP2 SWAP1 DUP2 DUP2 MSTORE PUSH1 0x20 ADD DUP3 DUP1 SLOAD PUSH2 0x8AF SWAP1 PUSH2 0x2A21 JUMP JUMPDEST DUP1 ISZERO PUSH2 0x8FC JUMPI DUP1 PUSH1 0x1F LT PUSH2 0x8D1 JUMPI PUSH2 0x100 DUP1 DUP4 SLOAD DIV MUL DUP4 MSTORE SWAP2 PUSH1 0x20 ADD SWAP2 PUSH2 0x8FC JUMP JUMPDEST DUP3 ADD SWAP2 SWAP1 PUSH1 0x0 MSTORE PUSH1 0x20 PUSH1 0x0 KECCAK256 SWAP1 JUMPDEST DUP2 SLOAD DUP2 MSTORE SWAP1 PUSH1 0x1 ADD SWAP1 PUSH1 0x20 ADD DUP1 DUP4 GT PUSH2 0x8DF JUMPI DUP3 SWAP1 SUB PUSH1 0x1F AND DUP3 ADD SWAP2 JUMPDEST POP POP POP POP POP DUP2 MSTORE PUSH1 0x20 ADD PUSH1 0xA DUP3 ADD SLOAD DUP2 MSTORE PUSH1 0x20 ADD PUSH1 0xB DUP3 ADD SLOAD DUP2 MSTORE PUSH1 0x20 ADD PUSH1 0xC DUP3 ADD DUP1 SLOAD PUSH2 0x929 SWAP1 PUSH2 0x2A21 JUMP JUMPDEST DUP1 PUSH1 0x1F ADD PUSH1 0x20 DUP1 SWAP2 DIV MUL PUSH1 0x20 ADD PUSH1 0x40 MLOAD SWAP1 DUP2 ADD PUSH1 0x40 MSTORE DUP1 SWAP3 SWAP2 SWAP1 DUP2 DUP2 MSTORE PUSH1 0x20 ADD DUP3 DUP1 SLOAD PUSH2 0x955 SWAP1 PUSH2 0x2A21 JUMP JUMPDEST DUP1 ISZERO PUSH2 0x9A2 JUMPI DUP1 PUSH1 0x1F LT PUSH2 0x977 JUMPI PUSH2 0x100 DUP1 DUP4 SLOAD DIV MUL DUP4 MSTORE SWAP2 PUSH1 0x20 ADD SWAP2 PUSH2 0x9A2 JUMP JUMPDEST DUP3 ADD SWAP2 SWAP1 PUSH1 0x0 MSTORE PUSH1 0x20 PUSH1 0x0 KECCAK256 SWAP1 JUMPDEST DUP2 SLOAD DUP2 MSTORE SWAP1 PUSH1 0x1 ADD SWAP1 PUSH1 0x20 ADD DUP1 DUP4 GT PUSH2 0x985 JUMPI DUP3 SWAP1 SUB PUSH1 0x1F AND DUP3 ADD SWAP2 JUMPDEST POP POP POP POP POP DUP2 MSTORE PUSH1 0x20 ADD PUSH1 0xD DUP3 ADD DUP1 SLOAD PUSH2 0x9BB SWAP1 PUSH2 0x2A21 JUMP JUMPDEST DUP1 PUSH1 0x1F ADD PUSH1 0x20 DUP1 SWAP2 DIV MUL PUSH1 0x20 ADD PUSH1 0x40 MLOAD SWAP1 DUP2 ADD PUSH1 0x40 MSTORE DUP1 SWAP3 SWAP2 SWAP1 DUP2 DUP2 MSTORE PUSH1 0x20 ADD DUP3 DUP1 SLOAD PUSH2 0x9E7 SWAP1 PUSH2 0x2A21 JUMP JUMPDEST DUP1 ISZERO PUSH2 0xA34 JUMPI DUP1 PUSH1 0x1F LT PUSH2 0xA09 JUMPI PUSH2 0x100 DUP1 DUP4 SLOAD DIV MUL DUP4 MSTORE SWAP2 PUSH1 0x20 ADD SWAP2 PUSH2 0xA34 JUMP JUMPDEST DUP3 ADD SWAP2 SWAP1 PUSH1 0x0 MSTORE PUSH1 0x20 PUSH1 0x0 KECCAK256 SWAP1 JUMPDEST DUP2 SLOAD DUP2 MSTORE SWAP1 PUSH1 0x1 ADD SWAP1 PUSH1 0x20 ADD DUP1 DUP4 GT PUSH2 0xA17 JUMPI DUP3 SWAP1 SUB PUSH1 0x1F AND DUP3 ADD SWAP2 JUMPDEST POP POP POP POP POP DUP2 MSTORE PUSH1 0x20 ADD PUSH1 0xE DUP3 ADD DUP1 SLOAD PUSH2 0xA4D SWAP1 PUSH2 0x2A21 JUMP JUMPDEST DUP1 PUSH1 0x1F ADD PUSH1 0x20 DUP1 SWAP2 DIV MUL PUSH1 0x20 ADD PUSH1 0x40 MLOAD SWAP1 DUP2 ADD PUSH1 0x40 MSTORE DUP1 SWAP3 SWAP2 SWAP1 DUP2 DUP2 MSTORE PUSH1 0x20 ADD DUP3 DUP1 SLOAD PUSH2 0xA79 SWAP1 PUSH2 0x2A21 JUMP JUMPDEST DUP1 ISZERO PUSH2 0xAC6 JUMPI DUP1 PUSH1 0x1F LT PUSH2 0xA9B JUMPI PUSH2 0x100 DUP1 DUP4 SLOAD DIV MUL DUP4 MSTORE SWAP2 PUSH1 0x20 ADD SWAP2 PUSH2 0xAC6 JUMP JUMPDEST DUP3 ADD SWAP2 SWAP1 PUSH1 0x0 MSTORE PUSH1 0x20 PUSH1 0x0 KECCAK256 SWAP1 JUMPDEST DUP2 SLOAD DUP2 MSTORE SWAP1 PUSH1 0x1 ADD SWAP1 PUSH1 0x20 ADD DUP1 DUP4 GT PUSH2 0xAA9 JUMPI DUP3 SWAP1 SUB PUSH1 0x1F AND DUP3 ADD SWAP2 JUMPDEST POP POP POP POP POP DUP2 MSTORE PUSH1 0x20 ADD PUSH1 0xF DUP3 ADD DUP1 SLOAD PUSH2 0xADF SWAP1 PUSH2 0x2A21 JUMP JUMPDEST DUP1 PUSH1 0x1F ADD PUSH1 0x20 DUP1 SWAP2 DIV MUL PUSH1 0x20 ADD PUSH1 0x40 MLOAD SWAP1 DUP2 ADD PUSH1 0x40 MSTORE DUP1 SWAP3 SWAP2 SWAP1 DUP2 DUP2 MSTORE PUSH1 0x20 ADD DUP3 DUP1 SLOAD PUSH2 0xB0B SWAP1 PUSH2 0x2A21 JUMP JUMPDEST DUP1 ISZERO PUSH2 0xB58 JUMPI DUP1 PUSH1 0x1F LT PUSH2 0xB2D JUMPI PUSH2 0x100 DUP1 DUP4 SLOAD DIV MUL DUP4 MSTORE SWAP2 PUSH1 0x20 ADD SWAP2 PUSH2 0xB58 JUMP JUMPDEST DUP3 ADD SWAP2 SWAP1 PUSH1 0x0 MSTORE PUSH1 0x20 PUSH1 0x0 KECCAK256 SWAP1 JUMPDEST DUP2 SLOAD DUP2 MSTORE SWAP1 PUSH1 0x1 ADD SWAP1 PUSH1 0x20 ADD DUP1 DUP4 GT PUSH2 0xB3B JUMPI DUP3 SWAP1 SUB PUSH1 0x1F AND DUP3 ADD SWAP2 JUMPDEST POP POP POP POP POP DUP2 MSTORE PUSH1 0x20 ADD PUSH1 0x10 DUP3 ADD DUP1 SLOAD PUSH2 0xB71 SWAP1 PUSH2 0x2A21 JUMP JUMPDEST DUP1 PUSH1 0x1F ADD PUSH1 0x20 DUP1 SWAP2 DIV MUL PUSH1 0x20 ADD PUSH1 0x40 MLOAD SWAP1 DUP2 ADD PUSH1 0x40 MSTORE DUP1 SWAP3 SWAP2 SWAP1 DUP2 DUP2 MSTORE PUSH1 0x20 ADD DUP3 DUP1 SLOAD PUSH2 0xB9D SWAP1 PUSH2 0x2A21 JUMP JUMPDEST DUP1 ISZERO PUSH2 0xBEA JUMPI DUP1 PUSH1 0x1F LT PUSH2 0xBBF JUMPI PUSH2 0x100 DUP1 DUP4 SLOAD DIV MUL DUP4 MSTORE SWAP2 PUSH1 0x20 ADD SWAP2 PUSH2 0xBEA JUMP JUMPDEST DUP3 ADD SWAP2 SWAP1 PUSH1 0x0 MSTORE PUSH1 0x20 PUSH1 0x0 KECCAK256 SWAP1 JUMPDEST DUP2 SLOAD DUP2 MSTORE SWAP1 PUSH1 0x1 ADD SWAP1 PUSH1 0x20 ADD DUP1 DUP4 GT PUSH2 0xBCD JUMPI DUP3 SWAP1 SUB PUSH1 0x1F AND DUP3 ADD SWAP2 JUMPDEST POP POP POP POP POP DUP2 MSTORE POP POP SWAP1 POP SWAP2 SWAP1 POP JUMP JUMPDEST PUSH2 0xC02 PUSH2 0x1BC0 JUMP JUMPDEST PUSH1 0x13 DUP3 PUSH1 0x40 MLOAD PUSH2 0xC12 SWAP2 SWAP1 PUSH2 0x2D0C JUMP JUMPDEST SWAP1 DUP2 MSTORE PUSH1 0x20 ADD PUSH1 0x40 MLOAD DUP1 SWAP2 SUB SWAP1 KECCAK256 PUSH1 0x40 MLOAD DUP1 PUSH2 0x140 ADD PUSH1 0x40 MSTORE SWAP1 DUP2 PUSH1 0x0 DUP3 ADD DUP1 SLOAD PUSH2 0xC3C SWAP1 PUSH2 0x2A21 JUMP JUMPDEST DUP1 PUSH1 0x1F ADD PUSH1 0x20 DUP1 SWAP2 DIV MUL PUSH1 0x20 ADD PUSH1 0x40 MLOAD SWAP1 DUP2 ADD PUSH1 0x40 MSTORE DUP1 SWAP3 SWAP2 SWAP1 DUP2 DUP2 MSTORE PUSH1 0x20 ADD DUP3 DUP1 SLOAD PUSH2 0xC68 SWAP1 PUSH2 0x2A21 JUMP JUMPDEST DUP1 ISZERO PUSH2 0xCB5 JUMPI DUP1 PUSH1 0x1F LT PUSH2 0xC8A JUMPI PUSH2 0x100 DUP1 DUP4 SLOAD DIV MUL DUP4 MSTORE SWAP2 PUSH1 0x20 ADD SWAP2 PUSH2 0xCB5 JUMP JUMPDEST DUP3 ADD SWAP2 SWAP1 PUSH1 0x0 MSTORE PUSH1 0x20 PUSH1 0x0 KECCAK256 SWAP1 JUMPDEST DUP2 SLOAD DUP2 MSTORE SWAP1 PUSH1 0x1 ADD SWAP1 PUSH1 0x20 ADD DUP1 DUP4 GT PUSH2 0xC98 JUMPI DUP3 SWAP1 SUB PUSH1 0x1F AND DUP3 ADD SWAP2 JUMPDEST POP POP POP POP POP DUP2 MSTORE PUSH1 0x20 ADD PUSH1 0x1 DUP3 ADD DUP1 SLOAD PUSH2 0xCCE SWAP1 PUSH2 0x2A21 JUMP JUMPDEST DUP1 PUSH1 0x1F ADD PUSH1 0x20 DUP1 SWAP2 DIV MUL PUSH1 0x20 ADD PUSH1 0x40 MLOAD SWAP1 DUP2 ADD PUSH1 0x40 MSTORE DUP1 SWAP3 SWAP2 SWAP1 DUP2 DUP2 MSTORE PUSH1 0x20 ADD DUP3 DUP1 SLOAD PUSH2 0xCFA SWAP1 PUSH2 0x2A21 JUMP JUMPDEST DUP1 ISZERO PUSH2 0xD47 JUMPI DUP1 PUSH1 0x1F LT PUSH2 0xD1C JUMPI PUSH2 0x100 DUP1 DUP4 SLOAD DIV MUL DUP4 MSTORE SWAP2 PUSH1 0x20 ADD SWAP2 PUSH2 0xD47 JUMP JUMPDEST DUP3 ADD SWAP2 SWAP1 PUSH1 0x0 MSTORE PUSH1 0x20 PUSH1 0x0 KECCAK256 SWAP1 JUMPDEST DUP2 SLOAD DUP2 MSTORE SWAP1 PUSH1 0x1 ADD SWAP1 PUSH1 0x20 ADD DUP1 DUP4 GT PUSH2 0xD2A JUMPI DUP3 SWAP1 SUB PUSH1 0x1F AND DUP3 ADD SWAP2 JUMPDEST POP POP POP POP POP DUP2 MSTORE PUSH1 0x20 ADD PUSH1 0x2 DUP3 ADD SLOAD DUP2 MSTORE PUSH1 0x20 ADD PUSH1 0x3 DUP3 ADD DUP1 SLOAD PUSH2 0xD6A SWAP1 PUSH2 0x2A21 JUMP JUMPDEST DUP1 PUSH1 0x1F ADD PUSH1 0x20 DUP1 SWAP2 DIV MUL PUSH1 0x20 ADD PUSH1 0x40 MLOAD SWAP1 DUP2 ADD PUSH1 0x40 MSTORE DUP1 SWAP3 SWAP2 SWAP1 DUP2 DUP2 MSTORE PUSH1 0x20 ADD DUP3 DUP1 SLOAD PUSH2 0xD96 SWAP1 PUSH2 0x2A21 JUMP JUMPDEST DUP1 ISZERO PUSH2 0xDE3 JUMPI DUP1 PUSH1 0x1F LT PUSH2 0xDB8 JUMPI PUSH2 0x100 DUP1 DUP4 SLOAD DIV MUL DUP4 MSTORE SWAP2 PUSH1 0x20 ADD SWAP2 PUSH2 0xDE3 JUMP JUMPDEST DUP3 ADD SWAP2 SWAP1 PUSH1 0x0 MSTORE PUSH1 0x20 PUSH1 0x0 KECCAK256 SWAP1 JUMPDEST DUP2 SLOAD DUP2 MSTORE SWAP1 PUSH1 0x1 ADD SWAP1 PUSH1 0x20 ADD DUP1 DUP4 GT PUSH2 0xDC6 JUMPI DUP3 SWAP1 SUB PUSH1 0x1F AND DUP3 ADD SWAP2 JUMPDEST POP POP POP POP POP DUP2 MSTORE PUSH1 0x20 ADD PUSH1 0x4 DUP3 ADD DUP1 SLOAD PUSH2 0xDFC SWAP1 PUSH2 0x2A21 JUMP JUMPDEST DUP1 PUSH1 0x1F ADD PUSH1 0x20 DUP1 SWAP2 DIV MUL PUSH1 0x20 ADD PUSH1 0x40 MLOAD SWAP1 DUP2 ADD PUSH1 0x40 MSTORE DUP1 SWAP3 SWAP2 SWAP1 DUP2 DUP2 MSTORE PUSH1 0x20 ADD DUP3 DUP1 SLOAD PUSH2 0xE28 SWAP1 PUSH2 0x2A21 JUMP JUMPDEST DUP1 ISZERO PUSH2 0xE75 JUMPI DUP1 PUSH1 0x1F LT PUSH2 0xE4A JUMPI PUSH2 0x100 DUP1 DUP4 SLOAD DIV MUL DUP4 MSTORE SWAP2 PUSH1 0x20 ADD SWAP2 PUSH2 0xE75 JUMP JUMPDEST DUP3 ADD SWAP2 SWAP1 PUSH1 0x0 MSTORE PUSH1 0x20 PUSH1 0x0 KECCAK256 SWAP1 JUMPDEST DUP2 SLOAD DUP2 MSTORE SWAP1 PUSH1 0x1 ADD SWAP1 PUSH1 0x20 ADD DUP1 DUP4 GT PUSH2 0xE58 JUMPI DUP3 SWAP1 SUB PUSH1 0x1F AND DUP3 ADD SWAP2 JUMPDEST POP POP POP POP POP DUP2 MSTORE PUSH1 0x20 ADD PUSH1 0x5 DUP3 ADD SLOAD DUP2 MSTORE PUSH1 0x20 ADD PUSH1 0x6 DUP3 ADD DUP1 SLOAD PUSH2 0xE98 SWAP1 PUSH2 0x2A21 JUMP JUMPDEST DUP1 PUSH1 0x1F ADD PUSH1 0x20 DUP1 SWAP2 DIV MUL PUSH1 0x20 ADD PUSH1 0x40 MLOAD SWAP1 DUP2 ADD PUSH1 0x40 MSTORE DUP1 SWAP3 SWAP2 SWAP1 DUP2 DUP2 MSTORE PUSH1 0x20 ADD DUP3 DUP1 SLOAD PUSH2 0xEC4 SWAP1 PUSH2 0x2A21 JUMP JUMPDEST DUP1 ISZERO PUSH2 0xF11 JUMPI DUP1 PUSH1 0x1F LT PUSH2 0xEE6 JUMPI PUSH2 0x100 DUP1 DUP4 SLOAD DIV MUL DUP4 MSTORE SWAP2 PUSH1 0x20 ADD SWAP2 PUSH2 0xF11 JUMP JUMPDEST DUP3 ADD SWAP2 SWAP1 PUSH1 0x0 MSTORE PUSH1 0x20 PUSH1 0x0 KECCAK256 SWAP1 JUMPDEST DUP2 SLOAD DUP2 MSTORE SWAP1 PUSH1 0x1 ADD SWAP1 PUSH1 0x20 ADD DUP1 DUP4 GT PUSH2 0xEF4 JUMPI DUP3 SWAP1 SUB PUSH1 0x1F AND DUP3 ADD SWAP2 JUMPDEST POP POP POP POP POP DUP2 MSTORE PUSH1 0x20 ADD PUSH1 0x7 DUP3 ADD DUP1 SLOAD PUSH2 0xF2A SWAP1 PUSH2 0x2A21 JUMP JUMPDEST DUP1 PUSH1 0x1F ADD PUSH1 0x20 DUP1 SWAP2 DIV MUL PUSH1 0x20 ADD PUSH1 0x40 MLOAD SWAP1 DUP2 ADD PUSH1 0x40 MSTORE DUP1 SWAP3 SWAP2 SWAP1 DUP2 DUP2 MSTORE PUSH1 0x20 ADD DUP3 DUP1 SLOAD PUSH2 0xF56 SWAP1 PUSH2 0x2A21 JUMP JUMPDEST DUP1 ISZERO PUSH2 0xFA3 JUMPI DUP1 PUSH1 0x1F LT PUSH2 0xF78 JUMPI PUSH2 0x100 DUP1 DUP4 SLOAD DIV MUL DUP4 MSTORE SWAP2 PUSH1 0x20 ADD SWAP2 PUSH2 0xFA3 JUMP JUMPDEST DUP3 ADD SWAP2 SWAP1 PUSH1 0x0 MSTORE PUSH1 0x20 PUSH1 0x0 KECCAK256 SWAP1 JUMPDEST DUP2 SLOAD DUP2 MSTORE SWAP1 PUSH1 0x1 ADD SWAP1 PUSH1 0x20 ADD DUP1 DUP4 GT PUSH2 0xF86 JUMPI DUP3 SWAP1 SUB PUSH1 0x1F AND DUP3 ADD SWAP2 JUMPDEST POP POP POP POP POP DUP2 MSTORE PUSH1 0x20 ADD PUSH1 0x8 DUP3 ADD DUP1 SLOAD PUSH2 0xFBC SWAP1 PUSH2 0x2A21 JUMP JUMPDEST DUP1 PUSH1 0x1F ADD PUSH1 0x20 DUP1 SWAP2 DIV MUL PUSH1 0x20 ADD PUSH1 0x40 MLOAD SWAP1 DUP2 ADD PUSH1 0x40 MSTORE DUP1 SWAP3 SWAP2 SWAP1 DUP2 DUP2 MSTORE PUSH1 0x20 ADD DUP3 DUP1 SLOAD PUSH2 0xFE8 SWAP1 PUSH2 0x2A21 JUMP JUMPDEST DUP1 ISZERO PUSH2 0x1035 JUMPI DUP1 PUSH1 0x1F LT PUSH2 0x100A JUMPI PUSH2 0x100 DUP1 DUP4 SLOAD DIV MUL DUP4 MSTORE SWAP2 PUSH1 0x20 ADD SWAP2 PUSH2 0x1035 JUMP JUMPDEST DUP3 ADD SWAP2 SWAP1 PUSH1 0x0 MSTORE PUSH1 0x20 PUSH1 0x0 KECCAK256 SWAP1 JUMPDEST DUP2 SLOAD DUP2 MSTORE SWAP1 PUSH1 0x1 ADD SWAP1 PUSH1 0x20 ADD DUP1 DUP4 GT PUSH2 0x1018 JUMPI DUP3 SWAP1 SUB PUSH1 0x1F AND DUP3 ADD SWAP2 JUMPDEST POP POP POP POP POP DUP2 MSTORE PUSH1 0x20 ADD PUSH1 0x9 DUP3 ADD DUP1 SLOAD PUSH2 0x104E SWAP1 PUSH2 0x2A21 JUMP JUMPDEST DUP1 PUSH1 0x1F ADD PUSH1 0x20 DUP1 SWAP2 DIV MUL PUSH1 0x20 ADD PUSH1 0x40 MLOAD SWAP1 DUP2 ADD PUSH1 0x40 MSTORE DUP1 SWAP3 SWAP2 SWAP1 DUP2 DUP2 MSTORE PUSH1 0x20 ADD DUP3 DUP1 SLOAD PUSH2 0x107A SWAP1 PUSH2 0x2A21 JUMP JUMPDEST DUP1 ISZERO PUSH2 0x10C7 JUMPI DUP1 PUSH1 0x1F LT PUSH2 0x109C JUMPI PUSH2 0x100 DUP1 DUP4 SLOAD DIV MUL DUP4 MSTORE SWAP2 PUSH1 0x20 ADD SWAP2 PUSH2 0x10C7 JUMP JUMPDEST DUP3 ADD SWAP2 SWAP1 PUSH1 0x0 MSTORE PUSH1 0x20 PUSH1 0x0 KECCAK256 SWAP1 JUMPDEST DUP2 SLOAD DUP2 MSTORE SWAP1 PUSH1 0x1 ADD SWAP1 PUSH1 0x20 ADD DUP1 DUP4 GT PUSH2 0x10AA JUMPI DUP3 SWAP1 SUB PUSH1 0x1F AND DUP3 ADD SWAP2 JUMPDEST POP POP POP POP POP DUP2 MSTORE POP POP SWAP1 POP SWAP2 SWAP1 POP JUMP JUMPDEST PUSH1 0x60 DUP7 PUSH1 0x1 PUSH1 0xB ADD DUP2 SWAP1 SSTORE POP DUP6 PUSH1 0x1 PUSH1 0xC ADD SWAP1 DUP2 PUSH2 0x10F5 SWAP2 SWAP1 PUSH2 0x2BFE JUMP JUMPDEST POP DUP5 PUSH1 0x1 PUSH1 0xD ADD SWAP1 DUP2 PUSH2 0x1108 SWAP2 SWAP1 PUSH2 0x2BFE JUMP JUMPDEST POP DUP4 PUSH1 0x1 PUSH1 0xE ADD SWAP1 DUP2 PUSH2 0x111B SWAP2 SWAP1 PUSH2 0x2BFE JUMP JUMPDEST POP DUP3 PUSH1 0x1 PUSH1 0xF ADD SWAP1 DUP2 PUSH2 0x112E SWAP2 SWAP1 PUSH2 0x2BFE JUMP JUMPDEST POP DUP2 PUSH1 0x1 PUSH1 0x10 ADD SWAP1 DUP2 PUSH2 0x1141 SWAP2 SWAP1 PUSH2 0x2BFE JUMP JUMPDEST POP PUSH1 0x1 PUSH1 0x12 PUSH1 0x0 DUP3 DUP3 SLOAD PUSH2 0x1155 SWAP2 SWAP1 PUSH2 0x2E50 JUMP JUMPDEST SWAP3 POP POP DUP2 SWAP1 SSTORE POP PUSH1 0x1 PUSH1 0x0 DUP10 PUSH1 0x40 MLOAD PUSH2 0x116E SWAP2 SWAP1 PUSH2 0x2D0C JUMP JUMPDEST SWAP1 DUP2 MSTORE PUSH1 0x20 ADD PUSH1 0x40 MLOAD DUP1 SWAP2 SUB SWAP1 KECCAK256 PUSH1 0x0 DUP3 ADD DUP2 PUSH1 0x0 ADD SWAP1 DUP2 PUSH2 0x1190 SWAP2 SWAP1 PUSH2 0x2D39 JUMP JUMPDEST POP PUSH1 0x1 DUP3 ADD SLOAD DUP2 PUSH1 0x1 ADD SSTORE PUSH1 0x2 DUP3 ADD DUP2 PUSH1 0x2 ADD SWAP1 DUP2 PUSH2 0x11AF SWAP2 SWAP1 PUSH2 0x2D39 JUMP JUMPDEST POP PUSH1 0x3 DUP3 ADD DUP2 PUSH1 0x3 ADD SWAP1 DUP2 PUSH2 0x11C4 SWAP2 SWAP1 PUSH2 0x2D39 JUMP JUMPDEST POP PUSH1 0x4 DUP3 ADD DUP2 PUSH1 0x4 ADD SWAP1 DUP2 PUSH2 0x11D9 SWAP2 SWAP1 PUSH2 0x2D39 JUMP JUMPDEST POP PUSH1 0x5 DUP3 ADD SLOAD DUP2 PUSH1 0x5 ADD SSTORE PUSH1 0x6 DUP3 ADD DUP2 PUSH1 0x6 ADD SWAP1 DUP2 PUSH2 0x11F8 SWAP2 SWAP1 PUSH2 0x2D39 JUMP JUMPDEST POP PUSH1 0x7 DUP3 ADD DUP2 PUSH1 0x7 ADD SWAP1 DUP2 PUSH2 0x120D SWAP2 SWAP1 PUSH2 0x2D39 JUMP JUMPDEST POP PUSH1 0x8 DUP3 ADD DUP2 PUSH1 0x8 ADD SWAP1 DUP2 PUSH2 0x1222 SWAP2 SWAP1 PUSH2 0x2D39 JUMP JUMPDEST POP PUSH1 0x9 DUP3 ADD DUP2 PUSH1 0x9 ADD SWAP1 DUP2 PUSH2 0x1237 SWAP2 SWAP1 PUSH2 0x2D39 JUMP JUMPDEST POP PUSH1 0xA DUP3 ADD SLOAD DUP2 PUSH1 0xA ADD SSTORE PUSH1 0xB DUP3 ADD SLOAD DUP2 PUSH1 0xB ADD SSTORE PUSH1 0xC DUP3 ADD DUP2 PUSH1 0xC ADD SWAP1 DUP2 PUSH2 0x1260 SWAP2 SWAP1 PUSH2 0x2D39 JUMP JUMPDEST POP PUSH1 0xD DUP3 ADD DUP2 PUSH1 0xD ADD SWAP1 DUP2 PUSH2 0x1275 SWAP2 SWAP1 PUSH2 0x2D39 JUMP JUMPDEST POP PUSH1 0xE DUP3 ADD DUP2 PUSH1 0xE ADD SWAP1 DUP2 PUSH2 0x128A SWAP2 SWAP1 PUSH2 0x2D39 JUMP JUMPDEST POP PUSH1 0xF DUP3 ADD DUP2 PUSH1 0xF ADD SWAP1 DUP2 PUSH2 0x129F SWAP2 SWAP1 PUSH2 0x2D39 JUMP JUMPDEST POP PUSH1 0x10 DUP3 ADD DUP2 PUSH1 0x10 ADD SWAP1 DUP2 PUSH2 0x12B4 SWAP2 SWAP1 PUSH2 0x2D39 JUMP JUMPDEST POP SWAP1 POP POP PUSH32 0x5C766D1C5EA6F40AFC38CD8E27308C236C492FBCFA32B458D2755CF76EC1E21 PUSH1 0x40 MLOAD PUSH2 0x12E5 SWAP1 PUSH2 0x2ED0 JUMP JUMPDEST PUSH1 0x40 MLOAD DUP1 SWAP2 SUB SWAP1 LOG1 PUSH1 0x40 MLOAD DUP1 PUSH1 0x40 ADD PUSH1 0x40 MSTORE DUP1 PUSH1 0x11 DUP2 MSTORE PUSH1 0x20 ADD PUSH32 0x41646465642053756363657366756C6C79000000000000000000000000000000 DUP2 MSTORE POP SWAP1 POP SWAP8 SWAP7 POP POP POP POP POP POP POP JUMP JUMPDEST PUSH1 0x0 PUSH1 0x29 SLOAD SWAP1 POP SWAP1 JUMP JUMPDEST PUSH1 0x0 PUSH1 0x1E SLOAD SWAP1 POP SWAP1 JUMP JUMPDEST PUSH2 0x134C PUSH2 0x1C13 JUMP JUMPDEST PUSH1 0x1F DUP3 PUSH1 0x40 MLOAD PUSH2 0x135C SWAP2 SWAP1 PUSH2 0x2D0C JUMP JUMPDEST SWAP1 DUP2 MSTORE PUSH1 0x20 ADD PUSH1 0x40 MLOAD DUP1 SWAP2 SUB SWAP1 KECCAK256 PUSH1 0x40 MLOAD DUP1 PUSH2 0x120 ADD PUSH1 0x40 MSTORE SWAP1 DUP2 PUSH1 0x0 DUP3 ADD DUP1 SLOAD PUSH2 0x1386 SWAP1 PUSH2 0x2A21 JUMP JUMPDEST DUP1 PUSH1 0x1F ADD PUSH1 0x20 DUP1 SWAP2 DIV MUL PUSH1 0x20 ADD PUSH1 0x40 MLOAD SWAP1 DUP2 ADD PUSH1 0x40 MSTORE DUP1 SWAP3 SWAP2 SWAP1 DUP2 DUP2 MSTORE PUSH1 0x20 ADD DUP3 DUP1 SLOAD PUSH2 0x13B2 SWAP1 PUSH2 0x2A21 JUMP JUMPDEST DUP1 ISZERO PUSH2 0x13FF JUMPI DUP1 PUSH1 0x1F LT PUSH2 0x13D4 JUMPI PUSH2 0x100 DUP1 DUP4 SLOAD DIV MUL DUP4 MSTORE SWAP2 PUSH1 0x20 ADD SWAP2 PUSH2 0x13FF JUMP JUMPDEST DUP3 ADD SWAP2 SWAP1 PUSH1 0x0 MSTORE PUSH1 0x20 PUSH1 0x0 KECCAK256 SWAP1 JUMPDEST DUP2 SLOAD DUP2 MSTORE SWAP1 PUSH1 0x1 ADD SWAP1 PUSH1 0x20 ADD DUP1 DUP4 GT PUSH2 0x13E2 JUMPI DUP3 SWAP1 SUB PUSH1 0x1F AND DUP3 ADD SWAP2 JUMPDEST POP POP POP POP POP DUP2 MSTORE PUSH1 0x20 ADD PUSH1 0x1 DUP3 ADD DUP1 SLOAD PUSH2 0x1418 SWAP1 PUSH2 0x2A21 JUMP JUMPDEST DUP1 PUSH1 0x1F ADD PUSH1 0x20 DUP1 SWAP2 DIV MUL PUSH1 0x20 ADD PUSH1 0x40 MLOAD SWAP1 DUP2 ADD PUSH1 0x40 MSTORE DUP1 SWAP3 SWAP2 SWAP1 DUP2 DUP2 MSTORE PUSH1 0x20 ADD DUP3 DUP1 SLOAD PUSH2 0x1444 SWAP1 PUSH2 0x2A21 JUMP JUMPDEST DUP1 ISZERO PUSH2 0x1491 JUMPI DUP1 PUSH1 0x1F LT PUSH2 0x1466 JUMPI PUSH2 0x100 DUP1 DUP4 SLOAD DIV MUL DUP4 MSTORE SWAP2 PUSH1 0x20 ADD SWAP2 PUSH2 0x1491 JUMP JUMPDEST DUP3 ADD SWAP2 SWAP1 PUSH1 0x0 MSTORE PUSH1 0x20 PUSH1 0x0 KECCAK256 SWAP1 JUMPDEST DUP2 SLOAD DUP2 MSTORE SWAP1 PUSH1 0x1 ADD SWAP1 PUSH1 0x20 ADD DUP1 DUP4 GT PUSH2 0x1474 JUMPI DUP3 SWAP1 SUB PUSH1 0x1F AND DUP3 ADD SWAP2 JUMPDEST POP POP POP POP POP DUP2 MSTORE PUSH1 0x20 ADD PUSH1 0x2 DUP3 ADD SLOAD DUP2 MSTORE PUSH1 0x20 ADD PUSH1 0x3 DUP3 ADD DUP1 SLOAD PUSH2 0x14B4 SWAP1 PUSH2 0x2A21 JUMP JUMPDEST DUP1 PUSH1 0x1F ADD PUSH1 0x20 DUP1 SWAP2 DIV MUL PUSH1 0x20 ADD PUSH1 0x40 MLOAD SWAP1 DUP2 ADD PUSH1 0x40 MSTORE DUP1 SWAP3 SWAP2 SWAP1 DUP2 DUP2 MSTORE PUSH1 0x20 ADD DUP3 DUP1 SLOAD PUSH2 0x14E0 SWAP1 PUSH2 0x2A21 JUMP JUMPDEST DUP1 ISZERO PUSH2 0x152D JUMPI DUP1 PUSH1 0x1F LT PUSH2 0x1502 JUMPI PUSH2 0x100 DUP1 DUP4 SLOAD DIV MUL DUP4 MSTORE SWAP2 PUSH1 0x20 ADD SWAP2 PUSH2 0x152D JUMP JUMPDEST DUP3 ADD SWAP2 SWAP1 PUSH1 0x0 MSTORE PUSH1 0x20 PUSH1 0x0 KECCAK256 SWAP1 JUMPDEST DUP2 SLOAD DUP2 MSTORE SWAP1 PUSH1 0x1 ADD SWAP1 PUSH1 0x20 ADD DUP1 DUP4 GT PUSH2 0x1510 JUMPI DUP3 SWAP1 SUB PUSH1 0x1F AND DUP3 ADD SWAP2 JUMPDEST POP POP POP POP POP DUP2 MSTORE PUSH1 0x20 ADD PUSH1 0x4 DUP3 ADD DUP1 SLOAD PUSH2 0x1546 SWAP1 PUSH2 0x2A21 JUMP JUMPDEST DUP1 PUSH1 0x1F ADD PUSH1 0x20 DUP1 SWAP2 DIV MUL PUSH1 0x20 ADD PUSH1 0x40 MLOAD SWAP1 DUP2 ADD PUSH1 0x40 MSTORE DUP1 SWAP3 SWAP2 SWAP1 DUP2 DUP2 MSTORE PUSH1 0x20 ADD DUP3 DUP1 SLOAD PUSH2 0x1572 SWAP1 PUSH2 0x2A21 JUMP JUMPDEST DUP1 ISZERO PUSH2 0x15BF JUMPI DUP1 PUSH1 0x1F LT PUSH2 0x1594 JUMPI PUSH2 0x100 DUP1 DUP4 SLOAD DIV MUL DUP4 MSTORE SWAP2 PUSH1 0x20 ADD SWAP2 PUSH2 0x15BF JUMP JUMPDEST DUP3 ADD SWAP2 SWAP1 PUSH1 0x0 MSTORE PUSH1 0x20 PUSH1 0x0 KECCAK256 SWAP1 JUMPDEST DUP2 SLOAD DUP2 MSTORE SWAP1 PUSH1 0x1 ADD SWAP1 PUSH1 0x20 ADD DUP1 DUP4 GT PUSH2 0x15A2 JUMPI DUP3 SWAP1 SUB PUSH1 0x1F AND DUP3 ADD SWAP2 JUMPDEST POP POP POP POP POP DUP2 MSTORE PUSH1 0x20 ADD PUSH1 0x5 DUP3 ADD SLOAD DUP2 MSTORE PUSH1 0x20 ADD PUSH1 0x6 DUP3 ADD DUP1 SLOAD PUSH2 0x15E2 SWAP1 PUSH2 0x2A21 JUMP JUMPDEST DUP1 PUSH1 0x1F ADD PUSH1 0x20 DUP1 SWAP2 DIV MUL PUSH1 0x20 ADD PUSH1 0x40 MLOAD SWAP1 DUP2 ADD PUSH1 0x40 MSTORE DUP1 SWAP3 SWAP2 SWAP1 DUP2 DUP2 MSTORE PUSH1 0x20 ADD DUP3 DUP1 SLOAD PUSH2 0x160E SWAP1 PUSH2 0x2A21 JUMP JUMPDEST DUP1 ISZERO PUSH2 0x165B JUMPI DUP1 PUSH1 0x1F LT PUSH2 0x1630 JUMPI PUSH2 0x100 DUP1 DUP4 SLOAD DIV MUL DUP4 MSTORE SWAP2 PUSH1 0x20 ADD SWAP2 PUSH2 0x165B JUMP JUMPDEST DUP3 ADD SWAP2 SWAP1 PUSH1 0x0 MSTORE PUSH1 0x20 PUSH1 0x0 KECCAK256 SWAP1 JUMPDEST DUP2 SLOAD DUP2 MSTORE SWAP1 PUSH1 0x1 ADD SWAP1 PUSH1 0x20 ADD DUP1 DUP4 GT PUSH2 0x163E JUMPI DUP3 SWAP1 SUB PUSH1 0x1F AND DUP3 ADD SWAP2 JUMPDEST POP POP POP POP POP DUP2 MSTORE PUSH1 0x20 ADD PUSH1 0x7 DUP3 ADD DUP1 SLOAD PUSH2 0x1674 SWAP1 PUSH2 0x2A21 JUMP JUMPDEST DUP1 PUSH1 0x1F ADD PUSH1 0x20 DUP1 SWAP2 DIV MUL PUSH1 0x20 ADD PUSH1 0x40 MLOAD SWAP1 DUP2 ADD PUSH1 0x40 MSTORE DUP1 SWAP3 SWAP2 SWAP1 DUP2 DUP2 MSTORE PUSH1 0x20 ADD DUP3 DUP1 SLOAD PUSH2 0x16A0 SWAP1 PUSH2 0x2A21 JUMP JUMPDEST DUP1 ISZERO PUSH2 0x16ED JUMPI DUP1 PUSH1 0x1F LT PUSH2 0x16C2 JUMPI PUSH2 0x100 DUP1 DUP4 SLOAD DIV MUL DUP4 MSTORE SWAP2 PUSH1 0x20 ADD SWAP2 PUSH2 0x16ED JUMP JUMPDEST DUP3 ADD SWAP2 SWAP1 PUSH1 0x0 MSTORE PUSH1 0x20 PUSH1 0x0 KECCAK256 SWAP1 JUMPDEST DUP2 SLOAD DUP2 MSTORE SWAP1 PUSH1 0x1 ADD SWAP1 PUSH1 0x20 ADD DUP1 DUP4 GT PUSH2 0x16D0 JUMPI DUP3 SWAP1 SUB PUSH1 0x1F AND DUP3 ADD SWAP2 JUMPDEST POP POP POP POP POP DUP2 MSTORE PUSH1 0x20 ADD PUSH1 0x8 DUP3 ADD DUP1 SLOAD PUSH2 0x1706 SWAP1 PUSH2 0x2A21 JUMP JUMPDEST DUP1 PUSH1 0x1F ADD PUSH1 0x20 DUP1 SWAP2 DIV MUL PUSH1 0x20 ADD PUSH1 0x40 MLOAD SWAP1 DUP2 ADD PUSH1 0x40 MSTORE DUP1 SWAP3 SWAP2 SWAP1 DUP2 DUP2 MSTORE PUSH1 0x20 ADD DUP3 DUP1 SLOAD PUSH2 0x1732 SWAP1 PUSH2 0x2A21 JUMP JUMPDEST DUP1 ISZERO PUSH2 0x177F JUMPI DUP1 PUSH1 0x1F LT PUSH2 0x1754 JUMPI PUSH2 0x100 DUP1 DUP4 SLOAD DIV MUL DUP4 MSTORE SWAP2 PUSH1 0x20 ADD SWAP2 PUSH2 0x177F JUMP JUMPDEST DUP3 ADD SWAP2 SWAP1 PUSH1 0x0 MSTORE PUSH1 0x20 PUSH1 0x0 KECCAK256 SWAP1 JUMPDEST DUP2 SLOAD DUP2 MSTORE SWAP1 PUSH1 0x1 ADD SWAP1 PUSH1 0x20 ADD DUP1 DUP4 GT PUSH2 0x1762 JUMPI DUP3 SWAP1 SUB PUSH1 0x1F AND DUP3 ADD SWAP2 JUMPDEST POP POP POP POP POP DUP2 MSTORE POP POP SWAP1 POP SWAP2 SWAP1 POP JUMP JUMPDEST DUP9 PUSH1 0x20 PUSH1 0x0 ADD SWAP1 DUP2 PUSH2 0x17A1 SWAP2 SWAP1 PUSH2 0x2BFE JUMP JUMPDEST POP DUP7 PUSH1 0x20 PUSH1 0x2 ADD DUP2 SWAP1 SSTORE POP DUP8 PUSH1 0x20 PUSH1 0x1 ADD SWAP1 DUP2 PUSH2 0x17BE SWAP2 SWAP1 PUSH2 0x2BFE JUMP JUMPDEST POP DUP6 PUSH1 0x20 PUSH1 0x3 ADD SWAP1 DUP2 PUSH2 0x17D1 SWAP2 SWAP1 PUSH2 0x2BFE JUMP JUMPDEST POP DUP5 PUSH1 0x20 PUSH1 0x4 ADD SWAP1 DUP2 PUSH2 0x17E4 SWAP2 SWAP1 PUSH2 0x2BFE JUMP JUMPDEST POP DUP4 PUSH1 0x20 PUSH1 0x5 ADD DUP2 SWAP1 SSTORE POP DUP3 PUSH1 0x20 PUSH1 0x6 ADD SWAP1 DUP2 PUSH2 0x1801 SWAP2 SWAP1 PUSH2 0x2BFE JUMP JUMPDEST POP DUP2 PUSH1 0x20 PUSH1 0x7 ADD SWAP1 DUP2 PUSH2 0x1814 SWAP2 SWAP1 PUSH2 0x2BFE JUMP JUMPDEST POP DUP1 PUSH1 0x20 PUSH1 0x8 ADD SWAP1 DUP2 PUSH2 0x1827 SWAP2 SWAP1 PUSH2 0x2BFE JUMP JUMPDEST POP PUSH1 0x20 PUSH1 0x1F DUP11 PUSH1 0x40 MLOAD PUSH2 0x183A SWAP2 SWAP1 PUSH2 0x2D0C JUMP JUMPDEST SWAP1 DUP2 MSTORE PUSH1 0x20 ADD PUSH1 0x40 MLOAD DUP1 SWAP2 SUB SWAP1 KECCAK256 PUSH1 0x0 DUP3 ADD DUP2 PUSH1 0x0 ADD SWAP1 DUP2 PUSH2 0x185C SWAP2 SWAP1 PUSH2 0x2D39 JUMP JUMPDEST POP PUSH1 0x1 DUP3 ADD DUP2 PUSH1 0x1 ADD SWAP1 DUP2 PUSH2 0x1871 SWAP2 SWAP1 PUSH2 0x2D39 JUMP JUMPDEST POP PUSH1 0x2 DUP3 ADD SLOAD DUP2 PUSH1 0x2 ADD SSTORE PUSH1 0x3 DUP3 ADD DUP2 PUSH1 0x3 ADD SWAP1 DUP2 PUSH2 0x1890 SWAP2 SWAP1 PUSH2 0x2D39 JUMP JUMPDEST POP PUSH1 0x4 DUP3 ADD DUP2 PUSH1 0x4 ADD SWAP1 DUP2 PUSH2 0x18A5 SWAP2 SWAP1 PUSH2 0x2D39 JUMP JUMPDEST POP PUSH1 0x5 DUP3 ADD SLOAD DUP2 PUSH1 0x5 ADD SSTORE PUSH1 0x6 DUP3 ADD DUP2 PUSH1 0x6 ADD SWAP1 DUP2 PUSH2 0x18C4 SWAP2 SWAP1 PUSH2 0x2D39 JUMP JUMPDEST POP PUSH1 0x7 DUP3 ADD DUP2 PUSH1 0x7 ADD SWAP1 DUP2 PUSH2 0x18D9 SWAP2 SWAP1 PUSH2 0x2D39 JUMP JUMPDEST POP PUSH1 0x8 DUP3 ADD DUP2 PUSH1 0x8 ADD SWAP1 DUP2 PUSH2 0x18EE SWAP2 SWAP1 PUSH2 0x2D39 JUMP JUMPDEST POP SWAP1 POP POP PUSH1 0x1 PUSH1 0x29 PUSH1 0x0 DUP3 DUP3 SLOAD PUSH2 0x1905 SWAP2 SWAP1 PUSH2 0x2E50 JUMP JUMPDEST SWAP3 POP POP DUP2 SWAP1 SSTORE POP PUSH32 0x5C766D1C5EA6F40AFC38CD8E27308C236C492FBCFA32B458D2755CF76EC1E21 PUSH1 0x40 MLOAD PUSH2 0x1939 SWAP1 PUSH2 0x2ED0 JUMP JUMPDEST PUSH1 0x40 MLOAD DUP1 SWAP2 SUB SWAP1 LOG1 POP POP POP POP POP POP POP POP POP JUMP JUMPDEST DUP10 PUSH1 0x14 PUSH1 0x0 ADD SWAP1 DUP2 PUSH2 0x195E SWAP2 SWAP1 PUSH2 0x2BFE JUMP JUMPDEST POP DUP8 PUSH1 0x14 PUSH1 0x2 ADD DUP2 SWAP1 SSTORE POP DUP9 PUSH1 0x14 PUSH1 0x1 ADD SWAP1 DUP2 PUSH2 0x197B SWAP2 SWAP1 PUSH2 0x2BFE JUMP JUMPDEST POP DUP7 PUSH1 0x14 PUSH1 0x3 ADD SWAP1 DUP2 PUSH2 0x198E SWAP2 SWAP1 PUSH2 0x2BFE JUMP JUMPDEST POP DUP6 PUSH1 0x14 PUSH1 0x4 ADD SWAP1 DUP2 PUSH2 0x19A1 SWAP2 SWAP1 PUSH2 0x2BFE JUMP JUMPDEST POP DUP5 PUSH1 0x14 PUSH1 0x5 ADD DUP2 SWAP1 SSTORE POP DUP4 PUSH1 0x14 PUSH1 0x6 ADD SWAP1 DUP2 PUSH2 0x19BE SWAP2 SWAP1 PUSH2 0x2BFE JUMP JUMPDEST POP DUP3 PUSH1 0x14 PUSH1 0x7 ADD SWAP1 DUP2 PUSH2 0x19D1 SWAP2 SWAP1 PUSH2 0x2BFE JUMP JUMPDEST POP DUP2 PUSH1 0x14 PUSH1 0x8 ADD SWAP1 DUP2 PUSH2 0x19E4 SWAP2 SWAP1 PUSH2 0x2BFE JUMP JUMPDEST POP DUP1 PUSH1 0x14 PUSH1 0x9 ADD SWAP1 DUP2 PUSH2 0x19F7 SWAP2 SWAP1 PUSH2 0x2BFE JUMP JUMPDEST POP PUSH1 0x14 PUSH1 0x13 DUP12 PUSH1 0x40 MLOAD PUSH2 0x1A0A SWAP2 SWAP1 PUSH2 0x2D0C JUMP JUMPDEST SWAP1 DUP2 MSTORE PUSH1 0x20 ADD PUSH1 0x40 MLOAD DUP1 SWAP2 SUB SWAP1 KECCAK256 PUSH1 0x0 DUP3 ADD DUP2 PUSH1 0x0 ADD SWAP1 DUP2 PUSH2 0x1A2C SWAP2 SWAP1 PUSH2 0x2D39 JUMP JUMPDEST POP PUSH1 0x1 DUP3 ADD DUP2 PUSH1 0x1 ADD SWAP1 DUP2 PUSH2 0x1A41 SWAP2 SWAP1 PUSH2 0x2D39 JUMP JUMPDEST POP PUSH1 0x2 DUP3 ADD SLOAD DUP2 PUSH1 0x2 ADD SSTORE PUSH1 0x3 DUP3 ADD DUP2 PUSH1 0x3 ADD SWAP1 DUP2 PUSH2 0x1A60 SWAP2 SWAP1 PUSH2 0x2D39 JUMP JUMPDEST POP PUSH1 0x4 DUP3 ADD DUP2 PUSH1 0x4 ADD SWAP1 DUP2 PUSH2 0x1A75 SWAP2 SWAP1 PUSH2 0x2D39 JUMP JUMPDEST POP PUSH1 0x5 DUP3 ADD SLOAD DUP2 PUSH1 0x5 ADD SSTORE PUSH1 0x6 DUP3 ADD DUP2 PUSH1 0x6 ADD SWAP1 DUP2 PUSH2 0x1A94 SWAP2 SWAP1 PUSH2 0x2D39 JUMP JUMPDEST POP PUSH1 0x7 DUP3 ADD DUP2 PUSH1 0x7 ADD SWAP1 DUP2 PUSH2 0x1AA9 SWAP2 SWAP1 PUSH2 0x2D39 JUMP JUMPDEST POP PUSH1 0x8 DUP3 ADD DUP2 PUSH1 0x8 ADD SWAP1 DUP2 PUSH2 0x1ABE SWAP2 SWAP1 PUSH2 0x2D39 JUMP JUMPDEST POP PUSH1 0x9 DUP3 ADD DUP2 PUSH1 0x9 ADD SWAP1 DUP2 PUSH2 0x1AD3 SWAP2 SWAP1 PUSH2 0x2D39 JUMP JUMPDEST POP SWAP1 POP POP PUSH1 0x1 PUSH1 0x1E PUSH1 0x0 DUP3 DUP3 SLOAD PUSH2 0x1AEA SWAP2 SWAP1 PUSH2 0x2E50 JUMP JUMPDEST SWAP3 POP POP DUP2 SWAP1 SSTORE POP PUSH32 0x5C766D1C5EA6F40AFC38CD8E27308C236C492FBCFA32B458D2755CF76EC1E21 PUSH1 0x40 MLOAD PUSH2 0x1B1E SWAP1 PUSH2 0x2ED0 JUMP JUMPDEST PUSH1 0x40 MLOAD DUP1 SWAP2 SUB SWAP1 LOG1 POP POP POP POP POP POP POP POP POP POP JUMP JUMPDEST PUSH1 0x0 PUSH1 0x12 SLOAD SWAP1 POP SWAP1 JUMP JUMPDEST PUSH1 0x40 MLOAD DUP1 PUSH2 0x220 ADD PUSH1 0x40 MSTORE DUP1 PUSH1 0x60 DUP2 MSTORE PUSH1 0x20 ADD PUSH1 0x0 DUP2 MSTORE PUSH1 0x20 ADD PUSH1 0x60 DUP2 MSTORE PUSH1 0x20 ADD PUSH1 0x60 DUP2 MSTORE PUSH1 0x20 ADD PUSH1 0x60 DUP2 MSTORE PUSH1 0x20 ADD PUSH1 0x0 DUP2 MSTORE PUSH1 0x20 ADD PUSH1 0x60 DUP2 MSTORE PUSH1 0x20 ADD PUSH1 0x60 DUP2 MSTORE PUSH1 0x20 ADD PUSH1 0x60 DUP2 MSTORE PUSH1 0x20 ADD PUSH1 0x60 DUP2 MSTORE PUSH1 0x20 ADD PUSH1 0x0 DUP2 MSTORE PUSH1 0x20 ADD PUSH1 0x0 DUP2 MSTORE PUSH1 0x20 ADD PUSH1 0x60 DUP2 MSTORE PUSH1 0x20 ADD PUSH1 0x60 DUP2 MSTORE PUSH1 0x20 ADD PUSH1 0x60 DUP2 MSTORE PUSH1 0x20 ADD PUSH1 0x60 DUP2 MSTORE PUSH1 0x20 ADD PUSH1 0x60 DUP2 MSTORE POP SWAP1 JUMP JUMPDEST PUSH1 0x40 MLOAD DUP1 PUSH2 0x140 ADD PUSH1 0x40 MSTORE DUP1 PUSH1 0x60 DUP2 MSTORE PUSH1 0x20 ADD PUSH1 0x60 DUP2 MSTORE PUSH1 0x20 ADD PUSH1 0x0 DUP2 MSTORE PUSH1 0x20 ADD PUSH1 0x60 DUP2 MSTORE PUSH1 0x20 ADD PUSH1 0x60 DUP2 MSTORE PUSH1 0x20 ADD PUSH1 0x0 DUP2 MSTORE PUSH1 0x20 ADD PUSH1 0x60 DUP2 MSTORE PUSH1 0x20 ADD PUSH1 0x60 DUP2 MSTORE PUSH1 0x20 ADD PUSH1 0x60 DUP2 MSTORE PUSH1 0x20 ADD PUSH1 0x60 DUP2 MSTORE POP SWAP1 JUMP JUMPDEST PUSH1 0x40 MLOAD DUP1 PUSH2 0x120 ADD PUSH1 0x40 MSTORE DUP1 PUSH1 0x60 DUP2 MSTORE PUSH1 0x20 ADD PUSH1 0x60 DUP2 MSTORE PUSH1 0x20 ADD PUSH1 0x0 DUP2 MSTORE PUSH1 0x20 ADD PUSH1 0x60 DUP2 MSTORE PUSH1 0x20 ADD PUSH1 0x60 DUP2 MSTORE PUSH1 0x20 ADD PUSH1 0x0 DUP2 MSTORE PUSH1 0x20 ADD PUSH1 0x60 DUP2 MSTORE PUSH1 0x20 ADD PUSH1 0x60 DUP2 MSTORE PUSH1 0x20 ADD PUSH1 0x60 DUP2 MSTORE POP SWAP1 JUMP JUMPDEST PUSH1 0x0 PUSH1 0x40 MLOAD SWAP1 POP SWAP1 JUMP JUMPDEST PUSH1 0x0 DUP1 REVERT JUMPDEST PUSH1 0x0 DUP1 REVERT JUMPDEST PUSH1 0x0 DUP1 REVERT JUMPDEST PUSH1 0x0 DUP1 REVERT JUMPDEST PUSH1 0x0 PUSH1 0x1F NOT PUSH1 0x1F DUP4 ADD AND SWAP1 POP SWAP2 SWAP1 POP JUMP JUMPDEST PUSH32 0x4E487B7100000000000000000000000000000000000000000000000000000000 PUSH1 0x0 MSTORE PUSH1 0x41 PUSH1 0x4 MSTORE PUSH1 0x24 PUSH1 0x0 REVERT JUMPDEST PUSH2 0x1CC6 DUP3 PUSH2 0x1C7D JUMP JUMPDEST DUP2 ADD DUP2 DUP2 LT PUSH8 0xFFFFFFFFFFFFFFFF DUP3 GT OR ISZERO PUSH2 0x1CE5 JUMPI PUSH2 0x1CE4 PUSH2 0x1C8E JUMP JUMPDEST JUMPDEST DUP1 PUSH1 0x40 MSTORE POP POP POP JUMP JUMPDEST PUSH1 0x0 PUSH2 0x1CF8 PUSH2 0x1C5F JUMP JUMPDEST SWAP1 POP PUSH2 0x1D04 DUP3 DUP3 PUSH2 0x1CBD JUMP JUMPDEST SWAP2 SWAP1 POP JUMP JUMPDEST PUSH1 0x0 PUSH8 0xFFFFFFFFFFFFFFFF DUP3 GT ISZERO PUSH2 0x1D24 JUMPI PUSH2 0x1D23 PUSH2 0x1C8E JUMP JUMPDEST JUMPDEST PUSH2 0x1D2D DUP3 PUSH2 0x1C7D JUMP JUMPDEST SWAP1 POP PUSH1 0x20 DUP2 ADD SWAP1 POP SWAP2 SWAP1 POP JUMP JUMPDEST DUP3 DUP2 DUP4 CALLDATACOPY PUSH1 0x0 DUP4 DUP4 ADD MSTORE POP POP POP JUMP JUMPDEST PUSH1 0x0 PUSH2 0x1D5C PUSH2 0x1D57 DUP5 PUSH2 0x1D09 JUMP JUMPDEST PUSH2 0x1CEE JUMP JUMPDEST SWAP1 POP DUP3 DUP2 MSTORE PUSH1 0x20 DUP2 ADD DUP5 DUP5 DUP5 ADD GT ISZERO PUSH2 0x1D78 JUMPI PUSH2 0x1D77 PUSH2 0x1C78 JUMP JUMPDEST JUMPDEST PUSH2 0x1D83 DUP5 DUP3 DUP6 PUSH2 0x1D3A JUMP JUMPDEST POP SWAP4 SWAP3 POP POP POP JUMP JUMPDEST PUSH1 0x0 DUP3 PUSH1 0x1F DUP4 ADD SLT PUSH2 0x1DA0 JUMPI PUSH2 0x1D9F PUSH2 0x1C73 JUMP JUMPDEST JUMPDEST DUP2 CALLDATALOAD PUSH2 0x1DB0 DUP5 DUP3 PUSH1 0x20 DUP7 ADD PUSH2 0x1D49 JUMP JUMPDEST SWAP2 POP POP SWAP3 SWAP2 POP POP JUMP JUMPDEST PUSH1 0x0 DUP2 SWAP1 POP SWAP2 SWAP1 POP JUMP JUMPDEST PUSH2 0x1DCC DUP2 PUSH2 0x1DB9 JUMP JUMPDEST DUP2 EQ PUSH2 0x1DD7 JUMPI PUSH1 0x0 DUP1 REVERT JUMPDEST POP JUMP JUMPDEST PUSH1 0x0 DUP2 CALLDATALOAD SWAP1 POP PUSH2 0x1DE9 DUP2 PUSH2 0x1DC3 JUMP JUMPDEST SWAP3 SWAP2 POP POP JUMP JUMPDEST PUSH1 0x0 DUP1 PUSH1 0x0 DUP1 PUSH1 0x0 DUP1 PUSH1 0x0 DUP1 PUSH1 0x0 DUP1 PUSH1 0x0 PUSH2 0x160 DUP13 DUP15 SUB SLT ISZERO PUSH2 0x1E15 JUMPI PUSH2 0x1E14 PUSH2 0x1C69 JUMP JUMPDEST JUMPDEST PUSH1 0x0 DUP13 ADD CALLDATALOAD PUSH8 0xFFFFFFFFFFFFFFFF DUP2 GT ISZERO PUSH2 0x1E33 JUMPI PUSH2 0x1E32 PUSH2 0x1C6E JUMP JUMPDEST JUMPDEST PUSH2 0x1E3F DUP15 DUP3 DUP16 ADD PUSH2 0x1D8B JUMP JUMPDEST SWAP12 POP POP PUSH1 0x20 DUP13 ADD CALLDATALOAD PUSH8 0xFFFFFFFFFFFFFFFF DUP2 GT ISZERO PUSH2 0x1E60 JUMPI PUSH2 0x1E5F PUSH2 0x1C6E JUMP JUMPDEST JUMPDEST PUSH2 0x1E6C DUP15 DUP3 DUP16 ADD PUSH2 0x1D8B JUMP JUMPDEST SWAP11 POP POP PUSH1 0x40 PUSH2 0x1E7D DUP15 DUP3 DUP16 ADD PUSH2 0x1DDA JUMP JUMPDEST SWAP10 POP POP PUSH1 0x60 DUP13 ADD CALLDATALOAD PUSH8 0xFFFFFFFFFFFFFFFF DUP2 GT ISZERO PUSH2 0x1E9E JUMPI PUSH2 0x1E9D PUSH2 0x1C6E JUMP JUMPDEST JUMPDEST PUSH2 0x1EAA DUP15 DUP3 DUP16 ADD PUSH2 0x1D8B JUMP JUMPDEST SWAP9 POP POP PUSH1 0x80 DUP13 ADD CALLDATALOAD PUSH8 0xFFFFFFFFFFFFFFFF DUP2 GT ISZERO PUSH2 0x1ECB JUMPI PUSH2 0x1ECA PUSH2 0x1C6E JUMP JUMPDEST JUMPDEST PUSH2 0x1ED7 DUP15 DUP3 DUP16 ADD PUSH2 0x1D8B JUMP JUMPDEST SWAP8 POP POP PUSH1 0xA0 PUSH2 0x1EE8 DUP15 DUP3 DUP16 ADD PUSH2 0x1DDA JUMP JUMPDEST SWAP7 POP POP PUSH1 0xC0 DUP13 ADD CALLDATALOAD PUSH8 0xFFFFFFFFFFFFFFFF DUP2 GT ISZERO PUSH2 0x1F09 JUMPI PUSH2 0x1F08 PUSH2 0x1C6E JUMP JUMPDEST JUMPDEST PUSH2 0x1F15 DUP15 DUP3 DUP16 ADD PUSH2 0x1D8B JUMP JUMPDEST SWAP6 POP POP PUSH1 0xE0 DUP13 ADD CALLDATALOAD PUSH8 0xFFFFFFFFFFFFFFFF DUP2 GT ISZERO PUSH2 0x1F36 JUMPI PUSH2 0x1F35 PUSH2 0x1C6E JUMP JUMPDEST JUMPDEST PUSH2 0x1F42 DUP15 DUP3 DUP16 ADD PUSH2 0x1D8B JUMP JUMPDEST SWAP5 POP POP PUSH2 0x100 DUP13 ADD CALLDATALOAD PUSH8 0xFFFFFFFFFFFFFFFF DUP2 GT ISZERO PUSH2 0x1F64 JUMPI PUSH2 0x1F63 PUSH2 0x1C6E JUMP JUMPDEST JUMPDEST PUSH2 0x1F70 DUP15 DUP3 DUP16 ADD PUSH2 0x1D8B JUMP JUMPDEST SWAP4 POP POP PUSH2 0x120 DUP13 ADD CALLDATALOAD PUSH8 0xFFFFFFFFFFFFFFFF DUP2 GT ISZERO PUSH2 0x1F92 JUMPI PUSH2 0x1F91 PUSH2 0x1C6E JUMP JUMPDEST JUMPDEST PUSH2 0x1F9E DUP15 DUP3 DUP16 ADD PUSH2 0x1D8B JUMP JUMPDEST SWAP3 POP POP PUSH2 0x140 PUSH2 0x1FB0 DUP15 DUP3 DUP16 ADD PUSH2 0x1DDA JUMP JUMPDEST SWAP2 POP POP SWAP3 SWAP6 SWAP9 SWAP12 POP SWAP3 SWAP6 SWAP9 SWAP12 SWAP1 SWAP4 SWAP7 SWAP10 POP JUMP JUMPDEST PUSH1 0x0 PUSH1 0x20 DUP3 DUP5 SUB SLT ISZERO PUSH2 0x1FD9 JUMPI PUSH2 0x1FD8 PUSH2 0x1C69 JUMP JUMPDEST JUMPDEST PUSH1 0x0 DUP3 ADD CALLDATALOAD PUSH8 0xFFFFFFFFFFFFFFFF DUP2 GT ISZERO PUSH2 0x1FF7 JUMPI PUSH2 0x1FF6 PUSH2 0x1C6E JUMP JUMPDEST JUMPDEST PUSH2 0x2003 DUP5 DUP3 DUP6 ADD PUSH2 0x1D8B JUMP JUMPDEST SWAP2 POP POP SWAP3 SWAP2 POP POP JUMP JUMPDEST PUSH1 0x0 DUP2 MLOAD SWAP1 POP SWAP2 SWAP1 POP JUMP JUMPDEST PUSH1 0x0 DUP3 DUP3 MSTORE PUSH1 0x20 DUP3 ADD SWAP1 POP SWAP3 SWAP2 POP POP JUMP JUMPDEST PUSH1 0x0 JUMPDEST DUP4 DUP2 LT ISZERO PUSH2 0x2046 JUMPI DUP1 DUP3 ADD MLOAD DUP2 DUP5 ADD MSTORE PUSH1 0x20 DUP2 ADD SWAP1 POP PUSH2 0x202B JUMP JUMPDEST PUSH1 0x0 DUP5 DUP5 ADD MSTORE POP POP POP POP JUMP JUMPDEST PUSH1 0x0 PUSH2 0x205D DUP3 PUSH2 0x200C JUMP JUMPDEST PUSH2 0x2067 DUP2 DUP6 PUSH2 0x2017 JUMP JUMPDEST SWAP4 POP PUSH2 0x2077 DUP2 DUP6 PUSH1 0x20 DUP7 ADD PUSH2 0x2028 JUMP JUMPDEST PUSH2 0x2080 DUP2 PUSH2 0x1C7D JUMP JUMPDEST DUP5 ADD SWAP2 POP POP SWAP3 SWAP2 POP POP JUMP JUMPDEST PUSH2 0x2094 DUP2 PUSH2 0x1DB9 JUMP JUMPDEST DUP3 MSTORE POP POP JUMP JUMPDEST PUSH1 0x0 PUSH2 0x220 DUP4 ADD PUSH1 0x0 DUP4 ADD MLOAD DUP5 DUP3 SUB PUSH1 0x0 DUP7 ADD MSTORE PUSH2 0x20B8 DUP3 DUP3 PUSH2 0x2052 JUMP JUMPDEST SWAP2 POP POP PUSH1 0x20 DUP4 ADD MLOAD PUSH2 0x20CD PUSH1 0x20 DUP7 ADD DUP3 PUSH2 0x208B JUMP JUMPDEST POP PUSH1 0x40 DUP4 ADD MLOAD DUP5 DUP3 SUB PUSH1 0x40 DUP7 ADD MSTORE PUSH2 0x20E5 DUP3 DUP3 PUSH2 0x2052 JUMP JUMPDEST SWAP2 POP POP PUSH1 0x60 DUP4 ADD MLOAD DUP5 DUP3 SUB PUSH1 0x60 DUP7 ADD MSTORE PUSH2 0x20FF DUP3 DUP3 PUSH2 0x2052 JUMP JUMPDEST SWAP2 POP POP PUSH1 0x80 DUP4 ADD MLOAD DUP5 DUP3 SUB PUSH1 0x80 DUP7 ADD MSTORE PUSH2 0x2119 DUP3 DUP3 PUSH2 0x2052 JUMP JUMPDEST SWAP2 POP POP PUSH1 0xA0 DUP4 ADD MLOAD PUSH2 0x212E PUSH1 0xA0 DUP7 ADD DUP3 PUSH2 0x208B JUMP JUMPDEST POP PUSH1 0xC0 DUP4 ADD MLOAD DUP5 DUP3 SUB PUSH1 0xC0 DUP7 ADD MSTORE PUSH2 0x2146 DUP3 DUP3 PUSH2 0x2052 JUMP JUMPDEST SWAP2 POP POP PUSH1 0xE0 DUP4 ADD MLOAD DUP5 DUP3 SUB PUSH1 0xE0 DUP7 ADD MSTORE PUSH2 0x2160 DUP3 DUP3 PUSH2 0x2052 JUMP JUMPDEST SWAP2 POP POP PUSH2 0x100 DUP4 ADD MLOAD DUP5 DUP3 SUB PUSH2 0x100 DUP7 ADD MSTORE PUSH2 0x217C DUP3 DUP3 PUSH2 0x2052 JUMP JUMPDEST SWAP2 POP POP PUSH2 0x120 DUP4 ADD MLOAD DUP5 DUP3 SUB PUSH2 0x120 DUP7 ADD MSTORE PUSH2 0x2198 DUP3 DUP3 PUSH2 0x2052 JUMP JUMPDEST SWAP2 POP POP PUSH2 0x140 DUP4 ADD MLOAD PUSH2 0x21AF PUSH2 0x140 DUP7 ADD DUP3 PUSH2 0x208B JUMP JUMPDEST POP PUSH2 0x160 DUP4 ADD MLOAD PUSH2 0x21C4 PUSH2 0x160 DUP7 ADD DUP3 PUSH2 0x208B JUMP JUMPDEST POP PUSH2 0x180 DUP4 ADD MLOAD DUP5 DUP3 SUB PUSH2 0x180 DUP7 ADD MSTORE PUSH2 0x21DE DUP3 DUP3 PUSH2 0x2052 JUMP JUMPDEST SWAP2 POP POP PUSH2 0x1A0 DUP4 ADD MLOAD DUP5 DUP3 SUB PUSH2 0x1A0 DUP7 ADD MSTORE PUSH2 0x21FA DUP3 DUP3 PUSH2 0x2052 JUMP JUMPDEST SWAP2 POP POP PUSH2 0x1C0 DUP4 ADD MLOAD DUP5 DUP3 SUB PUSH2 0x1C0 DUP7 ADD MSTORE PUSH2 0x2216 DUP3 DUP3 PUSH2 0x2052 JUMP JUMPDEST SWAP2 POP POP PUSH2 0x1E0 DUP4 ADD MLOAD DUP5 DUP3 SUB PUSH2 0x1E0 DUP7 ADD MSTORE PUSH2 0x2232 DUP3 DUP3 PUSH2 0x2052 JUMP JUMPDEST SWAP2 POP POP PUSH2 0x200 DUP4 ADD MLOAD DUP5 DUP3 SUB PUSH2 0x200 DUP7 ADD MSTORE PUSH2 0x224E DUP3 DUP3 PUSH2 0x2052 JUMP JUMPDEST SWAP2 POP POP DUP1 SWAP2 POP POP SWAP3 SWAP2 POP POP JUMP JUMPDEST PUSH1 0x0 PUSH1 0x20 DUP3 ADD SWAP1 POP DUP2 DUP2 SUB PUSH1 0x0 DUP4 ADD MSTORE PUSH2 0x2275 DUP2 DUP5 PUSH2 0x209A JUMP JUMPDEST SWAP1 POP SWAP3 SWAP2 POP POP JUMP JUMPDEST PUSH1 0x0 PUSH2 0x140 DUP4 ADD PUSH1 0x0 DUP4 ADD MLOAD DUP5 DUP3 SUB PUSH1 0x0 DUP7 ADD MSTORE PUSH2 0x229B DUP3 DUP3 PUSH2 0x2052 JUMP JUMPDEST SWAP2 POP POP PUSH1 0x20 DUP4 ADD MLOAD DUP5 DUP3 SUB PUSH1 0x20 DUP7 ADD MSTORE PUSH2 0x22B5 DUP3 DUP3 PUSH2 0x2052 JUMP JUMPDEST SWAP2 POP POP PUSH1 0x40 DUP4 ADD MLOAD PUSH2 0x22CA PUSH1 0x40 DUP7 ADD DUP3 PUSH2 0x208B JUMP JUMPDEST POP PUSH1 0x60 DUP4 ADD MLOAD DUP5 DUP3 SUB PUSH1 0x60 DUP7 ADD MSTORE PUSH2 0x22E2 DUP3 DUP3 PUSH2 0x2052 JUMP JUMPDEST SWAP2 POP POP PUSH1 0x80 DUP4 ADD MLOAD DUP5 DUP3 SUB PUSH1 0x80 DUP7 ADD MSTORE PUSH2 0x22FC DUP3 DUP3 PUSH2 0x2052 JUMP JUMPDEST SWAP2 POP POP PUSH1 0xA0 DUP4 ADD MLOAD PUSH2 0x2311 PUSH1 0xA0 DUP7 ADD DUP3 PUSH2 0x208B JUMP JUMPDEST POP PUSH1 0xC0 DUP4 ADD MLOAD DUP5 DUP3 SUB PUSH1 0xC0 DUP7 ADD MSTORE PUSH2 0x2329 DUP3 DUP3 PUSH2 0x2052 JUMP JUMPDEST SWAP2 POP POP PUSH1 0xE0 DUP4 ADD MLOAD DUP5 DUP3 SUB PUSH1 0xE0 DUP7 ADD MSTORE PUSH2 0x2343 DUP3 DUP3 PUSH2 0x2052 JUMP JUMPDEST SWAP2 POP POP PUSH2 0x100 DUP4 ADD MLOAD DUP5 DUP3 SUB PUSH2 0x100 DUP7 ADD MSTORE PUSH2 0x235F DUP3 DUP3 PUSH2 0x2052 JUMP JUMPDEST SWAP2 POP POP PUSH2 0x120 DUP4 ADD MLOAD DUP5 DUP3 SUB PUSH2 0x120 DUP7 ADD MSTORE PUSH2 0x237B DUP3 DUP3 PUSH2 0x2052 JUMP JUMPDEST SWAP2 POP POP DUP1 SWAP2 POP POP SWAP3 SWAP2 POP POP JUMP JUMPDEST PUSH1 0x0 PUSH1 0x20 DUP3 ADD SWAP1 POP DUP2 DUP2 SUB PUSH1 0x0 DUP4 ADD MSTORE PUSH2 0x23A2 DUP2 DUP5 PUSH2 0x227D JUMP JUMPDEST SWAP1 POP SWAP3 SWAP2 POP POP JUMP JUMPDEST PUSH1 0x0 DUP1 PUSH1 0x0 DUP1 PUSH1 0x0 DUP1 PUSH1 0x0 PUSH1 0xE0 DUP9 DUP11 SUB SLT ISZERO PUSH2 0x23C9 JUMPI PUSH2 0x23C8 PUSH2 0x1C69 JUMP JUMPDEST JUMPDEST PUSH1 0x0 DUP9 ADD CALLDATALOAD PUSH8 0xFFFFFFFFFFFFFFFF DUP2 GT ISZERO PUSH2 0x23E7 JUMPI PUSH2 0x23E6 PUSH2 0x1C6E JUMP JUMPDEST JUMPDEST PUSH2 0x23F3 DUP11 DUP3 DUP12 ADD PUSH2 0x1D8B JUMP JUMPDEST SWAP8 POP POP PUSH1 0x20 PUSH2 0x2404 DUP11 DUP3 DUP12 ADD PUSH2 0x1DDA JUMP JUMPDEST SWAP7 POP POP PUSH1 0x40 DUP9 ADD CALLDATALOAD PUSH8 0xFFFFFFFFFFFFFFFF DUP2 GT ISZERO PUSH2 0x2425 JUMPI PUSH2 0x2424 PUSH2 0x1C6E JUMP JUMPDEST JUMPDEST PUSH2 0x2431 DUP11 DUP3 DUP12 ADD PUSH2 0x1D8B JUMP JUMPDEST SWAP6 POP POP PUSH1 0x60 DUP9 ADD CALLDATALOAD PUSH8 0xFFFFFFFFFFFFFFFF DUP2 GT ISZERO PUSH2 0x2452 JUMPI PUSH2 0x2451 PUSH2 0x1C6E JUMP JUMPDEST JUMPDEST PUSH2 0x245E DUP11 DUP3 DUP12 ADD PUSH2 0x1D8B JUMP JUMPDEST SWAP5 POP POP PUSH1 0x80 DUP9 ADD CALLDATALOAD PUSH8 0xFFFFFFFFFFFFFFFF DUP2 GT ISZERO PUSH2 0x247F JUMPI PUSH2 0x247E PUSH2 0x1C6E JUMP JUMPDEST JUMPDEST PUSH2 0x248B DUP11 DUP3 DUP12 ADD PUSH2 0x1D8B JUMP JUMPDEST SWAP4 POP POP PUSH1 0xA0 DUP9 ADD CALLDATALOAD PUSH8 0xFFFFFFFFFFFFFFFF DUP2 GT ISZERO PUSH2 0x24AC JUMPI PUSH2 0x24AB PUSH2 0x1C6E JUMP JUMPDEST JUMPDEST PUSH2 0x24B8 DUP11 DUP3 DUP12 ADD PUSH2 0x1D8B JUMP JUMPDEST SWAP3 POP POP PUSH1 0xC0 DUP9 ADD CALLDATALOAD PUSH8 0xFFFFFFFFFFFFFFFF DUP2 GT ISZERO PUSH2 0x24D9 JUMPI PUSH2 0x24D8 PUSH2 0x1C6E JUMP JUMPDEST JUMPDEST PUSH2 0x24E5 DUP11 DUP3 DUP12 ADD PUSH2 0x1D8B JUMP JUMPDEST SWAP2 POP POP SWAP3 SWAP6 SWAP9 SWAP2 SWAP5 SWAP8 POP SWAP3 SWAP6 POP JUMP JUMPDEST PUSH1 0x0 DUP3 DUP3 MSTORE PUSH1 0x20 DUP3 ADD SWAP1 POP SWAP3 SWAP2 POP POP JUMP JUMPDEST PUSH1 0x0 PUSH2 0x2510 DUP3 PUSH2 0x200C JUMP JUMPDEST PUSH2 0x251A DUP2 DUP6 PUSH2 0x24F4 JUMP JUMPDEST SWAP4 POP PUSH2 0x252A DUP2 DUP6 PUSH1 0x20 DUP7 ADD PUSH2 0x2028 JUMP JUMPDEST PUSH2 0x2533 DUP2 PUSH2 0x1C7D JUMP JUMPDEST DUP5 ADD SWAP2 POP POP SWAP3 SWAP2 POP POP JUMP JUMPDEST PUSH1 0x0 PUSH1 0x20 DUP3 ADD SWAP1 POP DUP2 DUP2 SUB PUSH1 0x0 DUP4 ADD MSTORE PUSH2 0x2558 DUP2 DUP5 PUSH2 0x2505 JUMP JUMPDEST SWAP1 POP SWAP3 SWAP2 POP POP JUMP JUMPDEST PUSH1 0x0 DUP2 SWAP1 POP SWAP2 SWAP1 POP JUMP JUMPDEST PUSH2 0x2573 DUP2 PUSH2 0x2560 JUMP JUMPDEST DUP3 MSTORE POP POP JUMP JUMPDEST PUSH1 0x0 PUSH1 0x20 DUP3 ADD SWAP1 POP PUSH2 0x258E PUSH1 0x0 DUP4 ADD DUP5 PUSH2 0x256A JUMP JUMPDEST SWAP3 SWAP2 POP POP JUMP JUMPDEST PUSH1 0x0 PUSH2 0x120 DUP4 ADD PUSH1 0x0 DUP4 ADD MLOAD DUP5 DUP3 SUB PUSH1 0x0 DUP7 ADD MSTORE PUSH2 0x25B2 DUP3 DUP3 PUSH2 0x2052 JUMP JUMPDEST SWAP2 POP POP PUSH1 0x20 DUP4 ADD MLOAD DUP5 DUP3 SUB PUSH1 0x20 DUP7 ADD MSTORE PUSH2 0x25CC DUP3 DUP3 PUSH2 0x2052 JUMP JUMPDEST SWAP2 POP POP PUSH1 0x40 DUP4 ADD MLOAD PUSH2 0x25E1 PUSH1 0x40 DUP7 ADD DUP3 PUSH2 0x208B JUMP JUMPDEST POP PUSH1 0x60 DUP4 ADD MLOAD DUP5 DUP3 SUB PUSH1 0x60 DUP7 ADD MSTORE PUSH2 0x25F9 DUP3 DUP3 PUSH2 0x2052 JUMP JUMPDEST SWAP2 POP POP PUSH1 0x80 DUP4 ADD MLOAD DUP5 DUP3 SUB PUSH1 0x80 DUP7 ADD MSTORE PUSH2 0x2613 DUP3 DUP3 PUSH2 0x2052 JUMP JUMPDEST SWAP2 POP POP PUSH1 0xA0 DUP4 ADD MLOAD PUSH2 0x2628 PUSH1 0xA0 DUP7 ADD DUP3 PUSH2 0x208B JUMP JUMPDEST POP PUSH1 0xC0 DUP4 ADD MLOAD DUP5 DUP3 SUB PUSH1 0xC0 DUP7 ADD MSTORE PUSH2 0x2640 DUP3 DUP3 PUSH2 0x2052 JUMP JUMPDEST SWAP2 POP POP PUSH1 0xE0 DUP4 ADD MLOAD DUP5 DUP3 SUB PUSH1 0xE0 DUP7 ADD MSTORE PUSH2 0x265A DUP3 DUP3 PUSH2 0x2052 JUMP JUMPDEST SWAP2 POP POP PUSH2 0x100 DUP4 ADD MLOAD DUP5 DUP3 SUB PUSH2 0x100 DUP7 ADD MSTORE PUSH2 0x2676 DUP3 DUP3 PUSH2 0x2052 JUMP JUMPDEST SWAP2 POP POP DUP1 SWAP2 POP POP SWAP3 SWAP2 POP POP JUMP JUMPDEST PUSH1 0x0 PUSH1 0x20 DUP3 ADD SWAP1 POP DUP2 DUP2 SUB PUSH1 0x0 DUP4 ADD MSTORE PUSH2 0x269D DUP2 DUP5 PUSH2 0x2594 JUMP JUMPDEST SWAP1 POP SWAP3 SWAP2 POP POP JUMP JUMPDEST PUSH1 0x0 DUP1 PUSH1 0x0 DUP1 PUSH1 0x0 DUP1 PUSH1 0x0 DUP1 PUSH1 0x0 PUSH2 0x120 DUP11 DUP13 SUB SLT ISZERO PUSH2 0x26C8 JUMPI PUSH2 0x26C7 PUSH2 0x1C69 JUMP JUMPDEST JUMPDEST PUSH1 0x0 DUP11 ADD CALLDATALOAD PUSH8 0xFFFFFFFFFFFFFFFF DUP2 GT ISZERO PUSH2 0x26E6 JUMPI PUSH2 0x26E5 PUSH2 0x1C6E JUMP JUMPDEST JUMPDEST PUSH2 0x26F2 DUP13 DUP3 DUP14 ADD PUSH2 0x1D8B JUMP JUMPDEST SWAP10 POP POP PUSH1 0x20 DUP11 ADD CALLDATALOAD PUSH8 0xFFFFFFFFFFFFFFFF DUP2 GT ISZERO PUSH2 0x2713 JUMPI PUSH2 0x2712 PUSH2 0x1C6E JUMP JUMPDEST JUMPDEST PUSH2 0x271F DUP13 DUP3 DUP14 ADD PUSH2 0x1D8B JUMP JUMPDEST SWAP9 POP POP PUSH1 0x40 PUSH2 0x2730 DUP13 DUP3 DUP14 ADD PUSH2 0x1DDA JUMP JUMPDEST SWAP8 POP POP PUSH1 0x60 DUP11 ADD CALLDATALOAD PUSH8 0xFFFFFFFFFFFFFFFF DUP2 GT ISZERO PUSH2 0x2751 JUMPI PUSH2 0x2750 PUSH2 0x1C6E JUMP JUMPDEST JUMPDEST PUSH2 0x275D DUP13 DUP3 DUP14 ADD PUSH2 0x1D8B JUMP JUMPDEST SWAP7 POP POP PUSH1 0x80 DUP11 ADD CALLDATALOAD PUSH8 0xFFFFFFFFFFFFFFFF DUP2 GT ISZERO PUSH2 0x277E JUMPI PUSH2 0x277D PUSH2 0x1C6E JUMP JUMPDEST JUMPDEST PUSH2 0x278A DUP13 DUP3 DUP14 ADD PUSH2 0x1D8B JUMP JUMPDEST SWAP6 POP POP PUSH1 0xA0 PUSH2 0x279B DUP13 DUP3 DUP14 ADD PUSH2 0x1DDA JUMP JUMPDEST SWAP5 POP POP PUSH1 0xC0 DUP11 ADD CALLDATALOAD PUSH8 0xFFFFFFFFFFFFFFFF DUP2 GT ISZERO PUSH2 0x27BC JUMPI PUSH2 0x27BB PUSH2 0x1C6E JUMP JUMPDEST JUMPDEST PUSH2 0x27C8 DUP13 DUP3 DUP14 ADD PUSH2 0x1D8B JUMP JUMPDEST SWAP4 POP POP PUSH1 0xE0 DUP11 ADD CALLDATALOAD PUSH8 0xFFFFFFFFFFFFFFFF DUP2 GT ISZERO PUSH2 0x27E9 JUMPI PUSH2 0x27E8 PUSH2 0x1C6E JUMP JUMPDEST JUMPDEST PUSH2 0x27F5 DUP13 DUP3 DUP14 ADD PUSH2 0x1D8B JUMP JUMPDEST SWAP3 POP POP PUSH2 0x100 DUP11 ADD CALLDATALOAD PUSH8 0xFFFFFFFFFFFFFFFF DUP2 GT ISZERO PUSH2 0x2817 JUMPI PUSH2 0x2816 PUSH2 0x1C6E JUMP JUMPDEST JUMPDEST PUSH2 0x2823 DUP13 DUP3 DUP14 ADD PUSH2 0x1D8B JUMP JUMPDEST SWAP2 POP POP SWAP3 SWAP6 SWAP9 POP SWAP3 SWAP6 SWAP9 POP SWAP3 SWAP6 SWAP9 JUMP JUMPDEST PUSH1 0x0 DUP1 PUSH1 0x0 DUP1 PUSH1 0x0 DUP1 PUSH1 0x0 DUP1 PUSH1 0x0 DUP1 PUSH2 0x140 DUP12 DUP14 SUB SLT ISZERO PUSH2 0x2857 JUMPI PUSH2 0x2856 PUSH2 0x1C69 JUMP JUMPDEST JUMPDEST PUSH1 0x0 DUP12 ADD CALLDATALOAD PUSH8 0xFFFFFFFFFFFFFFFF DUP2 GT ISZERO PUSH2 0x2875 JUMPI PUSH2 0x2874 PUSH2 0x1C6E JUMP JUMPDEST JUMPDEST PUSH2 0x2881 DUP14 DUP3 DUP15 ADD PUSH2 0x1D8B JUMP JUMPDEST SWAP11 POP POP PUSH1 0x20 DUP12 ADD CALLDATALOAD PUSH8 0xFFFFFFFFFFFFFFFF DUP2 GT ISZERO PUSH2 0x28A2 JUMPI PUSH2 0x28A1 PUSH2 0x1C6E JUMP JUMPDEST JUMPDEST PUSH2 0x28AE DUP14 DUP3 DUP15 ADD PUSH2 0x1D8B JUMP JUMPDEST SWAP10 POP POP PUSH1 0x40 PUSH2 0x28BF DUP14 DUP3 DUP15 ADD PUSH2 0x1DDA JUMP JUMPDEST SWAP9 POP POP PUSH1 0x60 DUP12 ADD CALLDATALOAD PUSH8 0xFFFFFFFFFFFFFFFF DUP2 GT ISZERO PUSH2 0x28E0 JUMPI PUSH2 0x28DF PUSH2 0x1C6E JUMP JUMPDEST JUMPDEST PUSH2 0x28EC DUP14 DUP3 DUP15 ADD PUSH2 0x1D8B JUMP JUMPDEST SWAP8 POP POP PUSH1 0x80 DUP12 ADD CALLDATALOAD PUSH8 0xFFFFFFFFFFFFFFFF DUP2 GT ISZERO PUSH2 0x290D JUMPI PUSH2 0x290C PUSH2 0x1C6E JUMP JUMPDEST JUMPDEST PUSH2 0x2919 DUP14 DUP3 DUP15 ADD PUSH2 0x1D8B JUMP JUMPDEST SWAP7 POP POP PUSH1 0xA0 PUSH2 0x292A DUP14 DUP3 DUP15 ADD PUSH2 0x1DDA JUMP JUMPDEST SWAP6 POP POP PUSH1 0xC0 DUP12 ADD CALLDATALOAD PUSH8 0xFFFFFFFFFFFFFFFF DUP2 GT ISZERO PUSH2 0x294B JUMPI PUSH2 0x294A PUSH2 0x1C6E JUMP JUMPDEST JUMPDEST PUSH2 0x2957 DUP14 DUP3 DUP15 ADD PUSH2 0x1D8B JUMP JUMPDEST SWAP5 POP POP PUSH1 0xE0 DUP12 ADD CALLDATALOAD PUSH8 0xFFFFFFFFFFFFFFFF DUP2 GT ISZERO PUSH2 0x2978 JUMPI PUSH2 0x2977 PUSH2 0x1C6E JUMP JUMPDEST JUMPDEST PUSH2 0x2984 DUP14 DUP3 DUP15 ADD PUSH2 0x1D8B JUMP JUMPDEST SWAP4 POP POP PUSH2 0x100 DUP12 ADD CALLDATALOAD PUSH8 0xFFFFFFFFFFFFFFFF DUP2 GT ISZERO PUSH2 0x29A6 JUMPI PUSH2 0x29A5 PUSH2 0x1C6E JUMP JUMPDEST JUMPDEST PUSH2 0x29B2 DUP14 DUP3 DUP15 ADD PUSH2 0x1D8B JUMP JUMPDEST SWAP3 POP POP PUSH2 0x120 DUP12 ADD CALLDATALOAD PUSH8 0xFFFFFFFFFFFFFFFF DUP2 GT ISZERO PUSH2 0x29D4 JUMPI PUSH2 0x29D3 PUSH2 0x1C6E JUMP JUMPDEST JUMPDEST PUSH2 0x29E0 DUP14 DUP3 DUP15 ADD PUSH2 0x1D8B JUMP JUMPDEST SWAP2 POP POP SWAP3 SWAP6 SWAP9 SWAP12 SWAP2 SWAP5 SWAP8 SWAP11 POP SWAP3 SWAP6 SWAP9 POP JUMP JUMPDEST PUSH32 0x4E487B7100000000000000000000000000000000000000000000000000000000 PUSH1 0x0 MSTORE PUSH1 0x22 PUSH1 0x4 MSTORE PUSH1 0x24 PUSH1 0x0 REVERT JUMPDEST PUSH1 0x0 PUSH1 0x2 DUP3 DIV SWAP1 POP PUSH1 0x1 DUP3 AND DUP1 PUSH2 0x2A39 JUMPI PUSH1 0x7F DUP3 AND SWAP2 POP JUMPDEST PUSH1 0x20 DUP3 LT DUP2 SUB PUSH2 0x2A4C JUMPI PUSH2 0x2A4B PUSH2 0x29F2 JUMP JUMPDEST JUMPDEST POP SWAP2 SWAP1 POP JUMP JUMPDEST PUSH1 0x0 DUP2 SWAP1 POP DUP2 PUSH1 0x0 MSTORE PUSH1 0x20 PUSH1 0x0 KECCAK256 SWAP1 POP SWAP2 SWAP1 POP JUMP JUMPDEST PUSH1 0x0 PUSH1 0x20 PUSH1 0x1F DUP4 ADD DIV SWAP1 POP SWAP2 SWAP1 POP JUMP JUMPDEST PUSH1 0x0 DUP3 DUP3 SHL SWAP1 POP SWAP3 SWAP2 POP POP JUMP JUMPDEST PUSH1 0x0 PUSH1 0x8 DUP4 MUL PUSH2 0x2AB4 PUSH32 0xFFFFFFFFFFFFFFFFFFFFFFFFFFFFFFFFFFFFFFFFFFFFFFFFFFFFFFFFFFFFFFFF DUP3 PUSH2 0x2A77 JUMP JUMPDEST PUSH2 0x2ABE DUP7 DUP4 PUSH2 0x2A77 JUMP JUMPDEST SWAP6 POP DUP1 NOT DUP5 AND SWAP4 POP DUP1 DUP7 AND DUP5 OR SWAP3 POP POP POP SWAP4 SWAP3 POP POP POP JUMP JUMPDEST PUSH1 0x0 DUP2 SWAP1 POP SWAP2 SWAP1 POP JUMP JUMPDEST PUSH1 0x0 PUSH2 0x2AFB PUSH2 0x2AF6 PUSH2 0x2AF1 DUP5 PUSH2 0x2560 JUMP JUMPDEST PUSH2 0x2AD6 JUMP JUMPDEST PUSH2 0x2560 JUMP JUMPDEST SWAP1 POP SWAP2 SWAP1 POP JUMP JUMPDEST PUSH1 0x0 DUP2 SWAP1 POP SWAP2 SWAP1 POP JUMP JUMPDEST PUSH2 0x2B15 DUP4 PUSH2 0x2AE0 JUMP JUMPDEST PUSH2 0x2B29 PUSH2 0x2B21 DUP3 PUSH2 0x2B02 JUMP JUMPDEST DUP5 DUP5 SLOAD PUSH2 0x2A84 JUMP JUMPDEST DUP3 SSTORE POP POP POP POP JUMP JUMPDEST PUSH1 0x0 SWAP1 JUMP JUMPDEST PUSH2 0x2B3E PUSH2 0x2B31 JUMP JUMPDEST PUSH2 0x2B49 DUP2 DUP5 DUP5 PUSH2 0x2B0C JUMP JUMPDEST POP POP POP JUMP JUMPDEST JUMPDEST DUP2 DUP2 LT ISZERO PUSH2 0x2B6D JUMPI PUSH2 0x2B62 PUSH1 0x0 DUP3 PUSH2 0x2B36 JUMP JUMPDEST PUSH1 0x1 DUP2 ADD SWAP1 POP PUSH2 0x2B4F JUMP JUMPDEST POP POP JUMP JUMPDEST PUSH1 0x1F DUP3 GT ISZERO PUSH2 0x2BB2 JUMPI PUSH2 0x2B83 DUP2 PUSH2 0x2A52 JUMP JUMPDEST PUSH2 0x2B8C DUP5 PUSH2 0x2A67 JUMP JUMPDEST DUP2 ADD PUSH1 0x20 DUP6 LT ISZERO PUSH2 0x2B9B JUMPI DUP2 SWAP1 POP JUMPDEST PUSH2 0x2BAF PUSH2 0x2BA7 DUP6 PUSH2 0x2A67 JUMP JUMPDEST DUP4 ADD DUP3 PUSH2 0x2B4E JUMP JUMPDEST POP POP JUMPDEST POP POP POP JUMP JUMPDEST PUSH1 0x0 DUP3 DUP3 SHR SWAP1 POP SWAP3 SWAP2 POP POP JUMP JUMPDEST PUSH1 0x0 PUSH2 0x2BD5 PUSH1 0x0 NOT DUP5 PUSH1 0x8 MUL PUSH2 0x2BB7 JUMP JUMPDEST NOT DUP1 DUP4 AND SWAP2 POP POP SWAP3 SWAP2 POP POP JUMP JUMPDEST PUSH1 0x0 PUSH2 0x2BEE DUP4 DUP4 PUSH2 0x2BC4 JUMP JUMPDEST SWAP2 POP DUP3 PUSH1 0x2 MUL DUP3 OR SWAP1 POP SWAP3 SWAP2 POP POP JUMP JUMPDEST PUSH2 0x2C07 DUP3 PUSH2 0x200C JUMP JUMPDEST PUSH8 0xFFFFFFFFFFFFFFFF DUP2 GT ISZERO PUSH2 0x2C20 JUMPI PUSH2 0x2C1F PUSH2 0x1C8E JUMP JUMPDEST JUMPDEST PUSH2 0x2C2A DUP3 SLOAD PUSH2 0x2A21 JUMP JUMPDEST PUSH2 0x2C35 DUP3 DUP3 DUP6 PUSH2 0x2B71 JUMP JUMPDEST PUSH1 0x0 PUSH1 0x20 SWAP1 POP PUSH1 0x1F DUP4 GT PUSH1 0x1 DUP2 EQ PUSH2 0x2C68 JUMPI PUSH1 0x0 DUP5 ISZERO PUSH2 0x2C56 JUMPI DUP3 DUP8 ADD MLOAD SWAP1 POP JUMPDEST PUSH2 0x2C60 DUP6 DUP3 PUSH2 0x2BE2 JUMP JUMPDEST DUP7 SSTORE POP PUSH2 0x2CC8 JUMP JUMPDEST PUSH1 0x1F NOT DUP5 AND PUSH2 0x2C76 DUP7 PUSH2 0x2A52 JUMP JUMPDEST PUSH1 0x0 JUMPDEST DUP3 DUP2 LT ISZERO PUSH2 0x2C9E JUMPI DUP5 DUP10 ADD MLOAD DUP3 SSTORE PUSH1 0x1 DUP3 ADD SWAP2 POP PUSH1 0x20 DUP6 ADD SWAP5 POP PUSH1 0x20 DUP2 ADD SWAP1 POP PUSH2 0x2C79 JUMP JUMPDEST DUP7 DUP4 LT ISZERO PUSH2 0x2CBB JUMPI DUP5 DUP10 ADD MLOAD PUSH2 0x2CB7 PUSH1 0x1F DUP10 AND DUP3 PUSH2 0x2BC4 JUMP JUMPDEST DUP4 SSTORE POP JUMPDEST PUSH1 0x1 PUSH1 0x2 DUP9 MUL ADD DUP9 SSTORE POP POP POP JUMPDEST POP POP POP POP POP POP JUMP JUMPDEST PUSH1 0x0 DUP2 SWAP1 POP SWAP3 SWAP2 POP POP JUMP JUMPDEST PUSH1 0x0 PUSH2 0x2CE6 DUP3 PUSH2 0x200C JUMP JUMPDEST PUSH2 0x2CF0 DUP2 DUP6 PUSH2 0x2CD0 JUMP JUMPDEST SWAP4 POP PUSH2 0x2D00 DUP2 DUP6 PUSH1 0x20 DUP7 ADD PUSH2 0x2028 JUMP JUMPDEST DUP1 DUP5 ADD SWAP2 POP POP SWAP3 SWAP2 POP POP JUMP JUMPDEST PUSH1 0x0 PUSH2 0x2D18 DUP3 DUP5 PUSH2 0x2CDB JUMP JUMPDEST SWAP2 POP DUP2 SWAP1 POP SWAP3 SWAP2 POP POP JUMP JUMPDEST PUSH1 0x0 DUP2 SLOAD SWAP1 POP PUSH2 0x2D32 DUP2 PUSH2 0x2A21 JUMP JUMPDEST SWAP1 POP SWAP2 SWAP1 POP JUMP JUMPDEST DUP2 DUP2 SUB PUSH2 0x2D47 JUMPI POP POP PUSH2 0x2E1F JUMP JUMPDEST PUSH2 0x2D50 DUP3 PUSH2 0x2D23 JUMP JUMPDEST PUSH8 0xFFFFFFFFFFFFFFFF DUP2 GT ISZERO PUSH2 0x2D69 JUMPI PUSH2 0x2D68 PUSH2 0x1C8E JUMP JUMPDEST JUMPDEST PUSH2 0x2D73 DUP3 SLOAD PUSH2 0x2A21 JUMP JUMPDEST PUSH2 0x2D7E DUP3 DUP3 DUP6 PUSH2 0x2B71 JUMP JUMPDEST PUSH1 0x0 PUSH1 0x1F DUP4 GT PUSH1 0x1 DUP2 EQ PUSH2 0x2DAD JUMPI PUSH1 0x0 DUP5 ISZERO PUSH2 0x2D9B JUMPI DUP3 DUP8 ADD SLOAD SWAP1 POP JUMPDEST PUSH2 0x2DA5 DUP6 DUP3 PUSH2 0x2BE2 JUMP JUMPDEST DUP7 SSTORE POP PUSH2 0x2E18 JUMP JUMPDEST PUSH1 0x1F NOT DUP5 AND PUSH2 0x2DBB DUP8 PUSH2 0x2A52 JUMP JUMPDEST SWAP7 POP PUSH2 0x2DC6 DUP7 PUSH2 0x2A52 JUMP JUMPDEST PUSH1 0x0 JUMPDEST DUP3 DUP2 LT ISZERO PUSH2 0x2DEE JUMPI DUP5 DUP10 ADD SLOAD DUP3 SSTORE PUSH1 0x1 DUP3 ADD SWAP2 POP PUSH1 0x1 DUP6 ADD SWAP5 POP PUSH1 0x20 DUP2 ADD SWAP1 POP PUSH2 0x2DC9 JUMP JUMPDEST DUP7 DUP4 LT ISZERO PUSH2 0x2E0B JUMPI DUP5 DUP10 ADD SLOAD PUSH2 0x2E07 PUSH1 0x1F DUP10 AND DUP3 PUSH2 0x2BC4 JUMP JUMPDEST DUP4 SSTORE POP JUMPDEST PUSH1 0x1 PUSH1 0x2 DUP9 MUL ADD DUP9 SSTORE POP POP POP JUMPDEST POP POP POP POP POP POP JUMPDEST JUMP JUMPDEST PUSH32 0x4E487B7100000000000000000000000000000000000000000000000000000000 PUSH1 0x0 MSTORE PUSH1 0x11 PUSH1 0x4 MSTORE PUSH1 0x24 PUSH1 0x0 REVERT JUMPDEST PUSH1 0x0 PUSH2 0x2E5B DUP3 PUSH2 0x2560 JUMP JUMPDEST SWAP2 POP PUSH2 0x2E66 DUP4 PUSH2 0x2560 JUMP JUMPDEST SWAP3 POP DUP3 DUP3 ADD SWAP1 POP DUP1 DUP3 GT ISZERO PUSH2 0x2E7E JUMPI PUSH2 0x2E7D PUSH2 0x2E21 JUMP JUMPDEST JUMPDEST SWAP3 SWAP2 POP POP JUMP JUMPDEST PUSH32 0x41646465642073756363657366756C6C79000000000000000000000000000000 PUSH1 0x0 DUP3 ADD MSTORE POP JUMP JUMPDEST PUSH1 0x0 PUSH2 0x2EBA PUSH1 0x11 DUP4 PUSH2 0x24F4 JUMP JUMPDEST SWAP2 POP PUSH2 0x2EC5 DUP3 PUSH2 0x2E84 JUMP JUMPDEST PUSH1 0x20 DUP3 ADD SWAP1 POP SWAP2 SWAP1 POP JUMP JUMPDEST PUSH1 0x0 PUSH1 0x20 DUP3 ADD SWAP1 POP DUP2 DUP2 SUB PUSH1 0x0 DUP4 ADD MSTORE PUSH2 0x2EE9 DUP2 PUSH2 0x2EAD JUMP JUMPDEST SWAP1 POP SWAP2 SWAP1 POP JUMP INVALID LOG2 PUSH5 0x6970667358 0x22 SLT KECCAK256 0xC4 0x26 0xEC 0xF8 0xBE SWAP14 SWAP15 0x26 AND PUSH31 0x51423ED725A77275D5D7F26BF1C89A7F04FFBEA7C9BD64736F6C6343000811 STOP CALLER "},"methodIdentifiers":{"RegisterDoc(string,string,int256,string,string,int256,string,string,string)":"abe0f2ce","RegisterIp1(string,string,int256,string,string,int256,string,string,string,string,int256)":"37fcafc2","RegisterIp2(string,int256,string,string,string,string,string)":"5dea85d6","RegisterOp(string,string,int256,string,string,int256,string,string,string,string)":"b5945115","ViewDoc(string)":"91a36171","ViewIp(string)":"4132c4e0","ViewOp(string)":"58830269","docount()":"6453078f","ipc()":"d3c33c52","opc()":"6b71da91"}}}}}