{
  "_format": "hh-sol-artifact-1",
  "contractName": "HMS",
  "sourceName": "contracts/Hms.sol",
  "abi": [
    {
      "anonymous": false,
      "inputs": [
        {
          "indexed": false,
          "internalType": "string",
          "name": "message",
          "type": "string"
        }
      ],
      "name": "message",
      "type": "event"
    },
    {
      "inputs": [
        {
          "internalType": "int256",
          "name": "_pid",
          "type": "int256"
        },
        {
          "internalType": "string",
          "name": "_fullname",
          "type": "string"
        },
        {
          "internalType": "string",
          "name": "_gender",
          "type": "string"
        },
        {
          "internalType": "string",
          "name": "_Address",
          "type": "string"
        },
        {
          "internalType": "int256",
          "name": "_phone",
          "type": "int256"
        },
        {
          "internalType": "string",
          "name": "_email",
          "type": "string"
        },
        {
          "internalType": "int256",
          "name": "_docid",
          "type": "int256"
        },
        {
          "internalType": "string",
          "name": "_docnote",
          "type": "string"
        },
        {
          "internalType": "string",
          "name": "_wardtype",
          "type": "string"
        },
        {
          "internalType": "int256",
          "name": "_wardno",
          "type": "int256"
        }
      ],
      "name": "RegisterIp1",
      "outputs": [],
      "stateMutability": "nonpayable",
      "type": "function"
    },
    {
      "inputs": [
        {
          "internalType": "string",
          "name": "_email",
          "type": "string"
        },
        {
          "internalType": "int256",
          "name": "_noofadmitteddays",
          "type": "int256"
        },
        {
          "internalType": "string",
          "name": "_dateofadmitted",
          "type": "string"
        },
        {
          "internalType": "string",
          "name": "_dateofdischarge",
          "type": "string"
        },
        {
          "internalType": "string",
          "name": "_labname",
          "type": "string"
        },
        {
          "internalType": "string",
          "name": "_testresults",
          "type": "string"
        },
        {
          "internalType": "string",
          "name": "_prescription",
          "type": "string"
        }
      ],
      "name": "RegisterIp2",
      "outputs": [],
      "stateMutability": "nonpayable",
      "type": "function"
    },
    {
      "inputs": [
        {
          "internalType": "string",
          "name": "_email",
          "type": "string"
        }
      ],
      "name": "ViewIp",
      "outputs": [
        {
          "components": [
            {
              "internalType": "int256",
              "name": "pid",
              "type": "int256"
            },
            {
              "internalType": "string",
              "name": "fullname",
              "type": "string"
            },
            {
              "internalType": "string",
              "name": "gender",
              "type": "string"
            },
            {
              "internalType": "string",
              "name": "Address",
              "type": "string"
            },
            {
              "internalType": "int256",
              "name": "phone",
              "type": "int256"
            },
            {
              "internalType": "string",
              "name": "email",
              "type": "string"
            },
            {
              "internalType": "int256",
              "name": "docid",
              "type": "int256"
            },
            {
              "internalType": "string",
              "name": "docnote",
              "type": "string"
            },
            {
              "internalType": "string",
              "name": "wardtype",
              "type": "string"
            },
            {
              "internalType": "int256",
              "name": "wardno",
              "type": "int256"
            },
            {
              "internalType": "int256",
              "name": "noofadmitteddays",
              "type": "int256"
            },
            {
              "internalType": "string",
              "name": "dateofadmitted",
              "type": "string"
            },
            {
              "internalType": "string",
              "name": "dateofdischarge",
              "type": "string"
            },
            {
              "internalType": "string",
              "name": "labname",
              "type": "string"
            },
            {
              "internalType": "string",
              "name": "testresults",
              "type": "string"
            },
            {
              "internalType": "string",
              "name": "prescription",
              "type": "string"
            }
          ],
          "internalType": "struct HMS.InPatient",
          "name": "",
          "type": "tuple"
        }
      ],
      "stateMutability": "view",
      "type": "function"
    },
    {
      "inputs": [],
      "name": "ipc",
      "outputs": [
        {
          "internalType": "uint256",
          "name": "",
          "type": "uint256"
        }
      ],
      "stateMutability": "view",
      "type": "function"
    }
  ],
  "bytecode": "0x6080604052600160115534801561001557600080fd5b5061185e806100256000396000f3fe608060405234801561001057600080fd5b506004361061004c5760003560e01c80634132c4e0146100515780634470d028146100815780635dea85d61461009d578063d3c33c52146100b9575b600080fd5b61006b60048036038101906100669190610d47565b6100d7565b6040516100789190610fc6565b60405180910390f35b61009b60048036038101906100969190611014565b610788565b005b6100b760048036038101906100b2919061119b565b610969565b005b6100c1610b66565b6040516100ce91906112fe565b60405180910390f35b6100df610b70565b6000826040516100ef9190611355565b908152602001604051809103902060405180610200016040529081600082015481526020016001820180546101239061139b565b80601f016020809104026020016040519081016040528092919081815260200182805461014f9061139b565b801561019c5780601f106101715761010080835404028352916020019161019c565b820191906000526020600020905b81548152906001019060200180831161017f57829003601f168201915b505050505081526020016002820180546101b59061139b565b80601f01602080910402602001604051908101604052809291908181526020018280546101e19061139b565b801561022e5780601f106102035761010080835404028352916020019161022e565b820191906000526020600020905b81548152906001019060200180831161021157829003601f168201915b505050505081526020016003820180546102479061139b565b80601f01602080910402602001604051908101604052809291908181526020018280546102739061139b565b80156102c05780601f10610295576101008083540402835291602001916102c0565b820191906000526020600020905b8154815290600101906020018083116102a357829003601f168201915b50505050508152602001600482015481526020016005820180546102e39061139b565b80601f016020809104026020016040519081016040528092919081815260200182805461030f9061139b565b801561035c5780601f106103315761010080835404028352916020019161035c565b820191906000526020600020905b81548152906001019060200180831161033f57829003601f168201915b505050505081526020016006820154815260200160078201805461037f9061139b565b80601f01602080910402602001604051908101604052809291908181526020018280546103ab9061139b565b80156103f85780601f106103cd576101008083540402835291602001916103f8565b820191906000526020600020905b8154815290600101906020018083116103db57829003601f168201915b505050505081526020016008820180546104119061139b565b80601f016020809104026020016040519081016040528092919081815260200182805461043d9061139b565b801561048a5780601f1061045f5761010080835404028352916020019161048a565b820191906000526020600020905b81548152906001019060200180831161046d57829003601f168201915b5050505050815260200160098201548152602001600a8201548152602001600b820180546104b79061139b565b80601f01602080910402602001604051908101604052809291908181526020018280546104e39061139b565b80156105305780601f1061050557610100808354040283529160200191610530565b820191906000526020600020905b81548152906001019060200180831161051357829003601f168201915b50505050508152602001600c820180546105499061139b565b80601f01602080910402602001604051908101604052809291908181526020018280546105759061139b565b80156105c25780601f10610597576101008083540402835291602001916105c2565b820191906000526020600020905b8154815290600101906020018083116105a557829003601f168201915b50505050508152602001600d820180546105db9061139b565b80601f01602080910402602001604051908101604052809291908181526020018280546106079061139b565b80156106545780601f1061062957610100808354040283529160200191610654565b820191906000526020600020905b81548152906001019060200180831161063757829003601f168201915b50505050508152602001600e8201805461066d9061139b565b80601f01602080910402602001604051908101604052809291908181526020018280546106999061139b565b80156106e65780601f106106bb576101008083540402835291602001916106e6565b820191906000526020600020905b8154815290600101906020018083116106c957829003601f168201915b50505050508152602001600f820180546106ff9061139b565b80601f016020809104026020016040519081016040528092919081815260200182805461072b9061139b565b80156107785780601f1061074d57610100808354040283529160200191610778565b820191906000526020600020905b81548152906001019060200180831161075b57829003601f168201915b5050505050815250509050919050565b89600160000181905550886001800190816107a39190611578565b5087600160020190816107b69190611578565b5086600160030190816107c99190611578565b508560016004018190555084600160050190816107e69190611578565b508360016006018190555082600160070190816108039190611578565b5081600160080190816108169190611578565b508060016009018190555060016000866040516108339190611355565b9081526020016040518091039020600082015481600001556001820181600101908161085f9190611660565b50600282018160020190816108749190611660565b50600382018160030190816108899190611660565b5060048201548160040155600582018160050190816108a89190611660565b5060068201548160060155600782018160070190816108c79190611660565b50600882018160080190816108dc9190611660565b5060098201548160090155600a82015481600a0155600b820181600b0190816109059190611660565b50600c820181600c01908161091a9190611660565b50600d820181600d01908161092f9190611660565b50600e820181600e0190816109449190611660565b50600f820181600f0190816109599190611660565b5090505050505050505050505050565b856001600a0181905550846001600b0190816109859190611578565b50836001600c0190816109989190611578565b50826001600d0190816109ab9190611578565b50816001600e0190816109be9190611578565b50806001600f0190816109d19190611578565b506001601160008282546109e59190611777565b9250508190555060016000886040516109fe9190611355565b90815260200160405180910390206000820154816000015560018201816001019081610a2a9190611660565b5060028201816002019081610a3f9190611660565b5060038201816003019081610a549190611660565b506004820154816004015560058201816005019081610a739190611660565b506006820154816006015560078201816007019081610a929190611660565b5060088201816008019081610aa79190611660565b5060098201548160090155600a82015481600a0155600b820181600b019081610ad09190611660565b50600c820181600c019081610ae59190611660565b50600d820181600d019081610afa9190611660565b50600e820181600e019081610b0f9190611660565b50600f820181600f019081610b249190611660565b509050507f05c766d1c5ea6f40afc38cd8e27308c236c492fbcfa32b458d2755cf76ec1e21604051610b5590611808565b60405180910390a150505050505050565b6000601154905090565b604051806102000160405280600081526020016060815260200160608152602001606081526020016000815260200160608152602001600081526020016060815260200160608152602001600081526020016000815260200160608152602001606081526020016060815260200160608152602001606081525090565b6000604051905090565b600080fd5b600080fd5b600080fd5b600080fd5b6000601f19601f8301169050919050565b7f4e487b7100000000000000000000000000000000000000000000000000000000600052604160045260246000fd5b610c5482610c0b565b810181811067ffffffffffffffff82111715610c7357610c72610c1c565b5b80604052505050565b6000610c86610bed565b9050610c928282610c4b565b919050565b600067ffffffffffffffff821115610cb257610cb1610c1c565b5b610cbb82610c0b565b9050602081019050919050565b82818337600083830152505050565b6000610cea610ce584610c97565b610c7c565b905082815260208101848484011115610d0657610d05610c06565b5b610d11848285610cc8565b509392505050565b600082601f830112610d2e57610d2d610c01565b5b8135610d3e848260208601610cd7565b91505092915050565b600060208284031215610d5d57610d5c610bf7565b5b600082013567ffffffffffffffff811115610d7b57610d7a610bfc565b5b610d8784828501610d19565b91505092915050565b6000819050919050565b610da381610d90565b82525050565b600081519050919050565b600082825260208201905092915050565b60005b83811015610de3578082015181840152602081019050610dc8565b60008484015250505050565b6000610dfa82610da9565b610e048185610db4565b9350610e14818560208601610dc5565b610e1d81610c0b565b840191505092915050565b600061020083016000830151610e416000860182610d9a565b5060208301518482036020860152610e598282610def565b91505060408301518482036040860152610e738282610def565b91505060608301518482036060860152610e8d8282610def565b9150506080830151610ea26080860182610d9a565b5060a083015184820360a0860152610eba8282610def565b91505060c0830151610ecf60c0860182610d9a565b5060e083015184820360e0860152610ee78282610def565b915050610100830151848203610100860152610f038282610def565b915050610120830151610f1a610120860182610d9a565b50610140830151610f2f610140860182610d9a565b50610160830151848203610160860152610f498282610def565b915050610180830151848203610180860152610f658282610def565b9150506101a08301518482036101a0860152610f818282610def565b9150506101c08301518482036101c0860152610f9d8282610def565b9150506101e08301518482036101e0860152610fb98282610def565b9150508091505092915050565b60006020820190508181036000830152610fe08184610e28565b905092915050565b610ff181610d90565b8114610ffc57600080fd5b50565b60008135905061100e81610fe8565b92915050565b6000806000806000806000806000806101408b8d03121561103857611037610bf7565b5b60006110468d828e01610fff565b9a505060208b013567ffffffffffffffff81111561106757611066610bfc565b5b6110738d828e01610d19565b99505060408b013567ffffffffffffffff81111561109457611093610bfc565b5b6110a08d828e01610d19565b98505060608b013567ffffffffffffffff8111156110c1576110c0610bfc565b5b6110cd8d828e01610d19565b97505060806110de8d828e01610fff565b96505060a08b013567ffffffffffffffff8111156110ff576110fe610bfc565b5b61110b8d828e01610d19565b95505060c061111c8d828e01610fff565b94505060e08b013567ffffffffffffffff81111561113d5761113c610bfc565b5b6111498d828e01610d19565b9350506101008b013567ffffffffffffffff81111561116b5761116a610bfc565b5b6111778d828e01610d19565b9250506101206111898d828e01610fff565b9150509295989b9194979a5092959850565b600080600080600080600060e0888a0312156111ba576111b9610bf7565b5b600088013567ffffffffffffffff8111156111d8576111d7610bfc565b5b6111e48a828b01610d19565b97505060206111f58a828b01610fff565b965050604088013567ffffffffffffffff81111561121657611215610bfc565b5b6112228a828b01610d19565b955050606088013567ffffffffffffffff81111561124357611242610bfc565b5b61124f8a828b01610d19565b945050608088013567ffffffffffffffff8111156112705761126f610bfc565b5b61127c8a828b01610d19565b93505060a088013567ffffffffffffffff81111561129d5761129c610bfc565b5b6112a98a828b01610d19565b92505060c088013567ffffffffffffffff8111156112ca576112c9610bfc565b5b6112d68a828b01610d19565b91505092959891949750929550565b6000819050919050565b6112f8816112e5565b82525050565b600060208201905061131360008301846112ef565b92915050565b600081905092915050565b600061132f82610da9565b6113398185611319565b9350611349818560208601610dc5565b80840191505092915050565b60006113618284611324565b915081905092915050565b7f4e487b7100000000000000000000000000000000000000000000000000000000600052602260045260246000fd5b600060028204905060018216806113b357607f821691505b6020821081036113c6576113c561136c565b5b50919050565b60008190508160005260206000209050919050565b60006020601f8301049050919050565b600082821b905092915050565b60006008830261142e7fffffffffffffffffffffffffffffffffffffffffffffffffffffffffffffffff826113f1565b61143886836113f1565b95508019841693508086168417925050509392505050565b6000819050919050565b600061147561147061146b846112e5565b611450565b6112e5565b9050919050565b6000819050919050565b61148f8361145a565b6114a361149b8261147c565b8484546113fe565b825550505050565b600090565b6114b86114ab565b6114c3818484611486565b505050565b5b818110156114e7576114dc6000826114b0565b6001810190506114c9565b5050565b601f82111561152c576114fd816113cc565b611506846113e1565b81016020851015611515578190505b611529611521856113e1565b8301826114c8565b50505b505050565b600082821c905092915050565b600061154f60001984600802611531565b1980831691505092915050565b6000611568838361153e565b9150826002028217905092915050565b61158182610da9565b67ffffffffffffffff81111561159a57611599610c1c565b5b6115a4825461139b565b6115af8282856114eb565b600060209050601f8311600181146115e257600084156115d0578287015190505b6115da858261155c565b865550611642565b601f1984166115f0866113cc565b60005b82811015611618578489015182556001820191506020850194506020810190506115f3565b868310156116355784890151611631601f89168261153e565b8355505b6001600288020188555050505b505050505050565b6000815490506116598161139b565b9050919050565b81810361166e575050611746565b6116778261164a565b67ffffffffffffffff8111156116905761168f610c1c565b5b61169a825461139b565b6116a58282856114eb565b6000601f8311600181146116d457600084156116c2578287015490505b6116cc858261155c565b86555061173f565b601f1984166116e2876113cc565b96506116ed866113cc565b60005b82811015611715578489015482556001820191506001850194506020810190506116f0565b86831015611732578489015461172e601f89168261153e565b8355505b6001600288020188555050505b5050505050505b565b7f4e487b7100000000000000000000000000000000000000000000000000000000600052601160045260246000fd5b6000611782826112e5565b915061178d836112e5565b92508282019050808211156117a5576117a4611748565b5b92915050565b600082825260208201905092915050565b7f41646465642073756363657366756c6c79000000000000000000000000000000600082015250565b60006117f26011836117ab565b91506117fd826117bc565b602082019050919050565b60006020820190508181036000830152611821816117e5565b905091905056fea264697066735822122019ec8c79a6bf55582a89708c9a4f4bbdec936e0896488d67a87037913da6526b64736f6c63430008110033",
  "linkReferences": {},
  "deployedLinkReferences": {}
}