{
  "_format": "hh-sol-artifact-1",
  "contractName": "HMS",
  "sourceName": "contracts/Hms.sol",
  "abi": [
    {
      "anonymous": false,
      "inputs": [
        {
          "indexed": false,
          "internalType": "string",
          "name": "message",
          "type": "string"
        }
      ],
      "name": "message",
      "type": "event"
    },
    {
      "inputs": [
        {
          "internalType": "string",
          "name": "_did",
          "type": "string"
        },
        {
          "internalType": "string",
          "name": "_fullname",
          "type": "string"
        },
        {
          "internalType": "int256",
          "name": "_age",
          "type": "int256"
        },
        {
          "internalType": "string",
          "name": "_gender",
          "type": "string"
        },
        {
          "internalType": "string",
          "name": "_Address",
          "type": "string"
        },
        {
          "internalType": "int256",
          "name": "_phone",
          "type": "int256"
        },
        {
          "internalType": "string",
          "name": "_email",
          "type": "string"
        },
        {
          "internalType": "string",
          "name": "_qualification",
          "type": "string"
        },
        {
          "internalType": "string",
          "name": "_speciality",
          "type": "string"
        }
      ],
      "name": "RegisterDoc",
      "outputs": [],
      "stateMutability": "nonpayable",
      "type": "function"
    },
    {
      "inputs": [
        {
          "internalType": "string",
          "name": "_pid",
          "type": "string"
        },
        {
          "internalType": "string",
          "name": "_fullname",
          "type": "string"
        },
        {
          "internalType": "int256",
          "name": "_age",
          "type": "int256"
        },
        {
          "internalType": "string",
          "name": "_gender",
          "type": "string"
        },
        {
          "internalType": "string",
          "name": "_Address",
          "type": "string"
        },
        {
          "internalType": "int256",
          "name": "_phone",
          "type": "int256"
        },
        {
          "internalType": "string",
          "name": "_email",
          "type": "string"
        },
        {
          "internalType": "string",
          "name": "_docid",
          "type": "string"
        },
        {
          "internalType": "string",
          "name": "_docnote",
          "type": "string"
        },
        {
          "internalType": "string",
          "name": "_wardtype",
          "type": "string"
        },
        {
          "internalType": "int256",
          "name": "_wardno",
          "type": "int256"
        }
      ],
      "name": "RegisterIp1",
      "outputs": [],
      "stateMutability": "nonpayable",
      "type": "function"
    },
    {
      "inputs": [
        {
          "internalType": "string",
          "name": "_pid",
          "type": "string"
        },
        {
          "internalType": "int256",
          "name": "_noofadmitteddays",
          "type": "int256"
        },
        {
          "internalType": "string",
          "name": "_dateofadmitted",
          "type": "string"
        },
        {
          "internalType": "string",
          "name": "_dateofdischarge",
          "type": "string"
        },
        {
          "internalType": "string",
          "name": "_labname",
          "type": "string"
        },
        {
          "internalType": "string",
          "name": "_testresults",
          "type": "string"
        },
        {
          "internalType": "string",
          "name": "_prescription",
          "type": "string"
        }
      ],
      "name": "RegisterIp2",
      "outputs": [
        {
          "internalType": "string",
          "name": "",
          "type": "string"
        }
      ],
      "stateMutability": "nonpayable",
      "type": "function"
    },
    {
      "inputs": [
        {
          "internalType": "string",
          "name": "_pid",
          "type": "string"
        },
        {
          "internalType": "string",
          "name": "_fullname",
          "type": "string"
        },
        {
          "internalType": "int256",
          "name": "_age",
          "type": "int256"
        },
        {
          "internalType": "string",
          "name": "_gender",
          "type": "string"
        },
        {
          "internalType": "string",
          "name": "_Address",
          "type": "string"
        },
        {
          "internalType": "int256",
          "name": "_phone",
          "type": "int256"
        },
        {
          "internalType": "string",
          "name": "_email",
          "type": "string"
        },
        {
          "internalType": "string",
          "name": "_docid",
          "type": "string"
        },
        {
          "internalType": "string",
          "name": "_docnote",
          "type": "string"
        },
        {
          "internalType": "string",
          "name": "_prescription",
          "type": "string"
        }
      ],
      "name": "RegisterOp",
      "outputs": [],
      "stateMutability": "nonpayable",
      "type": "function"
    },
    {
      "inputs": [
        {
          "internalType": "string",
          "name": "_did",
          "type": "string"
        }
      ],
      "name": "ViewDoc",
      "outputs": [
        {
          "components": [
            {
              "internalType": "string",
              "name": "did",
              "type": "string"
            },
            {
              "internalType": "string",
              "name": "fullname",
              "type": "string"
            },
            {
              "internalType": "int256",
              "name": "age",
              "type": "int256"
            },
            {
              "internalType": "string",
              "name": "gender",
              "type": "string"
            },
            {
              "internalType": "string",
              "name": "Address",
              "type": "string"
            },
            {
              "internalType": "int256",
              "name": "phone",
              "type": "int256"
            },
            {
              "internalType": "string",
              "name": "email",
              "type": "string"
            },
            {
              "internalType": "string",
              "name": "qualification",
              "type": "string"
            },
            {
              "internalType": "string",
              "name": "speciality",
              "type": "string"
            }
          ],
          "internalType": "struct HMS.Doctor",
          "name": "",
          "type": "tuple"
        }
      ],
      "stateMutability": "view",
      "type": "function"
    },
    {
      "inputs": [
        {
          "internalType": "string",
          "name": "_pid",
          "type": "string"
        }
      ],
      "name": "ViewIp",
      "outputs": [
        {
          "components": [
            {
              "internalType": "string",
              "name": "pid",
              "type": "string"
            },
            {
              "internalType": "int256",
              "name": "age",
              "type": "int256"
            },
            {
              "internalType": "string",
              "name": "fullname",
              "type": "string"
            },
            {
              "internalType": "string",
              "name": "gender",
              "type": "string"
            },
            {
              "internalType": "string",
              "name": "Address",
              "type": "string"
            },
            {
              "internalType": "int256",
              "name": "phone",
              "type": "int256"
            },
            {
              "internalType": "string",
              "name": "email",
              "type": "string"
            },
            {
              "internalType": "string",
              "name": "docid",
              "type": "string"
            },
            {
              "internalType": "string",
              "name": "docnote",
              "type": "string"
            },
            {
              "internalType": "string",
              "name": "wardtype",
              "type": "string"
            },
            {
              "internalType": "int256",
              "name": "wardno",
              "type": "int256"
            },
            {
              "internalType": "int256",
              "name": "noofadmitteddays",
              "type": "int256"
            },
            {
              "internalType": "string",
              "name": "dateofadmitted",
              "type": "string"
            },
            {
              "internalType": "string",
              "name": "dateofdischarge",
              "type": "string"
            },
            {
              "internalType": "string",
              "name": "labname",
              "type": "string"
            },
            {
              "internalType": "string",
              "name": "testresults",
              "type": "string"
            },
            {
              "internalType": "string",
              "name": "prescription",
              "type": "string"
            }
          ],
          "internalType": "struct HMS.InPatient",
          "name": "",
          "type": "tuple"
        }
      ],
      "stateMutability": "view",
      "type": "function"
    },
    {
      "inputs": [
        {
          "internalType": "string",
          "name": "_pid",
          "type": "string"
        }
      ],
      "name": "ViewOp",
      "outputs": [
        {
          "components": [
            {
              "internalType": "string",
              "name": "pid",
              "type": "string"
            },
            {
              "internalType": "string",
              "name": "fullname",
              "type": "string"
            },
            {
              "internalType": "int256",
              "name": "age",
              "type": "int256"
            },
            {
              "internalType": "string",
              "name": "gender",
              "type": "string"
            },
            {
              "internalType": "string",
              "name": "Address",
              "type": "string"
            },
            {
              "internalType": "int256",
              "name": "phone",
              "type": "int256"
            },
            {
              "internalType": "string",
              "name": "email",
              "type": "string"
            },
            {
              "internalType": "string",
              "name": "docid",
              "type": "string"
            },
            {
              "internalType": "string",
              "name": "docnote",
              "type": "string"
            },
            {
              "internalType": "string",
              "name": "prescribtion",
              "type": "string"
            }
          ],
          "internalType": "struct HMS.OutPatient",
          "name": "",
          "type": "tuple"
        }
      ],
      "stateMutability": "view",
      "type": "function"
    },
    {
      "inputs": [],
      "name": "docount",
      "outputs": [
        {
          "internalType": "uint256",
          "name": "",
          "type": "uint256"
        }
      ],
      "stateMutability": "view",
      "type": "function"
    },
    {
      "inputs": [],
      "name": "ipc",
      "outputs": [
        {
          "internalType": "uint256",
          "name": "",
          "type": "uint256"
        }
      ],
      "stateMutability": "view",
      "type": "function"
    },
    {
      "inputs": [],
      "name": "opc",
      "outputs": [
        {
          "internalType": "uint256",
          "name": "",
          "type": "uint256"
        }
      ],
      "stateMutability": "view",
      "type": "function"
    }
  ],
  "bytecode": "0x608060405260016012556001601e55600160295534801561001f57600080fd5b50612f268061002f6000396000f3fe608060405234801561001057600080fd5b506004361061009e5760003560e01c80636b71da91116100665780636b71da911461016d57806391a361711461018b578063abe0f2ce146101bb578063b5945115146101d7578063d3c33c52146101f35761009e565b806337fcafc2146100a35780634132c4e0146100bf57806358830269146100ef5780635dea85d61461011f5780636453078f1461014f575b600080fd5b6100bd60048036038101906100b89190611def565b610211565b005b6100d960048036038101906100d49190611fc3565b61042f565b6040516100e6919061225b565b60405180910390f35b61010960048036038101906101049190611fc3565b610bfa565b6040516101169190612388565b60405180910390f35b610139600480360381019061013491906123aa565b6110d7565b604051610146919061253e565b60405180910390f35b610157611330565b6040516101649190612579565b60405180910390f35b61017561133a565b6040516101829190612579565b60405180910390f35b6101a560048036038101906101a09190611fc3565b611344565b6040516101b29190612683565b60405180910390f35b6101d560048036038101906101d091906126a5565b61178f565b005b6101f160048036038101906101ec9190612833565b61194c565b005b6101fb611b32565b6040516102089190612579565b60405180910390f35b8a600160000190816102239190612bfe565b50886001800181905550896001600201908161023f9190612bfe565b5087600160030190816102529190612bfe565b5086600160040190816102659190612bfe565b508560016005018190555084600160060190816102829190612bfe565b5083600160070190816102959190612bfe565b5082600160080190816102a89190612bfe565b5081600160090190816102bb9190612bfe565b50806001600a0181905550600160008c6040516102d89190612d0c565b9081526020016040518091039020600082018160000190816102fa9190612d39565b5060018201548160010155600282018160020190816103199190612d39565b506003820181600301908161032e9190612d39565b50600482018160040190816103439190612d39565b5060058201548160050155600682018160060190816103629190612d39565b50600782018160070190816103779190612d39565b506008820181600801908161038c9190612d39565b50600982018160090190816103a19190612d39565b50600a82015481600a0155600b82015481600b0155600c820181600c0190816103ca9190612d39565b50600d820181600d0190816103df9190612d39565b50600e820181600e0190816103f49190612d39565b50600f820181600f0190816104099190612d39565b506010820181601001908161041e9190612d39565b509050505050505050505050505050565b610437611b3c565b6000826040516104479190612d0c565b90815260200160405180910390206040518061022001604052908160008201805461047190612a21565b80601f016020809104026020016040519081016040528092919081815260200182805461049d90612a21565b80156104ea5780601f106104bf576101008083540402835291602001916104ea565b820191906000526020600020905b8154815290600101906020018083116104cd57829003601f168201915b505050505081526020016001820154815260200160028201805461050d90612a21565b80601f016020809104026020016040519081016040528092919081815260200182805461053990612a21565b80156105865780601f1061055b57610100808354040283529160200191610586565b820191906000526020600020905b81548152906001019060200180831161056957829003601f168201915b5050505050815260200160038201805461059f90612a21565b80601f01602080910402602001604051908101604052809291908181526020018280546105cb90612a21565b80156106185780601f106105ed57610100808354040283529160200191610618565b820191906000526020600020905b8154815290600101906020018083116105fb57829003601f168201915b5050505050815260200160048201805461063190612a21565b80601f016020809104026020016040519081016040528092919081815260200182805461065d90612a21565b80156106aa5780601f1061067f576101008083540402835291602001916106aa565b820191906000526020600020905b81548152906001019060200180831161068d57829003601f168201915b50505050508152602001600582015481526020016006820180546106cd90612a21565b80601f01602080910402602001604051908101604052809291908181526020018280546106f990612a21565b80156107465780601f1061071b57610100808354040283529160200191610746565b820191906000526020600020905b81548152906001019060200180831161072957829003601f168201915b5050505050815260200160078201805461075f90612a21565b80601f016020809104026020016040519081016040528092919081815260200182805461078b90612a21565b80156107d85780601f106107ad576101008083540402835291602001916107d8565b820191906000526020600020905b8154815290600101906020018083116107bb57829003601f168201915b505050505081526020016008820180546107f190612a21565b80601f016020809104026020016040519081016040528092919081815260200182805461081d90612a21565b801561086a5780601f1061083f5761010080835404028352916020019161086a565b820191906000526020600020905b81548152906001019060200180831161084d57829003601f168201915b5050505050815260200160098201805461088390612a21565b80601f01602080910402602001604051908101604052809291908181526020018280546108af90612a21565b80156108fc5780601f106108d1576101008083540402835291602001916108fc565b820191906000526020600020905b8154815290600101906020018083116108df57829003601f168201915b50505050508152602001600a8201548152602001600b8201548152602001600c8201805461092990612a21565b80601f016020809104026020016040519081016040528092919081815260200182805461095590612a21565b80156109a25780601f10610977576101008083540402835291602001916109a2565b820191906000526020600020905b81548152906001019060200180831161098557829003601f168201915b50505050508152602001600d820180546109bb90612a21565b80601f01602080910402602001604051908101604052809291908181526020018280546109e790612a21565b8015610a345780601f10610a0957610100808354040283529160200191610a34565b820191906000526020600020905b815481529060010190602001808311610a1757829003601f168201915b50505050508152602001600e82018054610a4d90612a21565b80601f0160208091040260200160405190810160405280929190818152602001828054610a7990612a21565b8015610ac65780601f10610a9b57610100808354040283529160200191610ac6565b820191906000526020600020905b815481529060010190602001808311610aa957829003601f168201915b50505050508152602001600f82018054610adf90612a21565b80601f0160208091040260200160405190810160405280929190818152602001828054610b0b90612a21565b8015610b585780601f10610b2d57610100808354040283529160200191610b58565b820191906000526020600020905b815481529060010190602001808311610b3b57829003601f168201915b50505050508152602001601082018054610b7190612a21565b80601f0160208091040260200160405190810160405280929190818152602001828054610b9d90612a21565b8015610bea5780601f10610bbf57610100808354040283529160200191610bea565b820191906000526020600020905b815481529060010190602001808311610bcd57829003601f168201915b5050505050815250509050919050565b610c02611bc0565b601382604051610c129190612d0c565b908152602001604051809103902060405180610140016040529081600082018054610c3c90612a21565b80601f0160208091040260200160405190810160405280929190818152602001828054610c6890612a21565b8015610cb55780601f10610c8a57610100808354040283529160200191610cb5565b820191906000526020600020905b815481529060010190602001808311610c9857829003601f168201915b50505050508152602001600182018054610cce90612a21565b80601f0160208091040260200160405190810160405280929190818152602001828054610cfa90612a21565b8015610d475780601f10610d1c57610100808354040283529160200191610d47565b820191906000526020600020905b815481529060010190602001808311610d2a57829003601f168201915b5050505050815260200160028201548152602001600382018054610d6a90612a21565b80601f0160208091040260200160405190810160405280929190818152602001828054610d9690612a21565b8015610de35780601f10610db857610100808354040283529160200191610de3565b820191906000526020600020905b815481529060010190602001808311610dc657829003601f168201915b50505050508152602001600482018054610dfc90612a21565b80601f0160208091040260200160405190810160405280929190818152602001828054610e2890612a21565b8015610e755780601f10610e4a57610100808354040283529160200191610e75565b820191906000526020600020905b815481529060010190602001808311610e5857829003601f168201915b5050505050815260200160058201548152602001600682018054610e9890612a21565b80601f0160208091040260200160405190810160405280929190818152602001828054610ec490612a21565b8015610f115780601f10610ee657610100808354040283529160200191610f11565b820191906000526020600020905b815481529060010190602001808311610ef457829003601f168201915b50505050508152602001600782018054610f2a90612a21565b80601f0160208091040260200160405190810160405280929190818152602001828054610f5690612a21565b8015610fa35780601f10610f7857610100808354040283529160200191610fa3565b820191906000526020600020905b815481529060010190602001808311610f8657829003601f168201915b50505050508152602001600882018054610fbc90612a21565b80601f0160208091040260200160405190810160405280929190818152602001828054610fe890612a21565b80156110355780601f1061100a57610100808354040283529160200191611035565b820191906000526020600020905b81548152906001019060200180831161101857829003601f168201915b5050505050815260200160098201805461104e90612a21565b80601f016020809104026020016040519081016040528092919081815260200182805461107a90612a21565b80156110c75780601f1061109c576101008083540402835291602001916110c7565b820191906000526020600020905b8154815290600101906020018083116110aa57829003601f168201915b5050505050815250509050919050565b6060866001600b0181905550856001600c0190816110f59190612bfe565b50846001600d0190816111089190612bfe565b50836001600e01908161111b9190612bfe565b50826001600f01908161112e9190612bfe565b5081600160100190816111419190612bfe565b506001601260008282546111559190612e50565b92505081905550600160008960405161116e9190612d0c565b9081526020016040518091039020600082018160000190816111909190612d39565b5060018201548160010155600282018160020190816111af9190612d39565b50600382018160030190816111c49190612d39565b50600482018160040190816111d99190612d39565b5060058201548160050155600682018160060190816111f89190612d39565b506007820181600701908161120d9190612d39565b50600882018160080190816112229190612d39565b50600982018160090190816112379190612d39565b50600a82015481600a0155600b82015481600b0155600c820181600c0190816112609190612d39565b50600d820181600d0190816112759190612d39565b50600e820181600e01908161128a9190612d39565b50600f820181600f01908161129f9190612d39565b50601082018160100190816112b49190612d39565b509050507f05c766d1c5ea6f40afc38cd8e27308c236c492fbcfa32b458d2755cf76ec1e216040516112e590612ed0565b60405180910390a16040518060400160405280601181526020017f41646465642053756363657366756c6c790000000000000000000000000000008152509050979650505050505050565b6000602954905090565b6000601e54905090565b61134c611c13565b601f8260405161135c9190612d0c565b90815260200160405180910390206040518061012001604052908160008201805461138690612a21565b80601f01602080910402602001604051908101604052809291908181526020018280546113b290612a21565b80156113ff5780601f106113d4576101008083540402835291602001916113ff565b820191906000526020600020905b8154815290600101906020018083116113e257829003601f168201915b5050505050815260200160018201805461141890612a21565b80601f016020809104026020016040519081016040528092919081815260200182805461144490612a21565b80156114915780601f1061146657610100808354040283529160200191611491565b820191906000526020600020905b81548152906001019060200180831161147457829003601f168201915b50505050508152602001600282015481526020016003820180546114b490612a21565b80601f01602080910402602001604051908101604052809291908181526020018280546114e090612a21565b801561152d5780601f106115025761010080835404028352916020019161152d565b820191906000526020600020905b81548152906001019060200180831161151057829003601f168201915b5050505050815260200160048201805461154690612a21565b80601f016020809104026020016040519081016040528092919081815260200182805461157290612a21565b80156115bf5780601f10611594576101008083540402835291602001916115bf565b820191906000526020600020905b8154815290600101906020018083116115a257829003601f168201915b50505050508152602001600582015481526020016006820180546115e290612a21565b80601f016020809104026020016040519081016040528092919081815260200182805461160e90612a21565b801561165b5780601f106116305761010080835404028352916020019161165b565b820191906000526020600020905b81548152906001019060200180831161163e57829003601f168201915b5050505050815260200160078201805461167490612a21565b80601f01602080910402602001604051908101604052809291908181526020018280546116a090612a21565b80156116ed5780601f106116c2576101008083540402835291602001916116ed565b820191906000526020600020905b8154815290600101906020018083116116d057829003601f168201915b5050505050815260200160088201805461170690612a21565b80601f016020809104026020016040519081016040528092919081815260200182805461173290612a21565b801561177f5780601f106117545761010080835404028352916020019161177f565b820191906000526020600020905b81548152906001019060200180831161176257829003601f168201915b5050505050815250509050919050565b88602060000190816117a19190612bfe565b508660206002018190555087602060010190816117be9190612bfe565b5085602060030190816117d19190612bfe565b5084602060040190816117e49190612bfe565b508360206005018190555082602060060190816118019190612bfe565b5081602060070190816118149190612bfe565b5080602060080190816118279190612bfe565b506020601f8a60405161183a9190612d0c565b90815260200160405180910390206000820181600001908161185c9190612d39565b50600182018160010190816118719190612d39565b5060028201548160020155600382018160030190816118909190612d39565b50600482018160040190816118a59190612d39565b5060058201548160050155600682018160060190816118c49190612d39565b50600782018160070190816118d99190612d39565b50600882018160080190816118ee9190612d39565b509050506001602960008282546119059190612e50565b925050819055507f05c766d1c5ea6f40afc38cd8e27308c236c492fbcfa32b458d2755cf76ec1e2160405161193990612ed0565b60405180910390a1505050505050505050565b896014600001908161195e9190612bfe565b5087601460020181905550886014600101908161197b9190612bfe565b50866014600301908161198e9190612bfe565b5085601460040190816119a19190612bfe565b508460146005018190555083601460060190816119be9190612bfe565b5082601460070190816119d19190612bfe565b5081601460080190816119e49190612bfe565b5080601460090190816119f79190612bfe565b50601460138b604051611a0a9190612d0c565b908152602001604051809103902060008201816000019081611a2c9190612d39565b5060018201816001019081611a419190612d39565b506002820154816002015560038201816003019081611a609190612d39565b5060048201816004019081611a759190612d39565b506005820154816005015560068201816006019081611a949190612d39565b5060078201816007019081611aa99190612d39565b5060088201816008019081611abe9190612d39565b5060098201816009019081611ad39190612d39565b509050506001601e6000828254611aea9190612e50565b925050819055507f05c766d1c5ea6f40afc38cd8e27308c236c492fbcfa32b458d2755cf76ec1e21604051611b1e90612ed0565b60405180910390a150505050505050505050565b6000601254905090565b60405180610220016040528060608152602001600081526020016060815260200160608152602001606081526020016000815260200160608152602001606081526020016060815260200160608152602001600081526020016000815260200160608152602001606081526020016060815260200160608152602001606081525090565b604051806101400160405280606081526020016060815260200160008152602001606081526020016060815260200160008152602001606081526020016060815260200160608152602001606081525090565b6040518061012001604052806060815260200160608152602001600081526020016060815260200160608152602001600081526020016060815260200160608152602001606081525090565b6000604051905090565b600080fd5b600080fd5b600080fd5b600080fd5b6000601f19601f8301169050919050565b7f4e487b7100000000000000000000000000000000000000000000000000000000600052604160045260246000fd5b611cc682611c7d565b810181811067ffffffffffffffff82111715611ce557611ce4611c8e565b5b80604052505050565b6000611cf8611c5f565b9050611d048282611cbd565b919050565b600067ffffffffffffffff821115611d2457611d23611c8e565b5b611d2d82611c7d565b9050602081019050919050565b82818337600083830152505050565b6000611d5c611d5784611d09565b611cee565b905082815260208101848484011115611d7857611d77611c78565b5b611d83848285611d3a565b509392505050565b600082601f830112611da057611d9f611c73565b5b8135611db0848260208601611d49565b91505092915050565b6000819050919050565b611dcc81611db9565b8114611dd757600080fd5b50565b600081359050611de981611dc3565b92915050565b60008060008060008060008060008060006101608c8e031215611e1557611e14611c69565b5b60008c013567ffffffffffffffff811115611e3357611e32611c6e565b5b611e3f8e828f01611d8b565b9b505060208c013567ffffffffffffffff811115611e6057611e5f611c6e565b5b611e6c8e828f01611d8b565b9a50506040611e7d8e828f01611dda565b99505060608c013567ffffffffffffffff811115611e9e57611e9d611c6e565b5b611eaa8e828f01611d8b565b98505060808c013567ffffffffffffffff811115611ecb57611eca611c6e565b5b611ed78e828f01611d8b565b97505060a0611ee88e828f01611dda565b96505060c08c013567ffffffffffffffff811115611f0957611f08611c6e565b5b611f158e828f01611d8b565b95505060e08c013567ffffffffffffffff811115611f3657611f35611c6e565b5b611f428e828f01611d8b565b9450506101008c013567ffffffffffffffff811115611f6457611f63611c6e565b5b611f708e828f01611d8b565b9350506101208c013567ffffffffffffffff811115611f9257611f91611c6e565b5b611f9e8e828f01611d8b565b925050610140611fb08e828f01611dda565b9150509295989b509295989b9093969950565b600060208284031215611fd957611fd8611c69565b5b600082013567ffffffffffffffff811115611ff757611ff6611c6e565b5b61200384828501611d8b565b91505092915050565b600081519050919050565b600082825260208201905092915050565b60005b8381101561204657808201518184015260208101905061202b565b60008484015250505050565b600061205d8261200c565b6120678185612017565b9350612077818560208601612028565b61208081611c7d565b840191505092915050565b61209481611db9565b82525050565b60006102208301600083015184820360008601526120b88282612052565b91505060208301516120cd602086018261208b565b50604083015184820360408601526120e58282612052565b915050606083015184820360608601526120ff8282612052565b915050608083015184820360808601526121198282612052565b91505060a083015161212e60a086018261208b565b5060c083015184820360c08601526121468282612052565b91505060e083015184820360e08601526121608282612052565b91505061010083015184820361010086015261217c8282612052565b9150506101208301518482036101208601526121988282612052565b9150506101408301516121af61014086018261208b565b506101608301516121c461016086018261208b565b506101808301518482036101808601526121de8282612052565b9150506101a08301518482036101a08601526121fa8282612052565b9150506101c08301518482036101c08601526122168282612052565b9150506101e08301518482036101e08601526122328282612052565b91505061020083015184820361020086015261224e8282612052565b9150508091505092915050565b60006020820190508181036000830152612275818461209a565b905092915050565b600061014083016000830151848203600086015261229b8282612052565b915050602083015184820360208601526122b58282612052565b91505060408301516122ca604086018261208b565b50606083015184820360608601526122e28282612052565b915050608083015184820360808601526122fc8282612052565b91505060a083015161231160a086018261208b565b5060c083015184820360c08601526123298282612052565b91505060e083015184820360e08601526123438282612052565b91505061010083015184820361010086015261235f8282612052565b91505061012083015184820361012086015261237b8282612052565b9150508091505092915050565b600060208201905081810360008301526123a2818461227d565b905092915050565b600080600080600080600060e0888a0312156123c9576123c8611c69565b5b600088013567ffffffffffffffff8111156123e7576123e6611c6e565b5b6123f38a828b01611d8b565b97505060206124048a828b01611dda565b965050604088013567ffffffffffffffff81111561242557612424611c6e565b5b6124318a828b01611d8b565b955050606088013567ffffffffffffffff81111561245257612451611c6e565b5b61245e8a828b01611d8b565b945050608088013567ffffffffffffffff81111561247f5761247e611c6e565b5b61248b8a828b01611d8b565b93505060a088013567ffffffffffffffff8111156124ac576124ab611c6e565b5b6124b88a828b01611d8b565b92505060c088013567ffffffffffffffff8111156124d9576124d8611c6e565b5b6124e58a828b01611d8b565b91505092959891949750929550565b600082825260208201905092915050565b60006125108261200c565b61251a81856124f4565b935061252a818560208601612028565b61253381611c7d565b840191505092915050565b600060208201905081810360008301526125588184612505565b905092915050565b6000819050919050565b61257381612560565b82525050565b600060208201905061258e600083018461256a565b92915050565b60006101208301600083015184820360008601526125b28282612052565b915050602083015184820360208601526125cc8282612052565b91505060408301516125e1604086018261208b565b50606083015184820360608601526125f98282612052565b915050608083015184820360808601526126138282612052565b91505060a083015161262860a086018261208b565b5060c083015184820360c08601526126408282612052565b91505060e083015184820360e086015261265a8282612052565b9150506101008301518482036101008601526126768282612052565b9150508091505092915050565b6000602082019050818103600083015261269d8184612594565b905092915050565b60008060008060008060008060006101208a8c0312156126c8576126c7611c69565b5b60008a013567ffffffffffffffff8111156126e6576126e5611c6e565b5b6126f28c828d01611d8b565b99505060208a013567ffffffffffffffff81111561271357612712611c6e565b5b61271f8c828d01611d8b565b98505060406127308c828d01611dda565b97505060608a013567ffffffffffffffff81111561275157612750611c6e565b5b61275d8c828d01611d8b565b96505060808a013567ffffffffffffffff81111561277e5761277d611c6e565b5b61278a8c828d01611d8b565b95505060a061279b8c828d01611dda565b94505060c08a013567ffffffffffffffff8111156127bc576127bb611c6e565b5b6127c88c828d01611d8b565b93505060e08a013567ffffffffffffffff8111156127e9576127e8611c6e565b5b6127f58c828d01611d8b565b9250506101008a013567ffffffffffffffff81111561281757612816611c6e565b5b6128238c828d01611d8b565b9150509295985092959850929598565b6000806000806000806000806000806101408b8d03121561285757612856611c69565b5b60008b013567ffffffffffffffff81111561287557612874611c6e565b5b6128818d828e01611d8b565b9a505060208b013567ffffffffffffffff8111156128a2576128a1611c6e565b5b6128ae8d828e01611d8b565b99505060406128bf8d828e01611dda565b98505060608b013567ffffffffffffffff8111156128e0576128df611c6e565b5b6128ec8d828e01611d8b565b97505060808b013567ffffffffffffffff81111561290d5761290c611c6e565b5b6129198d828e01611d8b565b96505060a061292a8d828e01611dda565b95505060c08b013567ffffffffffffffff81111561294b5761294a611c6e565b5b6129578d828e01611d8b565b94505060e08b013567ffffffffffffffff81111561297857612977611c6e565b5b6129848d828e01611d8b565b9350506101008b013567ffffffffffffffff8111156129a6576129a5611c6e565b5b6129b28d828e01611d8b565b9250506101208b013567ffffffffffffffff8111156129d4576129d3611c6e565b5b6129e08d828e01611d8b565b9150509295989b9194979a5092959850565b7f4e487b7100000000000000000000000000000000000000000000000000000000600052602260045260246000fd5b60006002820490506001821680612a3957607f821691505b602082108103612a4c57612a4b6129f2565b5b50919050565b60008190508160005260206000209050919050565b60006020601f8301049050919050565b600082821b905092915050565b600060088302612ab47fffffffffffffffffffffffffffffffffffffffffffffffffffffffffffffffff82612a77565b612abe8683612a77565b95508019841693508086168417925050509392505050565b6000819050919050565b6000612afb612af6612af184612560565b612ad6565b612560565b9050919050565b6000819050919050565b612b1583612ae0565b612b29612b2182612b02565b848454612a84565b825550505050565b600090565b612b3e612b31565b612b49818484612b0c565b505050565b5b81811015612b6d57612b62600082612b36565b600181019050612b4f565b5050565b601f821115612bb257612b8381612a52565b612b8c84612a67565b81016020851015612b9b578190505b612baf612ba785612a67565b830182612b4e565b50505b505050565b600082821c905092915050565b6000612bd560001984600802612bb7565b1980831691505092915050565b6000612bee8383612bc4565b9150826002028217905092915050565b612c078261200c565b67ffffffffffffffff811115612c2057612c1f611c8e565b5b612c2a8254612a21565b612c35828285612b71565b600060209050601f831160018114612c685760008415612c56578287015190505b612c608582612be2565b865550612cc8565b601f198416612c7686612a52565b60005b82811015612c9e57848901518255600182019150602085019450602081019050612c79565b86831015612cbb5784890151612cb7601f891682612bc4565b8355505b6001600288020188555050505b505050505050565b600081905092915050565b6000612ce68261200c565b612cf08185612cd0565b9350612d00818560208601612028565b80840191505092915050565b6000612d188284612cdb565b915081905092915050565b600081549050612d3281612a21565b9050919050565b818103612d47575050612e1f565b612d5082612d23565b67ffffffffffffffff811115612d6957612d68611c8e565b5b612d738254612a21565b612d7e828285612b71565b6000601f831160018114612dad5760008415612d9b578287015490505b612da58582612be2565b865550612e18565b601f198416612dbb87612a52565b9650612dc686612a52565b60005b82811015612dee57848901548255600182019150600185019450602081019050612dc9565b86831015612e0b5784890154612e07601f891682612bc4565b8355505b6001600288020188555050505b5050505050505b565b7f4e487b7100000000000000000000000000000000000000000000000000000000600052601160045260246000fd5b6000612e5b82612560565b9150612e6683612560565b9250828201905080821115612e7e57612e7d612e21565b5b92915050565b7f41646465642073756363657366756c6c79000000000000000000000000000000600082015250565b6000612eba6011836124f4565b9150612ec582612e84565b602082019050919050565b60006020820190508181036000830152612ee981612ead565b905091905056fea2646970667358221220c426ecf8be9d9e26167e51423ed725a77275d5d7f26bf1c89a7f04ffbea7c9bd64736f6c63430008110033",
  "linkReferences": {},
  "deployedLinkReferences": {}
}